{
  "address": "0xF5B335323e1b8c219A9e0bF798a2bFf8325e1cE1",
  "abi": [
    {
      "inputs": [
        {
          "internalType": "address",
          "name": "_curate",
          "type": "address"
        }
      ],
      "stateMutability": "nonpayable",
      "type": "constructor"
    },
    {
      "anonymous": false,
      "inputs": [
        {
          "indexed": true,
          "internalType": "contract CurateV2",
          "name": "_address",
          "type": "address"
        },
        {
          "indexed": false,
          "internalType": "string",
          "name": "_listMetadata",
          "type": "string"
        }
      ],
      "name": "NewList",
      "type": "event"
    },
    {
      "inputs": [],
      "name": "count",
      "outputs": [
        {
          "internalType": "uint256",
          "name": "",
          "type": "uint256"
        }
      ],
      "stateMutability": "view",
      "type": "function"
    },
    {
      "inputs": [],
      "name": "curate",
      "outputs": [
        {
          "internalType": "address",
          "name": "",
          "type": "address"
        }
      ],
      "stateMutability": "view",
      "type": "function"
    },
    {
      "inputs": [
        {
          "internalType": "address",
          "name": "_governor",
          "type": "address"
        },
        {
          "internalType": "contract IArbitratorV2",
          "name": "_arbitrator",
          "type": "address"
        },
        {
          "internalType": "bytes",
          "name": "_arbitratorExtraData",
          "type": "bytes"
        },
        {
          "internalType": "contract EvidenceModule",
          "name": "_evidenceModule",
          "type": "address"
        },
        {
          "internalType": "address",
          "name": "_connectedList",
          "type": "address"
        },
        {
          "components": [
            {
              "internalType": "address",
              "name": "templateRegistry",
              "type": "address"
            },
            {
              "internalType": "string[2]",
              "name": "registrationTemplateParameters",
              "type": "string[2]"
            },
            {
              "internalType": "string[2]",
              "name": "removalTemplateParameters",
              "type": "string[2]"
            }
          ],
          "internalType": "struct CurateFactory.TemplateRegistryParams",
          "name": "_templateRegistryParams",
          "type": "tuple"
        },
        {
          "internalType": "uint256[4]",
          "name": "_baseDeposits",
          "type": "uint256[4]"
        },
        {
          "internalType": "uint256",
          "name": "_challengePeriodDuration",
          "type": "uint256"
        },
        {
          "internalType": "address",
          "name": "_relayerContract",
          "type": "address"
        },
        {
          "internalType": "string",
          "name": "_listMetadata",
          "type": "string"
        }
      ],
      "name": "deploy",
      "outputs": [],
      "stateMutability": "nonpayable",
      "type": "function"
    },
    {
      "inputs": [
        {
          "internalType": "uint256",
          "name": "",
          "type": "uint256"
        }
      ],
      "name": "instances",
      "outputs": [
        {
          "internalType": "contract CurateV2",
          "name": "",
          "type": "address"
        }
      ],
      "stateMutability": "view",
      "type": "function"
    }
  ],
  "transactionHash": "0x9f86ac5bd74b2644eecf806c40a03afc487d1d3a7d248b23926dd08091c5ac33",
  "args": [
    "0x05F7E98A269d05bC7E965dE81A0e40766Ab8fF96"
  ],
  "numDeployments": 2,
  "solcInputHash": "da938802fa1c2c23c41193ff33f2c697",
  "bytecode": "0x608060405234801561001057600080fd5b506040516107cf3803806107cf83398101604081905261002f91610054565b600180546001600160a01b0319166001600160a01b0392909216919091179055610084565b60006020828403121561006657600080fd5b81516001600160a01b038116811461007d57600080fd5b9392505050565b61073c806100936000396000f3fe608060405234801561001057600080fd5b506004361061004c5760003560e01c806306661abd146100515780630f9373ad14610067578063a2f7b3a514610092578063a63b115b146100a5575b600080fd5b6000546040519081526020015b60405180910390f35b60015461007a906001600160a01b031681565b6040516001600160a01b03909116815260200161005e565b61007a6100a03660046102d0565b6100ba565b6100b86100b3366004610427565b6100e4565b005b600081815481106100ca57600080fd5b6000918252602090912001546001600160a01b0316905081565b6001546000906100fc906001600160a01b0316610232565b90506001600160a01b038116634df5e6ff8d8d8d8d8d8d61012060208f018f61052c565b8e8060400190610130919061052c565b8f6000016020810190610143919061054c565b8f8f8f6040518d63ffffffff1660e01b815260040161016d9c9b9a9998979695949392919061061f565b600060405180830381600087803b15801561018757600080fd5b505af115801561019b573d6000803e3d6000fd5b5050600080546001810182559080527f290decd9548b62a8d60345a988386fc84ba6bc95484008f6362f93160ef3e5630180546001600160a01b0319166001600160a01b0385169081179091556040519092507f7f438a7fc06908fe142e648f7f4c873bc213aadfe6d7ad37598fb34c4879a453915061021c9085906106b8565b60405180910390a2505050505050505050505050565b6000763d602d80600a3d3981f3363d3d373d3d3d363d730000008260601b60e81c176000526e5af43d82803e903d91602b57fd5bf38260781b17602052603760096000f090506001600160a01b0381166102cb5760405162461bcd60e51b8152602060048201526016602482015275115490cc4c4d8dce8818dc99585d194819985a5b195960521b604482015260640160405180910390fd5b919050565b6000602082840312156102e257600080fd5b5035919050565b6001600160a01b03811681146102fe57600080fd5b50565b80356102cb816102e9565b60008083601f84011261031e57600080fd5b50813567ffffffffffffffff81111561033657600080fd5b60208301915083602082850101111561034e57600080fd5b9250929050565b60006060828403121561036757600080fd5b50919050565b806080810183101561037e57600080fd5b92915050565b634e487b7160e01b600052604160045260246000fd5b600082601f8301126103ab57600080fd5b813567ffffffffffffffff808211156103c6576103c6610384565b604051601f8301601f19908116603f011681019082821181831017156103ee576103ee610384565b8160405283815286602085880101111561040757600080fd5b836020870160208301376000602085830101528094505050505092915050565b60008060008060008060008060008060006101a08c8e03121561044957600080fd5b6104528c610301565b9a5061046060208d01610301565b995067ffffffffffffffff8060408e0135111561047c57600080fd5b61048c8e60408f01358f0161030c565b909a50985061049d60608e01610301565b97506104ab60808e01610301565b96508060a08e013511156104be57600080fd5b6104ce8e60a08f01358f01610355565b95506104dd8e60c08f0161036d565b94506101408d013593506104f46101608e01610301565b9250806101808e0135111561050857600080fd5b5061051a8d6101808e01358e0161039a565b90509295989b509295989b9093969950565b60008235603e1983360301811261054257600080fd5b9190910192915050565b60006020828403121561055e57600080fd5b8135610569816102e9565b9392505050565b81835281816020850137506000828201602090810191909152601f909101601f19169091010190565b600082604081018360005b60028110156106145783830387528135601e198736030181126105c657600080fd5b8601602081810191359067ffffffffffffffff8211156105e557600080fd5b8136038313156105f457600080fd5b6105ff868385610570565b998101999550939093019250506001016105a4565b509095945050505050565b600060018060a01b03808f168352808e1660208401526101c0604084015261064c6101c084018d8f610570565b818c166060850152818b16608085015283810360a085015261066e818b610599565b905083810360c0850152610682818a610599565b92505080871660e0840152608086610100850137846101808401528084166101a0840152509d9c50505050505050505050505050565b600060208083528351808285015260005b818110156106e5578581018301518582016040015282016106c9565b506000604082860101526040601f19601f830116850101925050509291505056fea26469706673582212200d24d5bd2a78672e9241bc4c59d3e7d09393a976967ea77e44fb1c7b83cad3bf64736f6c63430008120033",
  "devdoc": {
    "events": {
      "NewList(address,string)": {
        "details": "Emitted when a new Curate contract is deployed using this factory. TODO: change TCR mentions.",
        "params": {
          "_address": "The address of the newly deployed Curate contract.",
          "_listMetadata": "A link to registry / list metadata (title,description) using its URI"
        }
      }
    },
    "kind": "dev",
    "methods": {
      "constructor": {
        "details": "Constructor.",
        "params": {
          "_curate": "Address of the Curate contract that is going to be used for each new deployment."
        }
      },
      "count()": {
        "returns": {
          "_0": "The number of deployed Curate contracts using this factory."
        }
      },
      "deploy(address,address,bytes,address,address,(address,string[2],string[2]),uint256[4],uint256,address,string)": {
        "details": "Deploy the arbitrable curated registry.",
        "params": {
          "_arbitrator": "Arbitrator to resolve potential disputes. The arbitrator is trusted to support appeal periods and not reenter.",
          "_arbitratorExtraData": "Extra data for the trusted arbitrator contract.",
          "_baseDeposits": "The base deposits for requests/challenges as follows: - The base deposit to submit an item. - The base deposit to remove an item. - The base deposit to challenge a submission. - The base deposit to challenge a removal request.",
          "_challengePeriodDuration": "The time in seconds parties have to challenge a request.",
          "_connectedList": "The address of the Curate contract that stores related Curate addresses. This parameter can be left empty.",
          "_evidenceModule": "The evidence contract for the arbitrator.",
          "_governor": "The trusted governor of this contract.",
          "_listMetadata": "A link to registry / list metadata (title,description) using its URI",
          "_relayerContract": "The address of the relay contract to add/remove items directly.",
          "_templateRegistryParams": "The dispute template registry. - templateRegistry : The dispute template registry. - registrationTemplateParameters : Template and data mappings json for registration requests. - removalTemplateParameters : Template and data mappings json for removal requests."
        }
      }
    },
    "title": "CurateFactory This contract acts as a registry for Curate instances.",
    "version": 1
  },
  "userdoc": {
    "kind": "user",
    "methods": {},
    "version": 1
  },
  "storageLayout": {
    "storage": [
      {
        "astId": 753,
        "contract": "src/CurateFactory.sol:CurateFactory",
        "label": "instances",
        "offset": 0,
        "slot": "0",
        "type": "t_array(t_contract(CurateV2)2693)dyn_storage"
      },
      {
        "astId": 755,
        "contract": "src/CurateFactory.sol:CurateFactory",
        "label": "curate",
        "offset": 0,
        "slot": "1",
        "type": "t_address"
      }
    ],
    "types": {
      "t_address": {
        "encoding": "inplace",
        "label": "address",
        "numberOfBytes": "20"
      },
      "t_array(t_contract(CurateV2)2693)dyn_storage": {
        "base": "t_contract(CurateV2)2693",
        "encoding": "dynamic_array",
        "label": "contract CurateV2[]",
        "numberOfBytes": "32"
      },
      "t_contract(CurateV2)2693": {
        "encoding": "inplace",
        "label": "contract CurateV2",
        "numberOfBytes": "20"
      }
    }
  }
}