{
  "address": "0xb2fe313cdC7e25627fCB7D585E98213e8A4655B2",
  "abi": [
    {
      "anonymous": false,
      "inputs": [
        {
          "indexed": true,
          "internalType": "address",
          "name": "_connectedTCR",
          "type": "address"
        }
      ],
      "name": "ConnectedTCRSet",
      "type": "event"
    },
    {
      "anonymous": false,
      "inputs": [
        {
          "indexed": true,
          "internalType": "contract IArbitratorV2",
          "name": "_arbitrator",
          "type": "address"
        },
        {
          "indexed": true,
          "internalType": "uint256",
          "name": "_arbitrableDisputeID",
          "type": "uint256"
        },
        {
          "indexed": false,
          "internalType": "uint256",
          "name": "_externalDisputeID",
          "type": "uint256"
        },
        {
          "indexed": false,
          "internalType": "uint256",
          "name": "_templateId",
          "type": "uint256"
        },
        {
          "indexed": false,
          "internalType": "string",
          "name": "_templateUri",
          "type": "string"
        }
      ],
      "name": "DisputeRequest",
      "type": "event"
    },
    {
      "anonymous": false,
      "inputs": [
        {
          "indexed": true,
          "internalType": "bytes32",
          "name": "_itemID",
          "type": "bytes32"
        },
        {
          "indexed": false,
          "internalType": "bool",
          "name": "_updatedDirectly",
          "type": "bool"
        }
      ],
      "name": "ItemStatusChange",
      "type": "event"
    },
    {
      "anonymous": false,
      "inputs": [
        {
          "indexed": true,
          "internalType": "bytes32",
          "name": "_itemID",
          "type": "bytes32"
        },
        {
          "indexed": false,
          "internalType": "string",
          "name": "_data",
          "type": "string"
        },
        {
          "indexed": false,
          "internalType": "bool",
          "name": "_addedDirectly",
          "type": "bool"
        }
      ],
      "name": "NewItem",
      "type": "event"
    },
    {
      "anonymous": false,
      "inputs": [
        {
          "indexed": true,
          "internalType": "bytes32",
          "name": "_itemID",
          "type": "bytes32"
        },
        {
          "indexed": false,
          "internalType": "uint256",
          "name": "_requestID",
          "type": "uint256"
        }
      ],
      "name": "RequestSubmitted",
      "type": "event"
    },
    {
      "anonymous": false,
      "inputs": [
        {
          "indexed": true,
          "internalType": "contract IArbitratorV2",
          "name": "_arbitrator",
          "type": "address"
        },
        {
          "indexed": true,
          "internalType": "uint256",
          "name": "_disputeID",
          "type": "uint256"
        },
        {
          "indexed": false,
          "internalType": "uint256",
          "name": "_ruling",
          "type": "uint256"
        }
      ],
      "name": "Ruling",
      "type": "event"
    },
    {
      "inputs": [],
      "name": "RULING_OPTIONS",
      "outputs": [
        {
          "internalType": "uint256",
          "name": "",
          "type": "uint256"
        }
      ],
      "stateMutability": "view",
      "type": "function"
    },
    {
      "inputs": [
        {
          "internalType": "string",
          "name": "_item",
          "type": "string"
        }
      ],
      "name": "addItem",
      "outputs": [],
      "stateMutability": "payable",
      "type": "function"
    },
    {
      "inputs": [
        {
          "internalType": "string",
          "name": "_item",
          "type": "string"
        }
      ],
      "name": "addItemDirectly",
      "outputs": [],
      "stateMutability": "nonpayable",
      "type": "function"
    },
    {
      "inputs": [
        {
          "internalType": "uint256",
          "name": "",
          "type": "uint256"
        }
      ],
      "name": "arbitrationParamsChanges",
      "outputs": [
        {
          "internalType": "contract IArbitratorV2",
          "name": "arbitrator",
          "type": "address"
        },
        {
          "internalType": "bytes",
          "name": "arbitratorExtraData",
          "type": "bytes"
        },
        {
          "internalType": "contract EvidenceModule",
          "name": "evidenceModule",
          "type": "address"
        }
      ],
      "stateMutability": "view",
      "type": "function"
    },
    {
      "inputs": [
        {
          "internalType": "address",
          "name": "",
          "type": "address"
        },
        {
          "internalType": "uint256",
          "name": "",
          "type": "uint256"
        }
      ],
      "name": "arbitratorDisputeIDToItemID",
      "outputs": [
        {
          "internalType": "bytes32",
          "name": "",
          "type": "bytes32"
        }
      ],
      "stateMutability": "view",
      "type": "function"
    },
    {
      "inputs": [],
      "name": "challengePeriodDuration",
      "outputs": [
        {
          "internalType": "uint256",
          "name": "",
          "type": "uint256"
        }
      ],
      "stateMutability": "view",
      "type": "function"
    },
    {
      "inputs": [
        {
          "internalType": "bytes32",
          "name": "_itemID",
          "type": "bytes32"
        }
      ],
      "name": "challengeRequest",
      "outputs": [],
      "stateMutability": "payable",
      "type": "function"
    },
    {
      "inputs": [
        {
          "internalType": "contract IArbitratorV2",
          "name": "_arbitrator",
          "type": "address"
        },
        {
          "internalType": "bytes",
          "name": "_arbitratorExtraData",
          "type": "bytes"
        },
        {
          "internalType": "contract EvidenceModule",
          "name": "_evidenceModule",
          "type": "address"
        }
      ],
      "name": "changeArbitrationParams",
      "outputs": [],
      "stateMutability": "nonpayable",
      "type": "function"
    },
    {
      "inputs": [
        {
          "internalType": "uint256",
          "name": "_challengePeriodDuration",
          "type": "uint256"
        }
      ],
      "name": "changeChallengePeriodDuration",
      "outputs": [],
      "stateMutability": "nonpayable",
      "type": "function"
    },
    {
      "inputs": [
        {
          "internalType": "address",
          "name": "_connectedTCR",
          "type": "address"
        }
      ],
      "name": "changeConnectedTCR",
      "outputs": [],
      "stateMutability": "nonpayable",
      "type": "function"
    },
    {
      "inputs": [
        {
          "internalType": "address",
          "name": "_governor",
          "type": "address"
        }
      ],
      "name": "changeGovernor",
      "outputs": [],
      "stateMutability": "nonpayable",
      "type": "function"
    },
    {
      "inputs": [
        {
          "internalType": "string",
          "name": "_templateData",
          "type": "string"
        },
        {
          "internalType": "string",
          "name": "_templateDataMappings",
          "type": "string"
        }
      ],
      "name": "changeRegistrationDisputeTemplate",
      "outputs": [],
      "stateMutability": "nonpayable",
      "type": "function"
    },
    {
      "inputs": [
        {
          "internalType": "address",
          "name": "_relayerContract",
          "type": "address"
        }
      ],
      "name": "changeRelayerContract",
      "outputs": [],
      "stateMutability": "nonpayable",
      "type": "function"
    },
    {
      "inputs": [
        {
          "internalType": "uint256",
          "name": "_removalBaseDeposit",
          "type": "uint256"
        }
      ],
      "name": "changeRemovalBaseDeposit",
      "outputs": [],
      "stateMutability": "nonpayable",
      "type": "function"
    },
    {
      "inputs": [
        {
          "internalType": "uint256",
          "name": "_removalChallengeBaseDeposit",
          "type": "uint256"
        }
      ],
      "name": "changeRemovalChallengeBaseDeposit",
      "outputs": [],
      "stateMutability": "nonpayable",
      "type": "function"
    },
    {
      "inputs": [
        {
          "internalType": "string",
          "name": "_templateData",
          "type": "string"
        },
        {
          "internalType": "string",
          "name": "_templateDataMappings",
          "type": "string"
        }
      ],
      "name": "changeRemovalDisputeTemplate",
      "outputs": [],
      "stateMutability": "nonpayable",
      "type": "function"
    },
    {
      "inputs": [
        {
          "internalType": "uint256",
          "name": "_submissionBaseDeposit",
          "type": "uint256"
        }
      ],
      "name": "changeSubmissionBaseDeposit",
      "outputs": [],
      "stateMutability": "nonpayable",
      "type": "function"
    },
    {
      "inputs": [
        {
          "internalType": "uint256",
          "name": "_submissionChallengeBaseDeposit",
          "type": "uint256"
        }
      ],
      "name": "changeSubmissionChallengeBaseDeposit",
      "outputs": [],
      "stateMutability": "nonpayable",
      "type": "function"
    },
    {
      "inputs": [
        {
          "internalType": "contract IDisputeTemplateRegistry",
          "name": "_templateRegistry",
          "type": "address"
        }
      ],
      "name": "changeTemplateRegistry",
      "outputs": [],
      "stateMutability": "nonpayable",
      "type": "function"
    },
    {
      "inputs": [
        {
          "internalType": "bytes32",
          "name": "_itemID",
          "type": "bytes32"
        }
      ],
      "name": "executeRequest",
      "outputs": [],
      "stateMutability": "nonpayable",
      "type": "function"
    },
    {
      "inputs": [],
      "name": "getArbitrator",
      "outputs": [
        {
          "internalType": "contract IArbitratorV2",
          "name": "",
          "type": "address"
        }
      ],
      "stateMutability": "view",
      "type": "function"
    },
    {
      "inputs": [],
      "name": "getArbitratorExtraData",
      "outputs": [
        {
          "internalType": "bytes",
          "name": "",
          "type": "bytes"
        }
      ],
      "stateMutability": "view",
      "type": "function"
    },
    {
      "inputs": [
        {
          "internalType": "bytes32",
          "name": "_itemID",
          "type": "bytes32"
        }
      ],
      "name": "getItemInfo",
      "outputs": [
        {
          "internalType": "enum CurateV2.Status",
          "name": "status",
          "type": "uint8"
        },
        {
          "internalType": "uint256",
          "name": "numberOfRequests",
          "type": "uint256"
        },
        {
          "internalType": "uint256",
          "name": "sumDeposit",
          "type": "uint256"
        }
      ],
      "stateMutability": "view",
      "type": "function"
    },
    {
      "inputs": [
        {
          "internalType": "bytes32",
          "name": "_itemID",
          "type": "bytes32"
        },
        {
          "internalType": "uint256",
          "name": "_requestID",
          "type": "uint256"
        }
      ],
      "name": "getRequestID",
      "outputs": [
        {
          "internalType": "uint256",
          "name": "",
          "type": "uint256"
        }
      ],
      "stateMutability": "pure",
      "type": "function"
    },
    {
      "inputs": [
        {
          "internalType": "bytes32",
          "name": "_itemID",
          "type": "bytes32"
        },
        {
          "internalType": "uint256",
          "name": "_requestID",
          "type": "uint256"
        }
      ],
      "name": "getRequestInfo",
      "outputs": [
        {
          "internalType": "bool",
          "name": "disputed",
          "type": "bool"
        },
        {
          "internalType": "uint256",
          "name": "disputeID",
          "type": "uint256"
        },
        {
          "internalType": "uint256",
          "name": "submissionTime",
          "type": "uint256"
        },
        {
          "internalType": "bool",
          "name": "resolved",
          "type": "bool"
        },
        {
          "internalType": "address payable[3]",
          "name": "parties",
          "type": "address[3]"
        },
        {
          "internalType": "enum CurateV2.Party",
          "name": "ruling",
          "type": "uint8"
        },
        {
          "internalType": "contract IArbitratorV2",
          "name": "requestArbitrator",
          "type": "address"
        },
        {
          "internalType": "bytes",
          "name": "requestArbitratorExtraData",
          "type": "bytes"
        }
      ],
      "stateMutability": "view",
      "type": "function"
    },
    {
      "inputs": [],
      "name": "governor",
      "outputs": [
        {
          "internalType": "address",
          "name": "",
          "type": "address"
        }
      ],
      "stateMutability": "view",
      "type": "function"
    },
    {
      "inputs": [
        {
          "internalType": "address",
          "name": "_governor",
          "type": "address"
        },
        {
          "internalType": "contract IArbitratorV2",
          "name": "_arbitrator",
          "type": "address"
        },
        {
          "internalType": "bytes",
          "name": "_arbitratorExtraData",
          "type": "bytes"
        },
        {
          "internalType": "contract EvidenceModule",
          "name": "_evidenceModule",
          "type": "address"
        },
        {
          "internalType": "address",
          "name": "_connectedTCR",
          "type": "address"
        },
        {
          "internalType": "string[2]",
          "name": "_registrationTemplateParameters",
          "type": "string[2]"
        },
        {
          "internalType": "string[2]",
          "name": "_removalTemplateParameters",
          "type": "string[2]"
        },
        {
          "internalType": "address",
          "name": "_templateRegistry",
          "type": "address"
        },
        {
          "internalType": "uint256[4]",
          "name": "_baseDeposits",
          "type": "uint256[4]"
        },
        {
          "internalType": "uint256",
          "name": "_challengePeriodDuration",
          "type": "uint256"
        },
        {
          "internalType": "address",
          "name": "_relayerContract",
          "type": "address"
        }
      ],
      "name": "initialize",
      "outputs": [],
      "stateMutability": "nonpayable",
      "type": "function"
    },
    {
      "inputs": [
        {
          "internalType": "bytes32",
          "name": "",
          "type": "bytes32"
        }
      ],
      "name": "items",
      "outputs": [
        {
          "internalType": "enum CurateV2.Status",
          "name": "status",
          "type": "uint8"
        },
        {
          "internalType": "uint256",
          "name": "sumDeposit",
          "type": "uint256"
        },
        {
          "internalType": "uint256",
          "name": "requestCount",
          "type": "uint256"
        }
      ],
      "stateMutability": "view",
      "type": "function"
    },
    {
      "inputs": [],
      "name": "relayerContract",
      "outputs": [
        {
          "internalType": "address",
          "name": "",
          "type": "address"
        }
      ],
      "stateMutability": "view",
      "type": "function"
    },
    {
      "inputs": [],
      "name": "removalBaseDeposit",
      "outputs": [
        {
          "internalType": "uint256",
          "name": "",
          "type": "uint256"
        }
      ],
      "stateMutability": "view",
      "type": "function"
    },
    {
      "inputs": [],
      "name": "removalChallengeBaseDeposit",
      "outputs": [
        {
          "internalType": "uint256",
          "name": "",
          "type": "uint256"
        }
      ],
      "stateMutability": "view",
      "type": "function"
    },
    {
      "inputs": [
        {
          "internalType": "bytes32",
          "name": "_itemID",
          "type": "bytes32"
        },
        {
          "internalType": "string",
          "name": "_evidence",
          "type": "string"
        }
      ],
      "name": "removeItem",
      "outputs": [],
      "stateMutability": "payable",
      "type": "function"
    },
    {
      "inputs": [
        {
          "internalType": "bytes32",
          "name": "_itemID",
          "type": "bytes32"
        }
      ],
      "name": "removeItemDirectly",
      "outputs": [],
      "stateMutability": "nonpayable",
      "type": "function"
    },
    {
      "inputs": [
        {
          "internalType": "bytes32",
          "name": "",
          "type": "bytes32"
        },
        {
          "internalType": "uint256",
          "name": "",
          "type": "uint256"
        }
      ],
      "name": "requestsDisputeData",
      "outputs": [
        {
          "internalType": "uint256",
          "name": "disputeID",
          "type": "uint256"
        },
        {
          "internalType": "enum CurateV2.DisputeStatus",
          "name": "status",
          "type": "uint8"
        },
        {
          "internalType": "enum CurateV2.Party",
          "name": "ruling",
          "type": "uint8"
        }
      ],
      "stateMutability": "view",
      "type": "function"
    },
    {
      "inputs": [
        {
          "internalType": "uint256",
          "name": "_disputeID",
          "type": "uint256"
        },
        {
          "internalType": "uint256",
          "name": "_ruling",
          "type": "uint256"
        }
      ],
      "name": "rule",
      "outputs": [],
      "stateMutability": "nonpayable",
      "type": "function"
    },
    {
      "inputs": [],
      "name": "submissionBaseDeposit",
      "outputs": [
        {
          "internalType": "uint256",
          "name": "",
          "type": "uint256"
        }
      ],
      "stateMutability": "view",
      "type": "function"
    },
    {
      "inputs": [],
      "name": "submissionChallengeBaseDeposit",
      "outputs": [
        {
          "internalType": "uint256",
          "name": "",
          "type": "uint256"
        }
      ],
      "stateMutability": "view",
      "type": "function"
    },
    {
      "inputs": [],
      "name": "templateIdRegistration",
      "outputs": [
        {
          "internalType": "uint256",
          "name": "",
          "type": "uint256"
        }
      ],
      "stateMutability": "view",
      "type": "function"
    },
    {
      "inputs": [],
      "name": "templateIdRemoval",
      "outputs": [
        {
          "internalType": "uint256",
          "name": "",
          "type": "uint256"
        }
      ],
      "stateMutability": "view",
      "type": "function"
    },
    {
      "inputs": [],
      "name": "templateRegistry",
      "outputs": [
        {
          "internalType": "contract IDisputeTemplateRegistry",
          "name": "",
          "type": "address"
        }
      ],
      "stateMutability": "view",
      "type": "function"
    }
  ],
  "transactionHash": "0x9173dd1d386e1ab7794eff8d75a09c482870a829c0929d250a26c8cc07d64ba7",
  "args": [],
  "numDeployments": 1,
  "solcInputHash": "6d4987352718e6c4637c9f73f5ceae93",
  "bytecode": "0x608060405234801561001057600080fd5b5061323e806100206000396000f3fe60806040526004361061023a5760003560e01c80638545c6a51161012e578063bfbcff1a116100ab578063ccfd43071161006f578063ccfd430714610712578063d29d8f7d14610732578063dd78cb5914610752578063e4c0aaf414610772578063e9c241661461079257600080fd5b8063bfbcff1a14610663578063c104817d14610697578063c2f2beea146106b7578063c669439e146106cd578063ca2c3cd1146106f257600080fd5b8063a0af81f0116100f2578063a0af81f0146105c8578063a214e712146105e8578063a37b6ad414610617578063b4d795391461062d578063bb0b86ff1461064d57600080fd5b80638545c6a51461051d5780638c88c1491461053d57806397e90e501461055d5780639c81a827146105705780639dbea446146105a857600080fd5b80634660ebbe116101bc578063560f7eaf11610180578063560f7eaf1461049a5780635d06e92c146104ba578063626c47e8146104d0578063787471a9146104e55780637932ecf3146104fb57600080fd5b80634660ebbe146103ba57806348f343f3146103da5780634aac84e5146104295780634c34f8cc146104675780634df5e6ff1461047a57600080fd5b806327e9f2941161020357806327e9f29414610325578063311a6c561461033a57806333e5d0471461035a57806340f1fa651461037a57806341e57c061461039a57600080fd5b806282a36d1461023f57806303f3e206146102685780630c340a24146102c25780630fceb746146102fa578063107a8bfd1461030f575b600080fd5b34801561024b57600080fd5b5061025560095481565b6040519081526020015b60405180910390f35b34801561027457600080fd5b506102b36102833660046126bd565b600c6020908152600092835260408084209091529082529020805460019091015460ff8082169161010090041683565b60405161025f93929190612715565b3480156102ce57600080fd5b506001546102e2906001600160a01b031681565b6040516001600160a01b03909116815260200161025f565b34801561030657600080fd5b506102e26107b2565b34801561031b57600080fd5b5061025560035481565b610338610333366004612783565b6107f5565b005b34801561034657600080fd5b506103386103553660046126bd565b610ae0565b34801561036657600080fd5b506103386103753660046127c4565b610f35565b34801561038657600080fd5b50610338610395366004612802565b610f64565b3480156103a657600080fd5b506103386103b53660046127c4565b610fb6565b3480156103c657600080fd5b506103386103d5366004612802565b611058565b3480156103e657600080fd5b5061041a6103f53660046127c4565b600a6020526000908152604090208054600182015460029092015460ff909116919083565b60405161025f93929190612826565b34801561043557600080fd5b5061041a6104443660046127c4565b6000908152600a602052604090208054600282015460019092015460ff90911692565b6103386104753660046127c4565b6110a4565b34801561048657600080fd5b50610338610495366004612870565b611536565b3480156104a657600080fd5b506103386104b53660046127c4565b61184b565b3480156104c657600080fd5b5061025560045481565b3480156104dc57600080fd5b50610255600281565b3480156104f157600080fd5b5061025560085481565b34801561050757600080fd5b5061051061187a565b60405161025f91906129d4565b34801561052957600080fd5b50610338610538366004612783565b61193d565b34801561054957600080fd5b506103386105583660046127c4565b611a5d565b61033861056b3660046129e7565b611a8c565b34801561057c57600080fd5b5061025561058b366004612a32565b600b60209081526000928352604080842090915290825290205481565b3480156105b457600080fd5b506102556105c33660046126bd565b611d47565b3480156105d457600080fd5b506002546102e2906001600160a01b031681565b3480156105f457600080fd5b506106086106033660046127c4565b611d76565b60405161025f93929190612a5e565b34801561062357600080fd5b5061025560075481565b34801561063957600080fd5b50610338610648366004612802565b611e47565b34801561065957600080fd5b5061025560055481565b34801561066f57600080fd5b5061068361067e3660046126bd565b611ea8565b60405161025f989796959493929190612a93565b3480156106a357600080fd5b506103386106b23660046127c4565b611fa8565b3480156106c357600080fd5b5061025560065481565b3480156106d957600080fd5b506000546102e29061010090046001600160a01b031681565b3480156106fe57600080fd5b5061033861070d366004612b23565b611fd7565b34801561071e57600080fd5b5061033861072d366004612c2c565b6120da565b34801561073e57600080fd5b5061033861074d366004612c2c565b612180565b34801561075e57600080fd5b5061033861076d3660046127c4565b612226565b34801561077e57600080fd5b5061033861078d366004612802565b612255565b34801561079e57600080fd5b506103386107ad3660046127c4565b6122a1565b600d8054600091906107c690600190612ca5565b815481106107d6576107d6612cb8565b60009182526020909120600390910201546001600160a01b0316919050565b6000828260405160200161080a929190612cce565b60408051601f1981840301815291815281516020928301206000818152600a90935290822090925090815460ff166003811115610849576108496126df565b1461086f5760405162461bcd60e51b815260040161086690612cde565b60405180910390fd5b80600201546000036108b957817f93e4d3e9542ddd9eea8962241d920b12b96bce26749667189fd06ed3549019e1858560006040516108b093929190612d3c565b60405180910390a25b60028101805460009160038401918391826108d383612d62565b919050558152602001908152602001600020905060006001600d805490506108fb9190612ca5565b90506000600d828154811061091257610912612cb8565b60009182526020822060039091020154600d80546001600160a01b039092169350908490811061094457610944612cb8565b906000526020600020906003020160010190506000826001600160a01b031663f7434ea9836040518263ffffffff1660e01b81526004016109859190612e32565b602060405180830381865afa1580156109a2573d6000803e3d6000fd5b505050506040513d601f19601f820116820180604052508101906109c69190612e45565b90506000600554826109d89190612e5e565b9050803410156109fa5760405162461bcd60e51b815260040161086690612e71565b60018781018290558754600260ff199091168117895587546bffffffffffffffffffffffff1916610100426001600160401b03160262ffffff60481b191617600160481b62ffffff891602176bffffffffffffffffffffffff1633600160601b0217885588015489917f73057048557c37c893f346985dc1d461cf12b00f09397bb275613203124c2be191610a959184916105c39190612ca5565b60405190815260200160405180910390a280341115610ad457336108fc610abc8334612ca5565b6040518115909202916000818181858888f150505050505b50505050505050505050565b6002811115610b295760405162461bcd60e51b815260206004820152601560248201527424b73b30b634b210393ab634b7339037b83a34b7b760591b6044820152606401610866565b336000908152600b60209081526040808320858452825280832054808452600a9092528220600281015491929091610b6390600190612ca5565b60008181526003840160209081526040808320878452600c83528184208585529092529091209192509060018082015460ff166002811115610ba757610ba76126df565b14610bfe5760405162461bcd60e51b815260206004820152602160248201527f5468652072657175657374206d757374206e6f74206265207265736f6c7665646044820152601760f91b6064820152608401610866565b8154600d8054600092600160481b900462ffffff16908110610c2257610c22612cb8565b6000918252602090912060039091020180549091506001600160a01b03163314610c9c5760405162461bcd60e51b815260206004820152602560248201527f4f6e6c79207468652061726269747261746f722063616e206769766520612072604482015264756c696e6760d81b6064820152608401610866565b604051878152889033907f394027a5fa6e098a1191094d1719d6929b9abc535fcc0c8f448d6a4e756222769060200160405180910390a36000876002811115610ce757610ce76126df565b600184018054600260ff19821681178355929350839261ffff19909116811790610100908490811115610d1c57610d1c6126df565b021790555060018601805460009182905590826002811115610d4057610d406126df565b03610dfc576002875460ff166003811115610d5d57610d5d6126df565b14610d69576001610d6c565b60005b8754889060ff19166001836003811115610d8857610d886126df565b02179055506000610d9a600283612ea6565b8654604051919250600160601b90046001600160a01b0316906108fc8315029083906000818181858888f150505060018801546040516001600160a01b03909116925083156108fc02915083906000818181858888f193505050505050610f05565b6001826002811115610e1057610e106126df565b03610e91576002875460ff166003811115610e2d57610e2d6126df565b14610e39576000610e3c565b60015b8754889060ff19166001836003811115610e5857610e586126df565b02179055508454604051600160601b9091046001600160a01b0316906108fc8315029083906000818181858888f1935050505050610f05565b6002875460ff166003811115610ea957610ea96126df565b14610eb5576001610eb8565b60005b8754889060ff19166001836003811115610ed457610ed46126df565b021790555060018501546040516001600160a01b039091169082156108fc029083906000818181858888f150505050505b6040516000815288906000805160206131e98339815191529060200160405180910390a250505050505050505050565b6001546001600160a01b03163314610f5f5760405162461bcd60e51b815260040161086690612ec8565b600555565b6001546001600160a01b03163314610f8e5760405162461bcd60e51b815260040161086690612ec8565b600080546001600160a01b0390921661010002610100600160a81b0319909216919091179055565b60005461010090046001600160a01b03163314610fe55760405162461bcd60e51b815260040161086690612efd565b6000818152600a602052604090206001815460ff16600381111561100b5761100b6126df565b146110285760405162461bcd60e51b815260040161086690612f34565b805460ff191681556040516001815282906000805160206131e98339815191529060200160405180910390a25050565b6001546001600160a01b031633146110825760405162461bcd60e51b815260040161086690612ec8565b600280546001600160a01b0319166001600160a01b0392909216919091179055565b6000818152600a602052604090206001815460ff1660038111156110ca576110ca6126df565b116111255760405162461bcd60e51b815260206004820152602560248201527f546865206974656d206d757374206861766520612070656e64696e67207265716044820152643ab2b9ba1760d91b6064820152608401610866565b6000600182600201546111389190612ca5565b600081815260038401602052604090206009548154929350909161116a9061010090046001600160401b031642612ca5565b11156111d35760405162461bcd60e51b815260206004820152603260248201527f4368616c6c656e676573206d757374206f6363757220647572696e67207468656044820152711031b430b63632b733b2903832b934b7b21760711b6064820152608401610866565b6000848152600c60209081526040808320858452909152812090600182015460ff166002811115611206576112066126df565b1461126e5760405162461bcd60e51b815260206004820152603260248201527f54686520726571756573742073686f756c64206e6f74206861766520616c726560448201527130b23c903132b2b7103234b9b83aba32b21760711b6064820152608401610866565b8154600d8054600092600160481b900462ffffff1690811061129257611292612cb8565b600091825260208220600390910201805460405163f7434ea960e01b81529193506001600160a01b03169190829063f7434ea9906112d7906001870190600401612e32565b602060405180830381865afa1580156112f4573d6000803e3d6000fd5b505050506040513d601f19601f820116820180604052508101906113189190612e45565b90506000806002895460ff166003811115611335576113356126df565b1461134257600854611346565b6007545b90506113528184612e5e565b915050803410156113b05760405162461bcd60e51b815260206004820152602260248201527f596f75206d7573742066756c6c792066756e6420746865206368616c6c656e67604482015261329760f11b6064820152608401610866565b818189600101546113c19190612e5e565b6113cb9190612ca5565b6001808a019190915586810180546001600160a01b0319163317905560405163c13517e160e01b81526001600160a01b0385169163c13517e1918591611419916002918a0190600401612f7a565b60206040518083038185885af1158015611437573d6000803e3d6000fd5b50505050506040513d601f19601f8201168201806040525081019061145c9190612e45565b85556001808601805460ff1916828002179055506001600160a01b0383166000908152600b602090815260408083208854845290915281208a905580875460ff1660018111156114ae576114ae6126df565b146114bb576004546114bf565b6003545b86549091506001600160a01b0385167f8bd32f430ff060e6bd204709b3790c9807987263d3230c580dc80b5f89e271866114f98d8c611d47565b6040805191825260208201869052606090820181905260009082015260800160405180910390a381341115610ad457336108fc610abc8434612ca5565b60005460ff16156115805760405162461bcd60e51b815260206004820152601460248201527320b63932b0b23c9034b734ba34b0b634bd32b21760611b6044820152606401610866565b60008054600160ff199091168117825580546001600160a01b0319166001600160a01b038f16179055839060200201356005558260016020020135600655826002602002013560075582600360200201356008556009829055600080546001600160a01b0380841661010002610100600160a81b0319909216919091178255600280549187166001600160a01b03199092168217905590634a99417490889060200281019061162f9190612f9b565b61163c60208b018b612f9b565b6040518563ffffffff1660e01b815260040161165b9493929190613000565b6020604051808303816000875af115801561167a573d6000803e3d6000fd5b505050506040513d601f19601f8201168201806040525081019061169e9190612e45565b6003556002546001600160a01b0316634a9941746116bc8780612f9b565b6116c960208a018a612f9b565b6040518563ffffffff1660e01b81526004016116e8949392919061305f565b6020604051808303816000875af1158015611707573d6000803e3d6000fd5b505050506040513d601f19601f8201168201806040525081019061172b9190612e45565b600481905550600d60405180606001604052808d6001600160a01b031681526020018c8c8080601f01602080910402602001604051908101604052809392919081815260200183838082843760009201829052509385525050506001600160a01b038c811660209384015284546001808201875595835291839020845160039093020180546001600160a01b031916929091169190911781559082015191929091908201906117da90826130bc565b5060409190910151600290910180546001600160a01b0319166001600160a01b0392831617905587161561183d576040516001600160a01b038816907fc86a04b722cdfef2134355447e1ebddd83d57a81cddda524d682811e222bc25090600090a25b505050505050505050505050565b6001546001600160a01b031633146118755760405162461bcd60e51b815260040161086690612ec8565b600955565b600d80546060919061188e90600190612ca5565b8154811061189e5761189e612cb8565b906000526020600020906003020160010180546118ba90612d7b565b80601f01602080910402602001604051908101604052809291908181526020018280546118e690612d7b565b80156119335780601f1061190857610100808354040283529160200191611933565b820191906000526020600020905b81548152906001019060200180831161191657829003601f168201915b5050505050905090565b60005461010090046001600160a01b0316331461196c5760405162461bcd60e51b815260040161086690612efd565b60008282604051602001611981929190612cce565b60408051601f1981840301815291815281516020928301206000818152600a90935290822090925090815460ff1660038111156119c0576119c06126df565b146119dd5760405162461bcd60e51b815260040161086690612cde565b8060020154600003611a2757817f93e4d3e9542ddd9eea8962241d920b12b96bce26749667189fd06ed3549019e185856001604051611a1e93929190612d3c565b60405180910390a25b805460ff19166001908117825560405190815282906000805160206131e98339815191529060200160405180910390a250505050565b6001546001600160a01b03163314611a875760405162461bcd60e51b815260040161086690612ec8565b600655565b6000838152600a602052604090206001815460ff166003811115611ab257611ab26126df565b14611acf5760405162461bcd60e51b815260040161086690612f34565b6002810180546000916003840191839182611ae983612d62565b919050558152602001908152602001600020905060006001600d80549050611b119190612ca5565b90506000600d8281548110611b2857611b28612cb8565b600091825260208220600390910201805460405163f7434ea960e01b81529193506001600160a01b03169190829063f7434ea990611b6d906001870190600401612e32565b602060405180830381865afa158015611b8a573d6000803e3d6000fd5b505050506040513d601f19601f82011682018060405250810190611bae9190612e45565b9050600060065482611bc09190612e5e565b905080341015611be25760405162461bcd60e51b815260040161086690612e71565b60018781018290558754600360ff1991821617895587546bffffffffffffffffffffff001916610100426001600160401b03160262ffffff60481b191617600160481b62ffffff891602176bffffffffffffffffffffff001633600160601b0290911617811787556002880154600091611c61918d916105c391612ca5565b90508a7f73057048557c37c893f346985dc1d461cf12b00f09397bb275613203124c2be182604051611c9591815260200190565b60405180910390a28815611d0c57600285015460405163a6a7f0eb60e01b81526001600160a01b039091169063a6a7f0eb90611cd99084908e908e9060040161317b565b600060405180830381600087803b158015611cf357600080fd5b505af1158015611d07573d6000803e3d6000fd5b505050505b81341115611d3a57336108fc611d228434612ca5565b6040518115909202916000818181858888f150505050505b5050505050505050505050565b604080516020808201859052818301849052825180830384018152606090920190925280519101205b92915050565b600d8181548110611d8657600080fd5b6000918252602090912060039091020180546001820180546001600160a01b03909216935090611db590612d7b565b80601f0160208091040260200160405190810160405280929190818152602001828054611de190612d7b565b8015611e2e5780601f10611e0357610100808354040283529160200191611e2e565b820191906000526020600020905b815481529060010190602001808311611e1157829003601f168201915b505050600290930154919250506001600160a01b031683565b6001546001600160a01b03163314611e715760405162461bcd60e51b815260040161086690612ec8565b6040516001600160a01b038216907fc86a04b722cdfef2134355447e1ebddd83d57a81cddda524d682811e222bc25090600090a250565b600080600080611eb661269f565b6000878152600a60205260408120600281015482916060918a10611f165760405162461bcd60e51b81526020600482015260176024820152762932b8bab2b9ba103237b2b9903737ba1032bc34b9ba1760491b6044820152606401610866565b60008b8152600a602090815260408083208d845260030182529182902080546001600160a01b03600160601b82048116938a01939093526001820154909216928801929092526001600160401b03610100909104169750611f778c8c6124f3565b919b5099509450611f888c8c612549565b9094509250611f978c8c61264e565b965050509295985092959890939650565b6001546001600160a01b03163314611fd25760405162461bcd60e51b815260040161086690612ec8565b600755565b6001546001600160a01b031633146120015760405162461bcd60e51b815260040161086690612ec8565b600d6040518060600160405280866001600160a01b0316815260200185858080601f01602080910402602001604051908101604052809392919081815260200183838082843760009201829052509385525050506001600160a01b0385811660209384015284546001808201875595835291839020845160039093020180546001600160a01b031916929091169190911781559082015191929091908201906120aa90826130bc565b5060409190910151600290910180546001600160a01b0319166001600160a01b0390921691909117905550505050565b6001546001600160a01b031633146121045760405162461bcd60e51b815260040161086690612ec8565b6002546040516312a6505d60e21b81526001600160a01b0390911690634a99417490612136908590859060040161319e565b6020604051808303816000875af1158015612155573d6000803e3d6000fd5b505050506040513d601f19601f820116820180604052508101906121799190612e45565b6004555050565b6001546001600160a01b031633146121aa5760405162461bcd60e51b815260040161086690612ec8565b6002546040516312a6505d60e21b81526001600160a01b0390911690634a994174906121dc90859085906004016131d6565b6020604051808303816000875af11580156121fb573d6000803e3d6000fd5b505050506040513d601f19601f8201168201806040525081019061221f9190612e45565b6003555050565b6001546001600160a01b031633146122505760405162461bcd60e51b815260040161086690612ec8565b600855565b6001546001600160a01b0316331461227f5760405162461bcd60e51b815260040161086690612ec8565b600180546001600160a01b0319166001600160a01b0392909216919091179055565b6000818152600a6020526040812060028101549091906122c390600190612ca5565b60008181526003840160205260409020600954815492935090916122f59061010090046001600160401b031642612ca5565b116123535760405162461bcd60e51b815260206004820152602860248201527f54696d6520746f206368616c6c656e6765207468652072657175657374206d7560448201526739ba103830b9b99760c11b6064820152608401610866565b6000848152600c60209081526040808320858452909152812090600182015460ff166002811115612386576123866126df565b146123df5760405162461bcd60e51b815260206004820152602360248201527f54686520726571756573742073686f756c64206e6f742062652064697370757460448201526232b21760e91b6064820152608401610866565b6002845460ff1660038111156123f7576123f76126df565b03612414578354600190859060ff191682805b0217905550612487565b6003845460ff16600381111561242c5761242c6126df565b03612444578354600090859060ff191660018361240a565b60405162461bcd60e51b81526020600482015260186024820152772a3432b9329036bab9ba1031329030903932b8bab2b9ba1760411b6044820152606401610866565b6040516000815285906000805160206131e98339815191529060200160405180910390a2600184018054600090915580156124eb578254604051600160601b9091046001600160a01b0316906108fc8315029083906000818181858888f150505050505b505050505050565b6000828152600c6020908152604080832084845290915281208190819060018082015460ff16600281111561252a5761252a6126df565b825460019093015491111597919650610100900460ff16945092505050565b6000828152600a6020908152604080832084845260030190915281208054600d805460609392859291600160481b90910462ffffff1690811061258e5761258e612cb8565b6000918252602090912060039091020180546001820180549293506001600160a01b039091169181906125c090612d7b565b80601f01602080910402602001604051908101604052809291908181526020018280546125ec90612d7b565b80156126395780601f1061260e57610100808354040283529160200191612639565b820191906000526020600020905b81548152906001019060200180831161261c57829003601f168201915b505050505090509350935050505b9250929050565b6000828152600a6020526040812060028101548203612671576000915050611d70565b600181600201546126829190612ca5565b831015612693576001915050611d70565b60010154159392505050565b60405180606001604052806003906020820280368337509192915050565b600080604083850312156126d057600080fd5b50508035926020909101359150565b634e487b7160e01b600052602160045260246000fd5b60038110612705576127056126df565b50565b612711816126f5565b9052565b83815260608101612725846126f5565b836020830152612734836126f5565b826040830152949350505050565b60008083601f84011261275457600080fd5b5081356001600160401b0381111561276b57600080fd5b60208301915083602082850101111561264757600080fd5b6000806020838503121561279657600080fd5b82356001600160401b038111156127ac57600080fd5b6127b885828601612742565b90969095509350505050565b6000602082840312156127d657600080fd5b5035919050565b6001600160a01b038116811461270557600080fd5b80356127fd816127dd565b919050565b60006020828403121561281457600080fd5b813561281f816127dd565b9392505050565b606081016004851061283a5761283a6126df565b938152602081019290925260409091015290565b8060408101831015611d7057600080fd5b8060808101831015611d7057600080fd5b6000806000806000806000806000806000806101c08d8f03121561289357600080fd5b61289c8d6127f2565b9b506128aa60208e016127f2565b9a506001600160401b0360408e013511156128c457600080fd5b6128d48e60408f01358f01612742565b909a5098506128e560608e016127f2565b97506128f360808e016127f2565b96506001600160401b0360a08e0135111561290d57600080fd5b61291d8e60a08f01358f0161284e565b95506001600160401b0360c08e0135111561293757600080fd5b6129478e60c08f01358f0161284e565b945061295560e08e016127f2565b93506129658e6101008f0161285f565b92506101808d0135915061297c6101a08e016127f2565b90509295989b509295989b509295989b565b6000815180845260005b818110156129b457602081850181015186830182015201612998565b506000602082860101526020601f19601f83011685010191505092915050565b60208152600061281f602083018461298e565b6000806000604084860312156129fc57600080fd5b8335925060208401356001600160401b03811115612a1957600080fd5b612a2586828701612742565b9497909650939450505050565b60008060408385031215612a4557600080fd5b8235612a50816127dd565b946020939093013593505050565b600060018060a01b03808616835260606020840152612a80606084018661298e565b9150808416604084015250949350505050565b60006101408a1515835260208a818501528960408501528815156060850152608084018860005b6003811015612ae05781516001600160a01b031683529183019190830190600101612aba565b50505050612af160e0840187612708565b6001600160a01b03851661010084015280610120840152612b148184018561298e565b9b9a5050505050505050505050565b60008060008060608587031215612b3957600080fd5b8435612b44816127dd565b935060208501356001600160401b03811115612b5f57600080fd5b612b6b87828801612742565b9094509250506040850135612b7f816127dd565b939692955090935050565b634e487b7160e01b600052604160045260246000fd5b600082601f830112612bb157600080fd5b81356001600160401b0380821115612bcb57612bcb612b8a565b604051601f8301601f19908116603f01168101908282118183101715612bf357612bf3612b8a565b81604052838152866020858801011115612c0c57600080fd5b836020870160208301376000602085830101528094505050505092915050565b60008060408385031215612c3f57600080fd5b82356001600160401b0380821115612c5657600080fd5b612c6286838701612ba0565b93506020850135915080821115612c7857600080fd5b50612c8585828601612ba0565b9150509250929050565b634e487b7160e01b600052601160045260246000fd5b81810381811115611d7057611d70612c8f565b634e487b7160e01b600052603260045260246000fd5b8183823760009101908152919050565b6020808252818101527f4974656d206d75737420626520616273656e7420746f2062652061646465642e604082015260600190565b81835281816020850137506000828201602090810191909152601f909101601f19169091010190565b604081526000612d50604083018587612d13565b90508215156020830152949350505050565b600060018201612d7457612d74612c8f565b5060010190565b600181811c90821680612d8f57607f821691505b602082108103612daf57634e487b7160e01b600052602260045260246000fd5b50919050565b60008154612dc281612d7b565b808552602060018381168015612ddf5760018114612df957612e27565b60ff1985168884015283151560051b880183019550612e27565b866000528260002060005b85811015612e1f5781548a8201860152908301908401612e04565b890184019650505b505050505092915050565b60208152600061281f6020830184612db5565b600060208284031215612e5757600080fd5b5051919050565b80820180821115611d7057611d70612c8f565b6020808252818101527f596f75206d7573742066756c6c792066756e642074686520726571756573742e604082015260600190565b600082612ec357634e487b7160e01b600052601260045260246000fd5b500490565b6020808252818101527f5468652063616c6c6572206d7573742062652074686520676f7665726e6f722e604082015260600190565b6020808252601d908201527f5468652063616c6c6572206d757374206265207468652072656c61792e000000604082015260600190565b60208082526026908201527f4974656d206d757374206265207265676973746572656420746f20626520726560408201526536b7bb32b21760d11b606082015260800190565b828152604060208201526000612f936040830184612db5565b949350505050565b6000808335601e19843603018112612fb257600080fd5b8301803591506001600160401b03821115612fcc57600080fd5b60200191503681900382131561264757600080fd5b600c81526b2932b3b4b9ba3930ba34b7b760a11b602082015260400190565b60608152600061301260608301612fe1565b8281036020840152613025818789612d13565b9050828103604084015261303a818587612d13565b979650505050505050565b600781526614995b5bdd985b60ca1b602082015260400190565b60608152600061301260608301613045565b601f8211156130b757600081815260208120601f850160051c810160208610156130985750805b601f850160051c820191505b818110156124eb578281556001016130a4565b505050565b81516001600160401b038111156130d5576130d5612b8a565b6130e9816130e38454612d7b565b84613071565b602080601f83116001811461311e57600084156131065750858301515b600019600386901b1c1916600185901b1785556124eb565b600085815260208120601f198616915b8281101561314d5788860151825594840194600190910190840161312e565b508582101561316b5787850151600019600388901b60f8161c191681555b5050505050600190811b01905550565b838152604060208201526000613195604083018486612d13565b95945050505050565b6060815260006131b060608301613045565b82810360208401526131c2818661298e565b90508281036040840152613195818561298e565b6060815260006131b060608301612fe156fed768d67a683a3f5110d48ee5af827e22f4f36d017d764d3bfb11982492b19536a2646970667358221220ef82b761876b3966f982d31f2b695f3cf60dac3ef86c8340e87c19514fb86c9a64736f6c63430008120033",
  "devdoc": {
    "events": {
      "ConnectedTCRSet(address)": {
        "details": "Emitted when the address of the connected Curate contract is set. The Curate is an instance of the Curate contract where each item is the address of a Curate contract related to this one.",
        "params": {
          "_connectedTCR": "The address of the connected Curate. TODO: change TCR mentions."
        }
      },
      "DisputeRequest(address,uint256,uint256,uint256,string)": {
        "details": "To be emitted when a dispute is created to link the correct meta-evidence to the disputeID.",
        "params": {
          "_arbitrableDisputeID": "The identifier of the dispute in the Arbitrable contract.",
          "_arbitrator": "The arbitrator of the contract.",
          "_externalDisputeID": "An identifier created outside Kleros by the protocol requesting arbitration.",
          "_templateId": "The identifier of the dispute template. Should not be used with _templateUri.",
          "_templateUri": "The URI to the dispute template. For example on IPFS: starting with '/ipfs/'. Should not be used with _templateId."
        }
      },
      "ItemStatusChange(bytes32,bool)": {
        "details": "Emitted when a party makes a request, raises a dispute or when a request is resolved.",
        "params": {
          "_itemID": "The ID of the affected item.",
          "_updatedDirectly": "Whether this was emitted in either `addItemDirectly` or `removeItemDirectly`. This is used in the subgraph."
        }
      },
      "NewItem(bytes32,string,bool)": {
        "details": "Emitted when someone submits an item for the first time.",
        "params": {
          "_addedDirectly": "Whether the item was added via `addItemDirectly`.",
          "_data": "The item data URI.",
          "_itemID": "The ID of the new item."
        }
      },
      "RequestSubmitted(bytes32,uint256)": {
        "details": "Emitted when someone submits a request.",
        "params": {
          "_itemID": "The ID of the affected item.",
          "_requestID": "Unique dispute identifier within this contract."
        }
      },
      "Ruling(address,uint256,uint256)": {
        "details": "To be raised when a ruling is given.",
        "params": {
          "_arbitrator": "The arbitrator giving the ruling.",
          "_disputeID": "The identifier of the dispute in the Arbitrator contract.",
          "_ruling": "The ruling which was given."
        }
      }
    },
    "kind": "dev",
    "methods": {
      "addItem(string)": {
        "details": "Submit a request to register an item. Accepts enough ETH to cover the deposit, reimburses the rest.",
        "params": {
          "_item": "The URI to the item data."
        }
      },
      "addItemDirectly(string)": {
        "details": "Directly add an item to the list bypassing request-challenge. Can only be used by the relayer contract.",
        "params": {
          "_item": "The URI to the item data."
        }
      },
      "challengeRequest(bytes32)": {
        "details": "Challenges the request of the item. Accepts enough ETH to cover the deposit, reimburses the rest.",
        "params": {
          "_itemID": "The ID of the item which request to challenge."
        }
      },
      "changeArbitrationParams(address,bytes,address)": {
        "params": {
          "_arbitrator": "Arbitrator to resolve potential disputes. The arbitrator is trusted to support appeal periods and not reenter.",
          "_arbitratorExtraData": "Extra data for the trusted arbitrator contract.",
          "_evidenceModule": "The evidence module for the arbitrator."
        }
      },
      "changeChallengePeriodDuration(uint256)": {
        "details": "Change the duration of the challenge period.",
        "params": {
          "_challengePeriodDuration": "The new duration of the challenge period."
        }
      },
      "changeConnectedTCR(address)": {
        "details": "Change the address of connectedTCR, the Curate instance that stores addresses of Curate contracts related to this one.",
        "params": {
          "_connectedTCR": "The address of the connectedTCR contract to use."
        }
      },
      "changeGovernor(address)": {
        "details": "Change the governor of the curated registry.",
        "params": {
          "_governor": "The address of the new governor."
        }
      },
      "changeRegistrationDisputeTemplate(string,string)": {
        "details": "Changes the dispute template for registration requests.",
        "params": {
          "_templateData": "The new template data for registration requests.",
          "_templateDataMappings": "The new data mappings json for registration requests."
        }
      },
      "changeRelayerContract(address)": {
        "details": "Change the address of the relay contract.",
        "params": {
          "_relayerContract": "The new address of the relay contract."
        }
      },
      "changeRemovalBaseDeposit(uint256)": {
        "details": "Change the base amount required as a deposit to remove an item.",
        "params": {
          "_removalBaseDeposit": "The new base amount of wei required to remove an item."
        }
      },
      "changeRemovalChallengeBaseDeposit(uint256)": {
        "details": "Change the base amount required as a deposit to challenge a removal request.",
        "params": {
          "_removalChallengeBaseDeposit": "The new base amount of wei required to challenge a removal request."
        }
      },
      "changeRemovalDisputeTemplate(string,string)": {
        "details": "Changes the dispute template for removal requests.",
        "params": {
          "_templateData": "The new template data for removal requests.",
          "_templateDataMappings": "The new data mappings json for removal requests."
        }
      },
      "changeSubmissionBaseDeposit(uint256)": {
        "details": "Change the base amount required as a deposit to submit an item.",
        "params": {
          "_submissionBaseDeposit": "The new base amount of wei required to submit an item."
        }
      },
      "changeSubmissionChallengeBaseDeposit(uint256)": {
        "details": "Change the base amount required as a deposit to challenge a submission.",
        "params": {
          "_submissionChallengeBaseDeposit": "The new base amount of wei required to challenge a submission."
        }
      },
      "changeTemplateRegistry(address)": {
        "details": "Changes the address of Template Registry contract.",
        "params": {
          "_templateRegistry": "The new template registry."
        }
      },
      "executeRequest(bytes32)": {
        "details": "Executes an unchallenged request if the challenge period has passed.",
        "params": {
          "_itemID": "The ID of the item to execute."
        }
      },
      "getArbitrator()": {
        "details": "Gets the latest value in arbitrationParamsChanges.",
        "returns": {
          "_0": "The arbitrator address."
        }
      },
      "getArbitratorExtraData()": {
        "details": "Gets the latest value in arbitrationParamsChanges.",
        "returns": {
          "_0": "The arbitrator extra data."
        }
      },
      "getItemInfo(bytes32)": {
        "details": "Returns item's information. Includes the total number of requests for the item",
        "params": {
          "_itemID": "The ID of the queried item."
        },
        "returns": {
          "numberOfRequests": "Total number of requests for the item.",
          "status": "The current status of the item.",
          "sumDeposit": "The total deposit made by the requester and the challenger (if any)"
        }
      },
      "getRequestID(bytes32,uint256)": {
        "params": {
          "_itemID": "The ID of the item.",
          "_requestID": "The ID of the request."
        },
        "returns": {
          "_0": "Local dispute ID."
        }
      },
      "getRequestInfo(bytes32,uint256)": {
        "details": "Gets information on a request made for the item.",
        "params": {
          "_itemID": "The ID of the queried item.",
          "_requestID": "The request to be queried."
        },
        "returns": {
          "disputeID": "ID of the dispute, if any.",
          "disputed": "True if a dispute was raised.",
          "parties": "Address of requester and challenger, if any.",
          "requestArbitrator": "The arbitrator trusted to solve disputes for this request.",
          "requestArbitratorExtraData": "The extra data for the trusted arbitrator of this request.",
          "resolved": "True if the request was executed and/or any raised disputes were resolved.",
          "ruling": "The final ruling given, if any.",
          "submissionTime": "Time when the request was made."
        }
      },
      "initialize(address,address,bytes,address,address,string[2],string[2],address,uint256[4],uint256,address)": {
        "details": "Initialize the arbitrable curated registry.",
        "params": {
          "_arbitrator": "Arbitrator to resolve potential disputes. The arbitrator is trusted to support appeal periods and not reenter.",
          "_arbitratorExtraData": "Extra data for the trusted arbitrator contract.",
          "_baseDeposits": "The base deposits for requests/challenges as follows: - The base deposit to submit an item. - The base deposit to remove an item. - The base deposit to challenge a submission. - The base deposit to challenge a removal request.",
          "_challengePeriodDuration": "The time in seconds parties have to challenge a request.",
          "_connectedTCR": "The address of the Curate contract that stores related Curate addresses. This parameter can be left empty.",
          "_evidenceModule": "The evidence contract for the arbitrator.",
          "_governor": "The trusted governor of this contract.",
          "_registrationTemplateParameters": "Template and data mappings json for registration requests.",
          "_relayerContract": "The address of the relayer contract to add/remove items directly.",
          "_removalTemplateParameters": "Template and data mappings json for removal requests.",
          "_templateRegistry": "The dispute template registry."
        }
      },
      "removeItem(bytes32,string)": {
        "details": "Submit a request to remove an item from the list. Accepts enough ETH to cover the deposit, reimburses the rest.",
        "params": {
          "_evidence": "A link to evidence using its URI.",
          "_itemID": "The ID of the item to remove."
        }
      },
      "removeItemDirectly(bytes32)": {
        "details": "Directly remove an item from the list bypassing request-challenge. Can only be used by the relayer contract.",
        "params": {
          "_itemID": "The ID of the item to remove."
        }
      },
      "rule(uint256,uint256)": {
        "details": "Give a ruling for a dispute. Can only be called by the arbitrator. TRUSTED.",
        "params": {
          "_disputeID": "ID of the dispute in the arbitrator contract.",
          "_ruling": "Ruling given by the arbitrator. Note that 0 is reserved for \"Refused to arbitrate\"."
        }
      }
    },
    "title": "Curate Curated registry contract compatible with V2. The V1 version is here https://github.com/kleros/tcr/blob/master/contracts/LightGeneralizedTCR.sol",
    "version": 1
  },
  "userdoc": {
    "kind": "user",
    "methods": {
      "changeArbitrationParams(address,bytes,address)": {
        "notice": "Changes the params related to arbitration."
      },
      "getArbitrator()": {
        "notice": "Gets the arbitrator for new requests."
      },
      "getArbitratorExtraData()": {
        "notice": "Gets the arbitratorExtraData for new requests."
      },
      "getRequestID(bytes32,uint256)": {
        "notice": "Gets the local dispute ID for a given item and request."
      }
    },
    "version": 1
  },
  "storageLayout": {
    "storage": [
      {
        "astId": 927,
        "contract": "src/CurateV2.sol:CurateV2",
        "label": "initialized",
        "offset": 0,
        "slot": "0",
        "type": "t_bool"
      },
      {
        "astId": 932,
        "contract": "src/CurateV2.sol:CurateV2",
        "label": "relayerContract",
        "offset": 1,
        "slot": "0",
        "type": "t_address"
      },
      {
        "astId": 934,
        "contract": "src/CurateV2.sol:CurateV2",
        "label": "governor",
        "offset": 0,
        "slot": "1",
        "type": "t_address"
      },
      {
        "astId": 937,
        "contract": "src/CurateV2.sol:CurateV2",
        "label": "templateRegistry",
        "offset": 0,
        "slot": "2",
        "type": "t_contract(IDisputeTemplateRegistry)236"
      },
      {
        "astId": 939,
        "contract": "src/CurateV2.sol:CurateV2",
        "label": "templateIdRegistration",
        "offset": 0,
        "slot": "3",
        "type": "t_uint256"
      },
      {
        "astId": 941,
        "contract": "src/CurateV2.sol:CurateV2",
        "label": "templateIdRemoval",
        "offset": 0,
        "slot": "4",
        "type": "t_uint256"
      },
      {
        "astId": 943,
        "contract": "src/CurateV2.sol:CurateV2",
        "label": "submissionBaseDeposit",
        "offset": 0,
        "slot": "5",
        "type": "t_uint256"
      },
      {
        "astId": 945,
        "contract": "src/CurateV2.sol:CurateV2",
        "label": "removalBaseDeposit",
        "offset": 0,
        "slot": "6",
        "type": "t_uint256"
      },
      {
        "astId": 947,
        "contract": "src/CurateV2.sol:CurateV2",
        "label": "submissionChallengeBaseDeposit",
        "offset": 0,
        "slot": "7",
        "type": "t_uint256"
      },
      {
        "astId": 949,
        "contract": "src/CurateV2.sol:CurateV2",
        "label": "removalChallengeBaseDeposit",
        "offset": 0,
        "slot": "8",
        "type": "t_uint256"
      },
      {
        "astId": 951,
        "contract": "src/CurateV2.sol:CurateV2",
        "label": "challengePeriodDuration",
        "offset": 0,
        "slot": "9",
        "type": "t_uint256"
      },
      {
        "astId": 956,
        "contract": "src/CurateV2.sol:CurateV2",
        "label": "items",
        "offset": 0,
        "slot": "10",
        "type": "t_mapping(t_bytes32,t_struct(Item)895_storage)"
      },
      {
        "astId": 962,
        "contract": "src/CurateV2.sol:CurateV2",
        "label": "arbitratorDisputeIDToItemID",
        "offset": 0,
        "slot": "11",
        "type": "t_mapping(t_address,t_mapping(t_uint256,t_bytes32))"
      },
      {
        "astId": 969,
        "contract": "src/CurateV2.sol:CurateV2",
        "label": "requestsDisputeData",
        "offset": 0,
        "slot": "12",
        "type": "t_mapping(t_bytes32,t_mapping(t_uint256,t_struct(DisputeData)916_storage))"
      },
      {
        "astId": 973,
        "contract": "src/CurateV2.sol:CurateV2",
        "label": "arbitrationParamsChanges",
        "offset": 0,
        "slot": "13",
        "type": "t_array(t_struct(ArbitrationParams)925_storage)dyn_storage"
      }
    ],
    "types": {
      "t_address": {
        "encoding": "inplace",
        "label": "address",
        "numberOfBytes": "20"
      },
      "t_address_payable": {
        "encoding": "inplace",
        "label": "address payable",
        "numberOfBytes": "20"
      },
      "t_array(t_struct(ArbitrationParams)925_storage)dyn_storage": {
        "base": "t_struct(ArbitrationParams)925_storage",
        "encoding": "dynamic_array",
        "label": "struct CurateV2.ArbitrationParams[]",
        "numberOfBytes": "32"
      },
      "t_bool": {
        "encoding": "inplace",
        "label": "bool",
        "numberOfBytes": "1"
      },
      "t_bytes32": {
        "encoding": "inplace",
        "label": "bytes32",
        "numberOfBytes": "32"
      },
      "t_bytes_storage": {
        "encoding": "bytes",
        "label": "bytes",
        "numberOfBytes": "32"
      },
      "t_contract(EvidenceModule)75": {
        "encoding": "inplace",
        "label": "contract EvidenceModule",
        "numberOfBytes": "20"
      },
      "t_contract(IArbitratorV2)210": {
        "encoding": "inplace",
        "label": "contract IArbitratorV2",
        "numberOfBytes": "20"
      },
      "t_contract(IDisputeTemplateRegistry)236": {
        "encoding": "inplace",
        "label": "contract IDisputeTemplateRegistry",
        "numberOfBytes": "20"
      },
      "t_enum(DisputeStatus)882": {
        "encoding": "inplace",
        "label": "enum CurateV2.DisputeStatus",
        "numberOfBytes": "1"
      },
      "t_enum(Party)875": {
        "encoding": "inplace",
        "label": "enum CurateV2.Party",
        "numberOfBytes": "1"
      },
      "t_enum(RequestType)878": {
        "encoding": "inplace",
        "label": "enum CurateV2.RequestType",
        "numberOfBytes": "1"
      },
      "t_enum(Status)871": {
        "encoding": "inplace",
        "label": "enum CurateV2.Status",
        "numberOfBytes": "1"
      },
      "t_mapping(t_address,t_mapping(t_uint256,t_bytes32))": {
        "encoding": "mapping",
        "key": "t_address",
        "label": "mapping(address => mapping(uint256 => bytes32))",
        "numberOfBytes": "32",
        "value": "t_mapping(t_uint256,t_bytes32)"
      },
      "t_mapping(t_bytes32,t_mapping(t_uint256,t_struct(DisputeData)916_storage))": {
        "encoding": "mapping",
        "key": "t_bytes32",
        "label": "mapping(bytes32 => mapping(uint256 => struct CurateV2.DisputeData))",
        "numberOfBytes": "32",
        "value": "t_mapping(t_uint256,t_struct(DisputeData)916_storage)"
      },
      "t_mapping(t_bytes32,t_struct(Item)895_storage)": {
        "encoding": "mapping",
        "key": "t_bytes32",
        "label": "mapping(bytes32 => struct CurateV2.Item)",
        "numberOfBytes": "32",
        "value": "t_struct(Item)895_storage"
      },
      "t_mapping(t_uint256,t_bytes32)": {
        "encoding": "mapping",
        "key": "t_uint256",
        "label": "mapping(uint256 => bytes32)",
        "numberOfBytes": "32",
        "value": "t_bytes32"
      },
      "t_mapping(t_uint256,t_struct(DisputeData)916_storage)": {
        "encoding": "mapping",
        "key": "t_uint256",
        "label": "mapping(uint256 => struct CurateV2.DisputeData)",
        "numberOfBytes": "32",
        "value": "t_struct(DisputeData)916_storage"
      },
      "t_mapping(t_uint256,t_struct(Request)907_storage)": {
        "encoding": "mapping",
        "key": "t_uint256",
        "label": "mapping(uint256 => struct CurateV2.Request)",
        "numberOfBytes": "32",
        "value": "t_struct(Request)907_storage"
      },
      "t_struct(ArbitrationParams)925_storage": {
        "encoding": "inplace",
        "label": "struct CurateV2.ArbitrationParams",
        "members": [
          {
            "astId": 919,
            "contract": "src/CurateV2.sol:CurateV2",
            "label": "arbitrator",
            "offset": 0,
            "slot": "0",
            "type": "t_contract(IArbitratorV2)210"
          },
          {
            "astId": 921,
            "contract": "src/CurateV2.sol:CurateV2",
            "label": "arbitratorExtraData",
            "offset": 0,
            "slot": "1",
            "type": "t_bytes_storage"
          },
          {
            "astId": 924,
            "contract": "src/CurateV2.sol:CurateV2",
            "label": "evidenceModule",
            "offset": 0,
            "slot": "2",
            "type": "t_contract(EvidenceModule)75"
          }
        ],
        "numberOfBytes": "96"
      },
      "t_struct(DisputeData)916_storage": {
        "encoding": "inplace",
        "label": "struct CurateV2.DisputeData",
        "members": [
          {
            "astId": 909,
            "contract": "src/CurateV2.sol:CurateV2",
            "label": "disputeID",
            "offset": 0,
            "slot": "0",
            "type": "t_uint256"
          },
          {
            "astId": 912,
            "contract": "src/CurateV2.sol:CurateV2",
            "label": "status",
            "offset": 0,
            "slot": "1",
            "type": "t_enum(DisputeStatus)882"
          },
          {
            "astId": 915,
            "contract": "src/CurateV2.sol:CurateV2",
            "label": "ruling",
            "offset": 1,
            "slot": "1",
            "type": "t_enum(Party)875"
          }
        ],
        "numberOfBytes": "64"
      },
      "t_struct(Item)895_storage": {
        "encoding": "inplace",
        "label": "struct CurateV2.Item",
        "members": [
          {
            "astId": 885,
            "contract": "src/CurateV2.sol:CurateV2",
            "label": "status",
            "offset": 0,
            "slot": "0",
            "type": "t_enum(Status)871"
          },
          {
            "astId": 887,
            "contract": "src/CurateV2.sol:CurateV2",
            "label": "sumDeposit",
            "offset": 0,
            "slot": "1",
            "type": "t_uint256"
          },
          {
            "astId": 889,
            "contract": "src/CurateV2.sol:CurateV2",
            "label": "requestCount",
            "offset": 0,
            "slot": "2",
            "type": "t_uint256"
          },
          {
            "astId": 894,
            "contract": "src/CurateV2.sol:CurateV2",
            "label": "requests",
            "offset": 0,
            "slot": "3",
            "type": "t_mapping(t_uint256,t_struct(Request)907_storage)"
          }
        ],
        "numberOfBytes": "128"
      },
      "t_struct(Request)907_storage": {
        "encoding": "inplace",
        "label": "struct CurateV2.Request",
        "members": [
          {
            "astId": 898,
            "contract": "src/CurateV2.sol:CurateV2",
            "label": "requestType",
            "offset": 0,
            "slot": "0",
            "type": "t_enum(RequestType)878"
          },
          {
            "astId": 900,
            "contract": "src/CurateV2.sol:CurateV2",
            "label": "submissionTime",
            "offset": 1,
            "slot": "0",
            "type": "t_uint64"
          },
          {
            "astId": 902,
            "contract": "src/CurateV2.sol:CurateV2",
            "label": "arbitrationParamsIndex",
            "offset": 9,
            "slot": "0",
            "type": "t_uint24"
          },
          {
            "astId": 904,
            "contract": "src/CurateV2.sol:CurateV2",
            "label": "requester",
            "offset": 12,
            "slot": "0",
            "type": "t_address_payable"
          },
          {
            "astId": 906,
            "contract": "src/CurateV2.sol:CurateV2",
            "label": "challenger",
            "offset": 0,
            "slot": "1",
            "type": "t_address_payable"
          }
        ],
        "numberOfBytes": "64"
      },
      "t_uint24": {
        "encoding": "inplace",
        "label": "uint24",
        "numberOfBytes": "3"
      },
      "t_uint256": {
        "encoding": "inplace",
        "label": "uint256",
        "numberOfBytes": "32"
      },
      "t_uint64": {
        "encoding": "inplace",
        "label": "uint64",
        "numberOfBytes": "8"
      }
    }
  }
}