{
  "address": "0x5D03d22229899cd7Af84a3F0f9c39B24F51c8E21",
  "abi": [
    {
      "inputs": [
        {
          "internalType": "address",
          "name": "_curate",
          "type": "address"
        }
      ],
      "stateMutability": "nonpayable",
      "type": "constructor"
    },
    {
      "anonymous": false,
      "inputs": [
        {
          "indexed": true,
          "internalType": "contract CurateV2",
          "name": "_address",
          "type": "address"
        }
      ],
      "name": "NewGTCR",
      "type": "event"
    },
    {
      "inputs": [],
      "name": "count",
      "outputs": [
        {
          "internalType": "uint256",
          "name": "",
          "type": "uint256"
        }
      ],
      "stateMutability": "view",
      "type": "function"
    },
    {
      "inputs": [],
      "name": "curate",
      "outputs": [
        {
          "internalType": "address",
          "name": "",
          "type": "address"
        }
      ],
      "stateMutability": "view",
      "type": "function"
    },
    {
      "inputs": [
        {
          "internalType": "address",
          "name": "_governor",
          "type": "address"
        },
        {
          "internalType": "contract IArbitratorV2",
          "name": "_arbitrator",
          "type": "address"
        },
        {
          "internalType": "bytes",
          "name": "_arbitratorExtraData",
          "type": "bytes"
        },
        {
          "internalType": "contract EvidenceModule",
          "name": "_evidenceModule",
          "type": "address"
        },
        {
          "internalType": "address",
          "name": "_connectedTCR",
          "type": "address"
        },
        {
          "internalType": "string[2]",
          "name": "_registrationTemplateParameters",
          "type": "string[2]"
        },
        {
          "internalType": "string[2]",
          "name": "_removalTemplateParameters",
          "type": "string[2]"
        },
        {
          "internalType": "address",
          "name": "_templateRegistry",
          "type": "address"
        },
        {
          "internalType": "uint256[4]",
          "name": "_baseDeposits",
          "type": "uint256[4]"
        },
        {
          "internalType": "uint256",
          "name": "_challengePeriodDuration",
          "type": "uint256"
        },
        {
          "internalType": "address",
          "name": "_relayerContract",
          "type": "address"
        }
      ],
      "name": "deploy",
      "outputs": [],
      "stateMutability": "nonpayable",
      "type": "function"
    },
    {
      "inputs": [
        {
          "internalType": "uint256",
          "name": "",
          "type": "uint256"
        }
      ],
      "name": "instances",
      "outputs": [
        {
          "internalType": "contract CurateV2",
          "name": "",
          "type": "address"
        }
      ],
      "stateMutability": "view",
      "type": "function"
    }
  ],
  "transactionHash": "0x9ae24b8894d232cddaab429428698c6a6034d9a5360556fc668fededfed4dfca",
  "args": [
    "0x091Ba21a03aab5b4cfee5A770667cc53EF2cB1bc"
  ],
  "numDeployments": 1,
  "solcInputHash": "2b0edf9ae99093712105520d6bd287a2",
  "bytecode": "0x608060405234801561001057600080fd5b5060405161066538038061066583398101604081905261002f91610054565b600180546001600160a01b0319166001600160a01b0392909216919091179055610084565b60006020828403121561006657600080fd5b81516001600160a01b038116811461007d57600080fd5b9392505050565b6105d2806100936000396000f3fe608060405234801561001057600080fd5b506004361061004c5760003560e01c806306661abd146100515780630f9373ad14610067578063505787db14610092578063a2f7b3a5146100a7575b600080fd5b6000546040519081526020015b60405180910390f35b60015461007a906001600160a01b031681565b6040516001600160a01b03909116815260200161005e565b6100a56100a036600461031a565b6100ba565b005b61007a6100b536600461043b565b6101ca565b6001546000906100d2906001600160a01b03166101f4565b9050806001600160a01b0316634df5e6ff8e8e8e8e8e8e8e8e8e8e8e8e6040518d63ffffffff1660e01b81526004016101169c9b9a99989796959493929190610503565b600060405180830381600087803b15801561013057600080fd5b505af1158015610144573d6000803e3d6000fd5b5050600080546001810182558180527f290decd9548b62a8d60345a988386fc84ba6bc95484008f6362f93160ef3e5630180546001600160a01b0319166001600160a01b0386169081179091556040519093507f704e94f24d7a41dd1af49e0bbd12aa4fb9ade0accd11001b9d1de7d756a5464f9250a250505050505050505050505050565b600081815481106101da57600080fd5b6000918252602090912001546001600160a01b0316905081565b6000763d602d80600a3d3981f3363d3d373d3d3d363d730000008260601b60e81c176000526e5af43d82803e903d91602b57fd5bf38260781b17602052603760096000f090506001600160a01b03811661028d5760405162461bcd60e51b8152602060048201526016602482015275115490cc4c4d8dce8818dc99585d194819985a5b195960521b604482015260640160405180910390fd5b919050565b80356001600160a01b038116811461028d57600080fd5b60008083601f8401126102bb57600080fd5b50813567ffffffffffffffff8111156102d357600080fd5b6020830191508360208285010111156102eb57600080fd5b9250929050565b806040810183101561030357600080fd5b92915050565b806080810183101561030357600080fd5b6000806000806000806000806000806000806101c08d8f03121561033d57600080fd5b6103468d610292565b9b5061035460208e01610292565b9a5067ffffffffffffffff60408e0135111561036f57600080fd5b61037f8e60408f01358f016102a9565b909a50985061039060608e01610292565b975061039e60808e01610292565b965067ffffffffffffffff60a08e013511156103b957600080fd5b6103c98e60a08f01358f016102f2565b955067ffffffffffffffff60c08e013511156103e457600080fd5b6103f48e60c08f01358f016102f2565b945061040260e08e01610292565b93506104128e6101008f01610309565b92506101808d013591506104296101a08e01610292565b90509295989b509295989b509295989b565b60006020828403121561044d57600080fd5b5035919050565b81835281816020850137506000828201602090810191909152601f909101601f19169091010190565b600082604081018360005b60028110156104f85783830387528135601e198736030181126104aa57600080fd5b8601602081810191359067ffffffffffffffff8211156104c957600080fd5b8136038313156104d857600080fd5b6104e3868385610454565b99810199955093909301925050600101610488565b509095945050505050565b600060018060a01b03808f168352808e1660208401526101c060408401526105306101c084018d8f610454565b818c166060850152818b16608085015283810360a0850152610552818b61047d565b905083810360c0850152610566818a61047d565b92505080871660e0840152608086610100850137846101808401528084166101a0840152509d9c5050505050505050505050505056fea2646970667358221220314f09e158bd933391e3cf34266d4b214686de74db5624a0f8601cb40105702664736f6c63430008120033",
  "devdoc": {
    "events": {
      "NewGTCR(address)": {
        "details": "Emitted when a new Curate contract is deployed using this factory. TODO: change TCR mentions.",
        "params": {
          "_address": "The address of the newly deployed Curate contract."
        }
      }
    },
    "kind": "dev",
    "methods": {
      "constructor": {
        "details": "Constructor.",
        "params": {
          "_curate": "Address of the Curate contract that is going to be used for each new deployment."
        }
      },
      "count()": {
        "returns": {
          "_0": "The number of deployed Curate contracts using this factory."
        }
      },
      "deploy(address,address,bytes,address,address,string[2],string[2],address,uint256[4],uint256,address)": {
        "details": "Deploy the arbitrable curated registry.",
        "params": {
          "_arbitrator": "Arbitrator to resolve potential disputes. The arbitrator is trusted to support appeal periods and not reenter.",
          "_arbitratorExtraData": "Extra data for the trusted arbitrator contract.",
          "_baseDeposits": "The base deposits for requests/challenges as follows: - The base deposit to submit an item. - The base deposit to remove an item. - The base deposit to challenge a submission. - The base deposit to challenge a removal request.",
          "_challengePeriodDuration": "The time in seconds parties have to challenge a request.",
          "_connectedTCR": "The address of the Curate contract that stores related Curate addresses. This parameter can be left empty.",
          "_evidenceModule": "The evidence contract for the arbitrator.",
          "_governor": "The trusted governor of this contract.",
          "_registrationTemplateParameters": "Template and data mappings json for registration requests.",
          "_relayerContract": "The address of the relay contract to add/remove items directly.",
          "_removalTemplateParameters": "Template and data mappings json for removal requests.",
          "_templateRegistry": "The dispute template registry."
        }
      }
    },
    "title": "CurateFactory This contract acts as a registry for Curate instances.",
    "version": 1
  },
  "userdoc": {
    "kind": "user",
    "methods": {},
    "version": 1
  },
  "storageLayout": {
    "storage": [
      {
        "astId": 740,
        "contract": "src/CurateFactory.sol:CurateFactory",
        "label": "instances",
        "offset": 0,
        "slot": "0",
        "type": "t_array(t_contract(CurateV2)2681)dyn_storage"
      },
      {
        "astId": 742,
        "contract": "src/CurateFactory.sol:CurateFactory",
        "label": "curate",
        "offset": 0,
        "slot": "1",
        "type": "t_address"
      }
    ],
    "types": {
      "t_address": {
        "encoding": "inplace",
        "label": "address",
        "numberOfBytes": "20"
      },
      "t_array(t_contract(CurateV2)2681)dyn_storage": {
        "base": "t_contract(CurateV2)2681",
        "encoding": "dynamic_array",
        "label": "contract CurateV2[]",
        "numberOfBytes": "32"
      },
      "t_contract(CurateV2)2681": {
        "encoding": "inplace",
        "label": "contract CurateV2",
        "numberOfBytes": "20"
      }
    }
  }
}