{
  "address": "0x24597B8918acA259337AdD2D2C2F07eafeaAf68e",
  "abi": [
    {
      "inputs": [
        {
          "internalType": "address",
          "name": "_curate",
          "type": "address"
        }
      ],
      "stateMutability": "nonpayable",
      "type": "constructor"
    },
    {
      "anonymous": false,
      "inputs": [
        {
          "indexed": true,
          "internalType": "contract CurateV2",
          "name": "_address",
          "type": "address"
        }
      ],
      "name": "NewList",
      "type": "event"
    },
    {
      "inputs": [],
      "name": "count",
      "outputs": [
        {
          "internalType": "uint256",
          "name": "",
          "type": "uint256"
        }
      ],
      "stateMutability": "view",
      "type": "function"
    },
    {
      "inputs": [],
      "name": "curate",
      "outputs": [
        {
          "internalType": "address",
          "name": "",
          "type": "address"
        }
      ],
      "stateMutability": "view",
      "type": "function"
    },
    {
      "inputs": [
        {
          "internalType": "address",
          "name": "_governor",
          "type": "address"
        },
        {
          "internalType": "contract IArbitratorV2",
          "name": "_arbitrator",
          "type": "address"
        },
        {
          "internalType": "bytes",
          "name": "_arbitratorExtraData",
          "type": "bytes"
        },
        {
          "internalType": "address",
          "name": "_connectedList",
          "type": "address"
        },
        {
          "components": [
            {
              "internalType": "address",
              "name": "templateRegistry",
              "type": "address"
            },
            {
              "internalType": "string[2]",
              "name": "registrationTemplateParameters",
              "type": "string[2]"
            },
            {
              "internalType": "string[2]",
              "name": "removalTemplateParameters",
              "type": "string[2]"
            }
          ],
          "internalType": "struct CurateV2.TemplateRegistryParams",
          "name": "_templateRegistryParams",
          "type": "tuple"
        },
        {
          "internalType": "uint256[4]",
          "name": "_baseDeposits",
          "type": "uint256[4]"
        },
        {
          "internalType": "uint256",
          "name": "_challengePeriodDuration",
          "type": "uint256"
        },
        {
          "internalType": "address",
          "name": "_relayerContract",
          "type": "address"
        },
        {
          "internalType": "string",
          "name": "_listMetadata",
          "type": "string"
        }
      ],
      "name": "deploy",
      "outputs": [],
      "stateMutability": "nonpayable",
      "type": "function"
    },
    {
      "inputs": [
        {
          "internalType": "uint256",
          "name": "",
          "type": "uint256"
        }
      ],
      "name": "instances",
      "outputs": [
        {
          "internalType": "contract CurateV2",
          "name": "",
          "type": "address"
        }
      ],
      "stateMutability": "view",
      "type": "function"
    }
  ],
  "transactionHash": "0xd8edf980bced66ead53db710b9150898e06190d8b0e202ac6c4a7ce24cedc24c",
  "args": [
    "0xD48fbC8B5149CBA5c7Ab6bfd37e7a04481475B59"
  ],
  "numDeployments": 1,
  "solcInputHash": "c6dc37e5e5bdb46e0ced1feaeb7dd2aa",
  "bytecode": "0x608060405234801561001057600080fd5b5060405161085638038061085683398101604081905261002f91610054565b600180546001600160a01b0319166001600160a01b0392909216919091179055610084565b60006020828403121561006657600080fd5b81516001600160a01b038116811461007d57600080fd5b9392505050565b6107c3806100936000396000f3fe608060405234801561001057600080fd5b506004361061004c5760003560e01c806306661abd146100515780630f9373ad14610067578063173aa37c14610092578063a2f7b3a5146100a7575b600080fd5b6000546040519081526020015b60405180910390f35b60015461007a906001600160a01b031681565b6040516001600160a01b03909116815260200161005e565b6100a56100a036600461042f565b6100ba565b005b61007a6100b5366004610521565b610229565b6001546000906100d2906001600160a01b0316610253565b9050806001600160a01b031663a73aba698c8c8c8c8c60405180606001604052808e6000016020810190610106919061053a565b6001600160a01b031681526020018e8060200190610124919061055e565b61012d9061057e565b81526020018e8060400190610142919061055e565b61014b9061057e565b8152508c8c8c8c6040518b63ffffffff1660e01b81526004016101779a999897969594939291906106d7565b600060405180830381600087803b15801561019157600080fd5b505af11580156101a5573d6000803e3d6000fd5b5050600080546001810182558180527f290decd9548b62a8d60345a988386fc84ba6bc95484008f6362f93160ef3e5630180546001600160a01b0319166001600160a01b0386169081179091556040519093507f425208e08bf94a09380d60ae4ba2c26cdf95fb1e9e6a0e3e284b99a5f27bde7f9250a25050505050505050505050565b6000818154811061023957600080fd5b6000918252602090912001546001600160a01b0316905081565b6000763d602d80600a3d3981f3363d3d373d3d3d363d730000008260601b60e81c176000526e5af43d82803e903d91602b57fd5bf38260781b17602052603760096000f090506001600160a01b0381166102ec5760405162461bcd60e51b8152602060048201526016602482015275115490cc4c4d8dce8818dc99585d194819985a5b195960521b604482015260640160405180910390fd5b919050565b6001600160a01b038116811461030657600080fd5b50565b80356102ec816102f1565b60008083601f84011261032657600080fd5b50813567ffffffffffffffff81111561033e57600080fd5b60208301915083602082850101111561035657600080fd5b9250929050565b60006060828403121561036f57600080fd5b50919050565b806080810183101561038657600080fd5b92915050565b634e487b7160e01b600052604160045260246000fd5b600082601f8301126103b357600080fd5b813567ffffffffffffffff808211156103ce576103ce61038c565b604051601f8301601f19908116603f011681019082821181831017156103f6576103f661038c565b8160405283815286602085880101111561040f57600080fd5b836020870160208301376000602085830101528094505050505092915050565b6000806000806000806000806000806101808b8d03121561044f57600080fd5b6104588b610309565b995061046660208c01610309565b985060408b013567ffffffffffffffff8082111561048357600080fd5b61048f8e838f01610314565b909a5098508891506104a360608e01610309565b975060808d01359150808211156104b957600080fd5b6104c58e838f0161035d565b96506104d48e60a08f01610375565b95506101208d013594506104eb6101408e01610309565b93506101608d013591508082111561050257600080fd5b5061050f8d828e016103a2565b9150509295989b9194979a5092959850565b60006020828403121561053357600080fd5b5035919050565b60006020828403121561054c57600080fd5b8135610557816102f1565b9392505050565b60008235603e1983360301811261057457600080fd5b9190910192915050565b60006040516040810167ffffffffffffffff82821081831117156105a4576105a461038c565b604091825282918501368111156105ba57600080fd5b855b818110156105ef578035838111156105d45760008081fd5b6105e036828a016103a2565b855250602093840193016105bc565b509295945050505050565b6000815180845260005b8181101561062057602081850181015186830182015201610604565b506000602082860101526020601f19601f83011685010191505092915050565b600082604081018360005b600281101561067a5783830387526106648383516105fa565b602097880197909350919091019060010161064b565b509095945050505050565b60018060a01b03815116825260006020820151606060208501526106ac6060850182610640565b9050604083015184820360408601526106c58282610640565b95945050505050565b60808183375050565b6001600160a01b038b811682528a16602082015261018060408201819052810188905260006101a0898b8285013760008a84018201526001600160a01b0389166060840152601f19601f8b011683018184820301608085015261073c8282018a610685565b91505061074c60a08401886106ce565b856101208401526107696101408401866001600160a01b03169052565b82810361016084015261077c81856105fa565b9d9c5050505050505050505050505056fea2646970667358221220996187cdb9dcb81c67a61e0b103132a395cbf3c15e93ada9be3d46f625d6d4d064736f6c63430008180033",
  "devdoc": {
    "events": {
      "NewList(address)": {
        "details": "Emitted when a new Curate contract is deployed using this factory.",
        "params": {
          "_address": "The address of the newly deployed Curate contract."
        }
      }
    },
    "kind": "dev",
    "methods": {
      "constructor": {
        "details": "Constructor.",
        "params": {
          "_curate": "Address of the Curate contract that is going to be used for each new deployment."
        }
      },
      "count()": {
        "returns": {
          "_0": "The number of deployed Curate contracts using this factory."
        }
      },
      "deploy(address,address,bytes,address,(address,string[2],string[2]),uint256[4],uint256,address,string)": {
        "details": "Deploy the arbitrable curated registry.",
        "params": {
          "_arbitrator": "Arbitrator to resolve potential disputes. The arbitrator is trusted to support appeal periods and not reenter.",
          "_arbitratorExtraData": "Extra data for the trusted arbitrator contract.",
          "_baseDeposits": "The base deposits for requests/challenges as follows: - The base deposit to submit an item. - The base deposit to remove an item. - The base deposit to challenge a submission. - The base deposit to challenge a removal request.",
          "_challengePeriodDuration": "The time in seconds parties have to challenge a request.",
          "_connectedList": "The address of the Curate contract that stores related Curate addresses. This parameter can be left empty.",
          "_governor": "The trusted governor of this contract.",
          "_listMetadata": "Stringified JSON object containing list metadata (title, description, isListOfLists, etc.). Example at :-  https://cloudflare-ipfs.com/ipfs/QmekLsbXtQfm2jJjdeC5TF1cJcr5qxarZ9bhKmCS9s3ebK/list-metadata.json",
          "_relayerContract": "The address of the relay contract to add/remove items directly.",
          "_templateRegistryParams": "The dispute template registry. - templateRegistry : The dispute template registry. - registrationTemplateParameters : Template and data mappings json for registration requests. - removalTemplateParameters : Template and data mappings json for removal requests."
        }
      }
    },
    "title": "CurateFactory This contract acts as a registry for Curate instances.",
    "version": 1
  },
  "userdoc": {
    "kind": "user",
    "methods": {},
    "version": 1
  },
  "storageLayout": {
    "storage": [
      {
        "astId": 254,
        "contract": "src/CurateFactory.sol:CurateFactory",
        "label": "instances",
        "offset": 0,
        "slot": "0",
        "type": "t_array(t_contract(CurateV2)2194)dyn_storage"
      },
      {
        "astId": 256,
        "contract": "src/CurateFactory.sol:CurateFactory",
        "label": "curate",
        "offset": 0,
        "slot": "1",
        "type": "t_address"
      }
    ],
    "types": {
      "t_address": {
        "encoding": "inplace",
        "label": "address",
        "numberOfBytes": "20"
      },
      "t_array(t_contract(CurateV2)2194)dyn_storage": {
        "base": "t_contract(CurateV2)2194",
        "encoding": "dynamic_array",
        "label": "contract CurateV2[]",
        "numberOfBytes": "32"
      },
      "t_contract(CurateV2)2194": {
        "encoding": "inplace",
        "label": "contract CurateV2",
        "numberOfBytes": "20"
      }
    }
  }
}