{
  "address": "0x7eC8b337bb297c6429794CD888EdcBB3e54A2D20",
  "abi": [
    {
      "anonymous": false,
      "inputs": [
        {
          "indexed": true,
          "internalType": "address",
          "name": "_connectedList",
          "type": "address"
        }
      ],
      "name": "ConnectedListSet",
      "type": "event"
    },
    {
      "anonymous": false,
      "inputs": [
        {
          "indexed": true,
          "internalType": "contract IArbitratorV2",
          "name": "_arbitrator",
          "type": "address"
        },
        {
          "indexed": true,
          "internalType": "uint256",
          "name": "_arbitrableDisputeID",
          "type": "uint256"
        },
        {
          "indexed": false,
          "internalType": "uint256",
          "name": "_externalDisputeID",
          "type": "uint256"
        },
        {
          "indexed": false,
          "internalType": "uint256",
          "name": "_templateId",
          "type": "uint256"
        },
        {
          "indexed": false,
          "internalType": "string",
          "name": "_templateUri",
          "type": "string"
        }
      ],
      "name": "DisputeRequest",
      "type": "event"
    },
    {
      "anonymous": false,
      "inputs": [
        {
          "indexed": true,
          "internalType": "bytes32",
          "name": "_itemID",
          "type": "bytes32"
        },
        {
          "indexed": false,
          "internalType": "bool",
          "name": "_updatedDirectly",
          "type": "bool"
        }
      ],
      "name": "ItemStatusChange",
      "type": "event"
    },
    {
      "anonymous": false,
      "inputs": [
        {
          "indexed": false,
          "internalType": "string",
          "name": "_listMetadata",
          "type": "string"
        }
      ],
      "name": "ListMetadataSet",
      "type": "event"
    },
    {
      "anonymous": false,
      "inputs": [
        {
          "indexed": true,
          "internalType": "bytes32",
          "name": "_itemID",
          "type": "bytes32"
        },
        {
          "indexed": false,
          "internalType": "string",
          "name": "_data",
          "type": "string"
        },
        {
          "indexed": false,
          "internalType": "bool",
          "name": "_addedDirectly",
          "type": "bool"
        }
      ],
      "name": "NewItem",
      "type": "event"
    },
    {
      "anonymous": false,
      "inputs": [
        {
          "indexed": true,
          "internalType": "bytes32",
          "name": "_itemID",
          "type": "bytes32"
        },
        {
          "indexed": false,
          "internalType": "uint256",
          "name": "_requestID",
          "type": "uint256"
        }
      ],
      "name": "RequestSubmitted",
      "type": "event"
    },
    {
      "anonymous": false,
      "inputs": [
        {
          "indexed": true,
          "internalType": "contract IArbitratorV2",
          "name": "_arbitrator",
          "type": "address"
        },
        {
          "indexed": true,
          "internalType": "uint256",
          "name": "_disputeID",
          "type": "uint256"
        },
        {
          "indexed": false,
          "internalType": "uint256",
          "name": "_ruling",
          "type": "uint256"
        }
      ],
      "name": "Ruling",
      "type": "event"
    },
    {
      "inputs": [],
      "name": "RULING_OPTIONS",
      "outputs": [
        {
          "internalType": "uint256",
          "name": "",
          "type": "uint256"
        }
      ],
      "stateMutability": "view",
      "type": "function"
    },
    {
      "inputs": [
        {
          "internalType": "string",
          "name": "_item",
          "type": "string"
        }
      ],
      "name": "addItem",
      "outputs": [],
      "stateMutability": "payable",
      "type": "function"
    },
    {
      "inputs": [
        {
          "internalType": "string",
          "name": "_item",
          "type": "string"
        }
      ],
      "name": "addItemDirectly",
      "outputs": [],
      "stateMutability": "nonpayable",
      "type": "function"
    },
    {
      "inputs": [
        {
          "internalType": "uint256",
          "name": "",
          "type": "uint256"
        }
      ],
      "name": "arbitrationParamsChanges",
      "outputs": [
        {
          "internalType": "contract IArbitratorV2",
          "name": "arbitrator",
          "type": "address"
        },
        {
          "internalType": "bytes",
          "name": "arbitratorExtraData",
          "type": "bytes"
        },
        {
          "internalType": "contract EvidenceModule",
          "name": "evidenceModule",
          "type": "address"
        }
      ],
      "stateMutability": "view",
      "type": "function"
    },
    {
      "inputs": [
        {
          "internalType": "address",
          "name": "",
          "type": "address"
        },
        {
          "internalType": "uint256",
          "name": "",
          "type": "uint256"
        }
      ],
      "name": "arbitratorDisputeIDToItemID",
      "outputs": [
        {
          "internalType": "bytes32",
          "name": "",
          "type": "bytes32"
        }
      ],
      "stateMutability": "view",
      "type": "function"
    },
    {
      "inputs": [],
      "name": "challengePeriodDuration",
      "outputs": [
        {
          "internalType": "uint256",
          "name": "",
          "type": "uint256"
        }
      ],
      "stateMutability": "view",
      "type": "function"
    },
    {
      "inputs": [
        {
          "internalType": "bytes32",
          "name": "_itemID",
          "type": "bytes32"
        },
        {
          "internalType": "string",
          "name": "_evidence",
          "type": "string"
        }
      ],
      "name": "challengeRequest",
      "outputs": [],
      "stateMutability": "payable",
      "type": "function"
    },
    {
      "inputs": [
        {
          "internalType": "contract IArbitratorV2",
          "name": "_arbitrator",
          "type": "address"
        },
        {
          "internalType": "bytes",
          "name": "_arbitratorExtraData",
          "type": "bytes"
        },
        {
          "internalType": "contract EvidenceModule",
          "name": "_evidenceModule",
          "type": "address"
        }
      ],
      "name": "changeArbitrationParams",
      "outputs": [],
      "stateMutability": "nonpayable",
      "type": "function"
    },
    {
      "inputs": [
        {
          "internalType": "uint256",
          "name": "_challengePeriodDuration",
          "type": "uint256"
        }
      ],
      "name": "changeChallengePeriodDuration",
      "outputs": [],
      "stateMutability": "nonpayable",
      "type": "function"
    },
    {
      "inputs": [
        {
          "internalType": "address",
          "name": "_connectedList",
          "type": "address"
        }
      ],
      "name": "changeConnectedList",
      "outputs": [],
      "stateMutability": "nonpayable",
      "type": "function"
    },
    {
      "inputs": [
        {
          "internalType": "address",
          "name": "_governor",
          "type": "address"
        }
      ],
      "name": "changeGovernor",
      "outputs": [],
      "stateMutability": "nonpayable",
      "type": "function"
    },
    {
      "inputs": [
        {
          "internalType": "string",
          "name": "_listMetadata",
          "type": "string"
        }
      ],
      "name": "changeListMetadata",
      "outputs": [],
      "stateMutability": "nonpayable",
      "type": "function"
    },
    {
      "inputs": [
        {
          "internalType": "string",
          "name": "_templateData",
          "type": "string"
        },
        {
          "internalType": "string",
          "name": "_templateDataMappings",
          "type": "string"
        }
      ],
      "name": "changeRegistrationDisputeTemplate",
      "outputs": [],
      "stateMutability": "nonpayable",
      "type": "function"
    },
    {
      "inputs": [
        {
          "internalType": "address",
          "name": "_relayerContract",
          "type": "address"
        }
      ],
      "name": "changeRelayerContract",
      "outputs": [],
      "stateMutability": "nonpayable",
      "type": "function"
    },
    {
      "inputs": [
        {
          "internalType": "uint256",
          "name": "_removalBaseDeposit",
          "type": "uint256"
        }
      ],
      "name": "changeRemovalBaseDeposit",
      "outputs": [],
      "stateMutability": "nonpayable",
      "type": "function"
    },
    {
      "inputs": [
        {
          "internalType": "uint256",
          "name": "_removalChallengeBaseDeposit",
          "type": "uint256"
        }
      ],
      "name": "changeRemovalChallengeBaseDeposit",
      "outputs": [],
      "stateMutability": "nonpayable",
      "type": "function"
    },
    {
      "inputs": [
        {
          "internalType": "string",
          "name": "_templateData",
          "type": "string"
        },
        {
          "internalType": "string",
          "name": "_templateDataMappings",
          "type": "string"
        }
      ],
      "name": "changeRemovalDisputeTemplate",
      "outputs": [],
      "stateMutability": "nonpayable",
      "type": "function"
    },
    {
      "inputs": [
        {
          "internalType": "uint256",
          "name": "_submissionBaseDeposit",
          "type": "uint256"
        }
      ],
      "name": "changeSubmissionBaseDeposit",
      "outputs": [],
      "stateMutability": "nonpayable",
      "type": "function"
    },
    {
      "inputs": [
        {
          "internalType": "uint256",
          "name": "_submissionChallengeBaseDeposit",
          "type": "uint256"
        }
      ],
      "name": "changeSubmissionChallengeBaseDeposit",
      "outputs": [],
      "stateMutability": "nonpayable",
      "type": "function"
    },
    {
      "inputs": [
        {
          "internalType": "contract IDisputeTemplateRegistry",
          "name": "_templateRegistry",
          "type": "address"
        }
      ],
      "name": "changeTemplateRegistry",
      "outputs": [],
      "stateMutability": "nonpayable",
      "type": "function"
    },
    {
      "inputs": [
        {
          "internalType": "bytes32",
          "name": "_itemID",
          "type": "bytes32"
        }
      ],
      "name": "executeRequest",
      "outputs": [],
      "stateMutability": "nonpayable",
      "type": "function"
    },
    {
      "inputs": [],
      "name": "getArbitrator",
      "outputs": [
        {
          "internalType": "contract IArbitratorV2",
          "name": "",
          "type": "address"
        }
      ],
      "stateMutability": "view",
      "type": "function"
    },
    {
      "inputs": [],
      "name": "getArbitratorExtraData",
      "outputs": [
        {
          "internalType": "bytes",
          "name": "",
          "type": "bytes"
        }
      ],
      "stateMutability": "view",
      "type": "function"
    },
    {
      "inputs": [
        {
          "internalType": "bytes32",
          "name": "_itemID",
          "type": "bytes32"
        }
      ],
      "name": "getItemInfo",
      "outputs": [
        {
          "internalType": "enum CurateV2.Status",
          "name": "status",
          "type": "uint8"
        },
        {
          "internalType": "uint256",
          "name": "numberOfRequests",
          "type": "uint256"
        },
        {
          "internalType": "uint256",
          "name": "sumDeposit",
          "type": "uint256"
        }
      ],
      "stateMutability": "view",
      "type": "function"
    },
    {
      "inputs": [
        {
          "internalType": "bytes32",
          "name": "_itemID",
          "type": "bytes32"
        },
        {
          "internalType": "uint256",
          "name": "_requestID",
          "type": "uint256"
        }
      ],
      "name": "getRequestID",
      "outputs": [
        {
          "internalType": "uint256",
          "name": "",
          "type": "uint256"
        }
      ],
      "stateMutability": "pure",
      "type": "function"
    },
    {
      "inputs": [
        {
          "internalType": "bytes32",
          "name": "_itemID",
          "type": "bytes32"
        },
        {
          "internalType": "uint256",
          "name": "_requestID",
          "type": "uint256"
        }
      ],
      "name": "getRequestInfo",
      "outputs": [
        {
          "internalType": "bool",
          "name": "disputed",
          "type": "bool"
        },
        {
          "internalType": "uint256",
          "name": "disputeID",
          "type": "uint256"
        },
        {
          "internalType": "uint256",
          "name": "submissionTime",
          "type": "uint256"
        },
        {
          "internalType": "bool",
          "name": "resolved",
          "type": "bool"
        },
        {
          "internalType": "address payable[3]",
          "name": "parties",
          "type": "address[3]"
        },
        {
          "internalType": "enum CurateV2.Party",
          "name": "ruling",
          "type": "uint8"
        },
        {
          "internalType": "contract IArbitratorV2",
          "name": "requestArbitrator",
          "type": "address"
        },
        {
          "internalType": "bytes",
          "name": "requestArbitratorExtraData",
          "type": "bytes"
        }
      ],
      "stateMutability": "view",
      "type": "function"
    },
    {
      "inputs": [],
      "name": "governor",
      "outputs": [
        {
          "internalType": "address",
          "name": "",
          "type": "address"
        }
      ],
      "stateMutability": "view",
      "type": "function"
    },
    {
      "inputs": [
        {
          "internalType": "address",
          "name": "_governor",
          "type": "address"
        },
        {
          "internalType": "contract IArbitratorV2",
          "name": "_arbitrator",
          "type": "address"
        },
        {
          "internalType": "bytes",
          "name": "_arbitratorExtraData",
          "type": "bytes"
        },
        {
          "internalType": "contract EvidenceModule",
          "name": "_evidenceModule",
          "type": "address"
        },
        {
          "internalType": "address",
          "name": "_connectedList",
          "type": "address"
        },
        {
          "components": [
            {
              "internalType": "address",
              "name": "templateRegistry",
              "type": "address"
            },
            {
              "internalType": "string[2]",
              "name": "registrationTemplateParameters",
              "type": "string[2]"
            },
            {
              "internalType": "string[2]",
              "name": "removalTemplateParameters",
              "type": "string[2]"
            }
          ],
          "internalType": "struct CurateV2.TemplateRegistryParams",
          "name": "_templateRegistryParams",
          "type": "tuple"
        },
        {
          "internalType": "uint256[4]",
          "name": "_baseDeposits",
          "type": "uint256[4]"
        },
        {
          "internalType": "uint256",
          "name": "_challengePeriodDuration",
          "type": "uint256"
        },
        {
          "internalType": "address",
          "name": "_relayerContract",
          "type": "address"
        },
        {
          "internalType": "string",
          "name": "_listMetadata",
          "type": "string"
        }
      ],
      "name": "initialize",
      "outputs": [],
      "stateMutability": "nonpayable",
      "type": "function"
    },
    {
      "inputs": [
        {
          "internalType": "bytes32",
          "name": "",
          "type": "bytes32"
        }
      ],
      "name": "items",
      "outputs": [
        {
          "internalType": "enum CurateV2.Status",
          "name": "status",
          "type": "uint8"
        },
        {
          "internalType": "uint256",
          "name": "sumDeposit",
          "type": "uint256"
        },
        {
          "internalType": "uint256",
          "name": "requestCount",
          "type": "uint256"
        }
      ],
      "stateMutability": "view",
      "type": "function"
    },
    {
      "inputs": [],
      "name": "relayerContract",
      "outputs": [
        {
          "internalType": "address",
          "name": "",
          "type": "address"
        }
      ],
      "stateMutability": "view",
      "type": "function"
    },
    {
      "inputs": [],
      "name": "removalBaseDeposit",
      "outputs": [
        {
          "internalType": "uint256",
          "name": "",
          "type": "uint256"
        }
      ],
      "stateMutability": "view",
      "type": "function"
    },
    {
      "inputs": [],
      "name": "removalChallengeBaseDeposit",
      "outputs": [
        {
          "internalType": "uint256",
          "name": "",
          "type": "uint256"
        }
      ],
      "stateMutability": "view",
      "type": "function"
    },
    {
      "inputs": [
        {
          "internalType": "bytes32",
          "name": "_itemID",
          "type": "bytes32"
        },
        {
          "internalType": "string",
          "name": "_evidence",
          "type": "string"
        }
      ],
      "name": "removeItem",
      "outputs": [],
      "stateMutability": "payable",
      "type": "function"
    },
    {
      "inputs": [
        {
          "internalType": "bytes32",
          "name": "_itemID",
          "type": "bytes32"
        }
      ],
      "name": "removeItemDirectly",
      "outputs": [],
      "stateMutability": "nonpayable",
      "type": "function"
    },
    {
      "inputs": [
        {
          "internalType": "bytes32",
          "name": "",
          "type": "bytes32"
        },
        {
          "internalType": "uint256",
          "name": "",
          "type": "uint256"
        }
      ],
      "name": "requestsDisputeData",
      "outputs": [
        {
          "internalType": "uint256",
          "name": "disputeID",
          "type": "uint256"
        },
        {
          "internalType": "enum CurateV2.DisputeStatus",
          "name": "status",
          "type": "uint8"
        },
        {
          "internalType": "enum CurateV2.Party",
          "name": "ruling",
          "type": "uint8"
        }
      ],
      "stateMutability": "view",
      "type": "function"
    },
    {
      "inputs": [
        {
          "internalType": "uint256",
          "name": "_disputeID",
          "type": "uint256"
        },
        {
          "internalType": "uint256",
          "name": "_ruling",
          "type": "uint256"
        }
      ],
      "name": "rule",
      "outputs": [],
      "stateMutability": "nonpayable",
      "type": "function"
    },
    {
      "inputs": [],
      "name": "submissionBaseDeposit",
      "outputs": [
        {
          "internalType": "uint256",
          "name": "",
          "type": "uint256"
        }
      ],
      "stateMutability": "view",
      "type": "function"
    },
    {
      "inputs": [],
      "name": "submissionChallengeBaseDeposit",
      "outputs": [
        {
          "internalType": "uint256",
          "name": "",
          "type": "uint256"
        }
      ],
      "stateMutability": "view",
      "type": "function"
    },
    {
      "inputs": [],
      "name": "templateIdRegistration",
      "outputs": [
        {
          "internalType": "uint256",
          "name": "",
          "type": "uint256"
        }
      ],
      "stateMutability": "view",
      "type": "function"
    },
    {
      "inputs": [],
      "name": "templateIdRemoval",
      "outputs": [
        {
          "internalType": "uint256",
          "name": "",
          "type": "uint256"
        }
      ],
      "stateMutability": "view",
      "type": "function"
    },
    {
      "inputs": [],
      "name": "templateRegistry",
      "outputs": [
        {
          "internalType": "contract IDisputeTemplateRegistry",
          "name": "",
          "type": "address"
        }
      ],
      "stateMutability": "view",
      "type": "function"
    }
  ],
  "transactionHash": "0x97a86c114a21a6e0e7e744629781d8ef15005150ae1966394ef28945e54933fd",
  "args": [],
  "numDeployments": 6,
  "solcInputHash": "a907d0ce03aacbb7032e5ed98e358be8",
  "bytecode": "0x608060405234801561001057600080fd5b5061342b806100206000396000f3fe6080604052600436106102455760003560e01c80638545c6a511610139578063bb0b86ff116100b6578063ca2c3cd11161007a578063ca2c3cd11461071d578063ccfd43071461073d578063d29d8f7d1461075d578063dd78cb591461077d578063e4c0aaf41461079d578063e9c24166146107bd57600080fd5b8063bb0b86ff14610678578063bfbcff1a1461068e578063c104817d146106c2578063c2f2beea146106e2578063c669439e146106f857600080fd5b80639c81a827116100fd5780639c81a827146105bb5780639dbea446146105f3578063a0af81f014610613578063a214e71214610633578063a37b6ad41461066257600080fd5b80638545c6a514610535578063873db1a7146105555780638c88c1491461056857806395dec7cc1461058857806397e90e50146105a857600080fd5b806340f1fa65116101c7578063560f7eaf1161018b578063560f7eaf146104b25780635d06e92c146104d2578063626c47e8146104e8578063787471a9146104fd5780637932ecf31461051357600080fd5b806340f1fa65146103c557806341e57c06146103e55780634660ebbe1461040557806348f343f3146104255780634aac84e51461047457600080fd5b8063107a8bfd1161020e578063107a8bfd1461033c57806325b98b831461035257806327e9f29414610372578063311a6c561461038557806333e5d047146103a557600080fd5b806282a36d1461024a57806303f3e206146102735780630c340a24146102cd5780630c6de59b146103055780630fceb74614610327575b600080fd5b34801561025657600080fd5b5061026060095481565b6040519081526020015b60405180910390f35b34801561027f57600080fd5b506102be61028e36600461287c565b600c6020908152600092835260408084209091529082529020805460019091015460ff8082169161010090041683565b60405161026a939291906128d4565b3480156102d957600080fd5b506001546102ed906001600160a01b031681565b6040516001600160a01b03909116815260200161026a565b34801561031157600080fd5b50610325610320366004612942565b6107dd565b005b34801561033357600080fd5b506102ed61084d565b34801561034857600080fd5b5061026060035481565b34801561035e57600080fd5b5061032561036d3660046129d1565b610890565b610325610380366004612942565b610c1d565b34801561039157600080fd5b506103256103a036600461287c565b610eff565b3480156103b157600080fd5b506103256103c0366004612ae8565b611354565b3480156103d157600080fd5b506103256103e0366004612b01565b611383565b3480156103f157600080fd5b50610325610400366004612ae8565b6113d5565b34801561041157600080fd5b50610325610420366004612b01565b611477565b34801561043157600080fd5b50610465610440366004612ae8565b600a6020526000908152604090208054600182015460029092015460ff909116919083565b60405161026a93929190612b25565b34801561048057600080fd5b5061046561048f366004612ae8565b6000908152600a602052604090208054600282015460019092015460ff90911692565b3480156104be57600080fd5b506103256104cd366004612ae8565b6114c3565b3480156104de57600080fd5b5061026060045481565b3480156104f457600080fd5b50610260600281565b34801561050957600080fd5b5061026060085481565b34801561051f57600080fd5b506105286114f2565b60405161026a9190612b93565b34801561054157600080fd5b50610325610550366004612942565b6115b5565b610325610563366004612ba6565b6116d5565b34801561057457600080fd5b50610325610583366004612ae8565b611c1c565b34801561059457600080fd5b506103256105a3366004612b01565b611c4b565b6103256105b6366004612ba6565b611cac565b3480156105c757600080fd5b506102606105d6366004612bf1565b600b60209081526000928352604080842090915290825290205481565b3480156105ff57600080fd5b5061026061060e36600461287c565b611f67565b34801561061f57600080fd5b506002546102ed906001600160a01b031681565b34801561063f57600080fd5b5061065361064e366004612ae8565b611f96565b60405161026a93929190612c1d565b34801561066e57600080fd5b5061026060075481565b34801561068457600080fd5b5061026060055481565b34801561069a57600080fd5b506106ae6106a936600461287c565b612067565b60405161026a989796959493929190612c52565b3480156106ce57600080fd5b506103256106dd366004612ae8565b612167565b3480156106ee57600080fd5b5061026060065481565b34801561070457600080fd5b506000546102ed9061010090046001600160a01b031681565b34801561072957600080fd5b50610325610738366004612ce2565b612196565b34801561074957600080fd5b50610325610758366004612deb565b612299565b34801561076957600080fd5b50610325610778366004612deb565b61233f565b34801561078957600080fd5b50610325610798366004612ae8565b6123e5565b3480156107a957600080fd5b506103256107b8366004612b01565b612414565b3480156107c957600080fd5b506103256107d8366004612ae8565b612460565b6001546001600160a01b031633146108105760405162461bcd60e51b815260040161080790612e4e565b60405180910390fd5b7f13f4b17ef5086467299cf476d7b3dc951be41f777dfd04d03aefa1bb1641fcd48282604051610841929190612eac565b60405180910390a15050565b600d80546000919061086190600190612ede565b8154811061087157610871612ef1565b60009182526020909120600390910201546001600160a01b0316919050565b60005460ff16156108da5760405162461bcd60e51b815260206004820152601460248201527320b63932b0b23c9034b734ba34b0b634bd32b21760611b6044820152606401610807565b60008054600160ff199091168117825580546001600160a01b0319166001600160a01b038f16179055859060200201356005558460016020020135600655846002602002013560075584600360209081029190910135600855600985905560008054610100600160a81b0319166101006001600160a01b0387160217905561096490870187612b01565b600280546001600160a01b0319166001600160a01b03929092169182179055634a9941746109956020890189612f07565b61099f9080612f27565b6109ac60208b018b612f07565b6109ba906020810190612f27565b6040518563ffffffff1660e01b81526004016109d99493929190612f8c565b6020604051808303816000875af11580156109f8573d6000803e3d6000fd5b505050506040513d601f19601f82011682018060405250810190610a1c9190612fd1565b6003556002546001600160a01b0316634a994174610a3d6040890189612f07565b610a479080612f27565b610a5460408b018b612f07565b610a62906020810190612f27565b6040518563ffffffff1660e01b8152600401610a819493929190613004565b6020604051808303816000875af1158015610aa0573d6000803e3d6000fd5b505050506040513d601f19601f82011682018060405250810190610ac49190612fd1565b600481905550600d60405180606001604052808d6001600160a01b031681526020018c8c8080601f01602080910402602001604051908101604052809392919081815260200183838082843760009201829052509385525050506001600160a01b038c811660209384015284546001808201875595835291839020845160039093020180546001600160a01b03191692909116919091178155908201519192909190820190610b739082613095565b5060409190910151600290910180546001600160a01b0319166001600160a01b03928316179055871615610bd6576040516001600160a01b038816907f344e4755cad3cd67dadc30e884f068430a1d0a62dd5d14a6a062d6e630ec298790600090a25b7f13f4b17ef5086467299cf476d7b3dc951be41f777dfd04d03aefa1bb1641fcd48282604051610c07929190612eac565b60405180910390a1505050505050505050505050565b60008282604051602001610c32929190613154565b60408051601f1981840301815291815281516020928301206000818152600a90935290822090925090815460ff166003811115610c7157610c7161289e565b14610c8e5760405162461bcd60e51b815260040161080790613164565b8060020154600003610cd857817f93e4d3e9542ddd9eea8962241d920b12b96bce26749667189fd06ed3549019e185856000604051610ccf93929190613199565b60405180910390a25b6002810180546000916003840191839182610cf2836131bf565b919050558152602001908152602001600020905060006001600d80549050610d1a9190612ede565b90506000600d8281548110610d3157610d31612ef1565b60009182526020822060039091020154600d80546001600160a01b0390921693509084908110610d6357610d63612ef1565b906000526020600020906003020160010190506000826001600160a01b031663f7434ea9836040518263ffffffff1660e01b8152600401610da49190613255565b602060405180830381865afa158015610dc1573d6000803e3d6000fd5b505050506040513d601f19601f82011682018060405250810190610de59190612fd1565b9050600060055482610df79190613268565b905080341015610e195760405162461bcd60e51b81526004016108079061327b565b60018781018290558754600260ff199091168117895587546bffffffffffffffffffffffff1916610100426001600160401b03160262ffffff60481b191617600160481b62ffffff891602176bffffffffffffffffffffffff1633600160601b0217885588015489917f73057048557c37c893f346985dc1d461cf12b00f09397bb275613203124c2be191610eb491849161060e9190612ede565b60405190815260200160405180910390a280341115610ef357336108fc610edb8334612ede565b6040518115909202916000818181858888f150505050505b50505050505050505050565b6002811115610f485760405162461bcd60e51b815260206004820152601560248201527424b73b30b634b210393ab634b7339037b83a34b7b760591b6044820152606401610807565b336000908152600b60209081526040808320858452825280832054808452600a9092528220600281015491929091610f8290600190612ede565b60008181526003840160209081526040808320878452600c83528184208585529092529091209192509060018082015460ff166002811115610fc657610fc661289e565b1461101d5760405162461bcd60e51b815260206004820152602160248201527f5468652072657175657374206d757374206e6f74206265207265736f6c7665646044820152601760f91b6064820152608401610807565b8154600d8054600092600160481b900462ffffff1690811061104157611041612ef1565b6000918252602090912060039091020180549091506001600160a01b031633146110bb5760405162461bcd60e51b815260206004820152602560248201527f4f6e6c79207468652061726269747261746f722063616e206769766520612072604482015264756c696e6760d81b6064820152608401610807565b604051878152889033907f394027a5fa6e098a1191094d1719d6929b9abc535fcc0c8f448d6a4e756222769060200160405180910390a360008760028111156111065761110661289e565b600184018054600260ff19821681178355929350839261ffff1990911681179061010090849081111561113b5761113b61289e565b02179055506001860180546000918290559082600281111561115f5761115f61289e565b0361121b576002875460ff16600381111561117c5761117c61289e565b1461118857600161118b565b60005b8754889060ff191660018360038111156111a7576111a761289e565b021790555060006111b96002836132b0565b8654604051919250600160601b90046001600160a01b0316906108fc8315029083906000818181858888f150505060018801546040516001600160a01b03909116925083156108fc02915083906000818181858888f193505050505050611324565b600182600281111561122f5761122f61289e565b036112b0576002875460ff16600381111561124c5761124c61289e565b1461125857600061125b565b60015b8754889060ff191660018360038111156112775761127761289e565b02179055508454604051600160601b9091046001600160a01b0316906108fc8315029083906000818181858888f1935050505050611324565b6002875460ff1660038111156112c8576112c861289e565b146112d45760016112d7565b60005b8754889060ff191660018360038111156112f3576112f361289e565b021790555060018501546040516001600160a01b039091169082156108fc029083906000818181858888f150505050505b6040516000815288906000805160206133d68339815191529060200160405180910390a250505050505050505050565b6001546001600160a01b0316331461137e5760405162461bcd60e51b815260040161080790612e4e565b600555565b6001546001600160a01b031633146113ad5760405162461bcd60e51b815260040161080790612e4e565b600080546001600160a01b0390921661010002610100600160a81b0319909216919091179055565b60005461010090046001600160a01b031633146114045760405162461bcd60e51b8152600401610807906132d2565b6000818152600a602052604090206001815460ff16600381111561142a5761142a61289e565b146114475760405162461bcd60e51b815260040161080790613309565b805460ff191681556040516001815282906000805160206133d68339815191529060200160405180910390a25050565b6001546001600160a01b031633146114a15760405162461bcd60e51b815260040161080790612e4e565b600280546001600160a01b0319166001600160a01b0392909216919091179055565b6001546001600160a01b031633146114ed5760405162461bcd60e51b815260040161080790612e4e565b600955565b600d80546060919061150690600190612ede565b8154811061151657611516612ef1565b9060005260206000209060030201600101805461153290613016565b80601f016020809104026020016040519081016040528092919081815260200182805461155e90613016565b80156115ab5780601f10611580576101008083540402835291602001916115ab565b820191906000526020600020905b81548152906001019060200180831161158e57829003601f168201915b5050505050905090565b60005461010090046001600160a01b031633146115e45760405162461bcd60e51b8152600401610807906132d2565b600082826040516020016115f9929190613154565b60408051601f1981840301815291815281516020928301206000818152600a90935290822090925090815460ff1660038111156116385761163861289e565b146116555760405162461bcd60e51b815260040161080790613164565b806002015460000361169f57817f93e4d3e9542ddd9eea8962241d920b12b96bce26749667189fd06ed3549019e18585600160405161169693929190613199565b60405180910390a25b805460ff19166001908117825560405190815282906000805160206133d68339815191529060200160405180910390a250505050565b6000838152600a602052604090206001815460ff1660038111156116fb576116fb61289e565b116117565760405162461bcd60e51b815260206004820152602560248201527f546865206974656d206d757374206861766520612070656e64696e67207265716044820152643ab2b9ba1760d91b6064820152608401610807565b6000600182600201546117699190612ede565b600081815260038401602052604090206009548154929350909161179b9061010090046001600160401b031642612ede565b11156118045760405162461bcd60e51b815260206004820152603260248201527f4368616c6c656e676573206d757374206f6363757220647572696e67207468656044820152711031b430b63632b733b2903832b934b7b21760711b6064820152608401610807565b6000868152600c60209081526040808320858452909152812090600182015460ff1660028111156118375761183761289e565b1461189f5760405162461bcd60e51b815260206004820152603260248201527f54686520726571756573742073686f756c64206e6f74206861766520616c726560448201527130b23c903132b2b7103234b9b83aba32b21760711b6064820152608401610807565b8154600d8054600092600160481b900462ffffff169081106118c3576118c3612ef1565b600091825260208220600390910201805460405163f7434ea960e01b81529193506001600160a01b03169190829063f7434ea990611908906001870190600401613255565b602060405180830381865afa158015611925573d6000803e3d6000fd5b505050506040513d601f19601f820116820180604052508101906119499190612fd1565b90506000806002895460ff1660038111156119665761196661289e565b1461197357600854611977565b6007545b90506119838184613268565b915050803410156119e15760405162461bcd60e51b815260206004820152602260248201527f596f75206d7573742066756c6c792066756e6420746865206368616c6c656e67604482015261329760f11b6064820152608401610807565b818189600101546119f29190613268565b6119fc9190612ede565b6001808a019190915586810180546001600160a01b0319163317905560405163c13517e160e01b81526001600160a01b0385169163c13517e1918591611a4a916002918a019060040161334f565b60206040518083038185885af1158015611a68573d6000803e3d6000fd5b50505050506040513d601f19601f82011682018060405250810190611a8d9190612fd1565b8086556001808701805460ff191690911790556001600160a01b0384166000908152600b602090815260408083209383529290529081208c9055611ad18c89611f67565b9050600080885460ff166001811115611aec57611aec61289e565b14611af957600454611afd565b6003545b90508660000154856001600160a01b03167f8bd32f430ff060e6bd204709b3790c9807987263d3230c580dc80b5f89e271868484604051611b57929190918252602082015260606040820181905260009082015260800190565b60405180910390a38a15611bdf578560020160009054906101000a90046001600160a01b03166001600160a01b031663a6a7f0eb838e8e6040518463ffffffff1660e01b8152600401611bac93929190613368565b600060405180830381600087803b158015611bc657600080fd5b505af1158015611bda573d6000803e3d6000fd5b505050505b82341115611c0d57336108fc611bf58534612ede565b6040518115909202916000818181858888f150505050505b50505050505050505050505050565b6001546001600160a01b03163314611c465760405162461bcd60e51b815260040161080790612e4e565b600655565b6001546001600160a01b03163314611c755760405162461bcd60e51b815260040161080790612e4e565b6040516001600160a01b038216907f344e4755cad3cd67dadc30e884f068430a1d0a62dd5d14a6a062d6e630ec298790600090a250565b6000838152600a602052604090206001815460ff166003811115611cd257611cd261289e565b14611cef5760405162461bcd60e51b815260040161080790613309565b6002810180546000916003840191839182611d09836131bf565b919050558152602001908152602001600020905060006001600d80549050611d319190612ede565b90506000600d8281548110611d4857611d48612ef1565b600091825260208220600390910201805460405163f7434ea960e01b81529193506001600160a01b03169190829063f7434ea990611d8d906001870190600401613255565b602060405180830381865afa158015611daa573d6000803e3d6000fd5b505050506040513d601f19601f82011682018060405250810190611dce9190612fd1565b9050600060065482611de09190613268565b905080341015611e025760405162461bcd60e51b81526004016108079061327b565b60018781018290558754600360ff1991821617895587546bffffffffffffffffffffff001916610100426001600160401b03160262ffffff60481b191617600160481b62ffffff891602176bffffffffffffffffffffff001633600160601b0290911617811787556002880154600091611e81918d9161060e91612ede565b90508a7f73057048557c37c893f346985dc1d461cf12b00f09397bb275613203124c2be182604051611eb591815260200190565b60405180910390a28815611f2c57600285015460405163a6a7f0eb60e01b81526001600160a01b039091169063a6a7f0eb90611ef99084908e908e90600401613368565b600060405180830381600087803b158015611f1357600080fd5b505af1158015611f27573d6000803e3d6000fd5b505050505b81341115611f5a57336108fc611f428434612ede565b6040518115909202916000818181858888f150505050505b5050505050505050505050565b604080516020808201859052818301849052825180830384018152606090920190925280519101205b92915050565b600d8181548110611fa657600080fd5b6000918252602090912060039091020180546001820180546001600160a01b03909216935090611fd590613016565b80601f016020809104026020016040519081016040528092919081815260200182805461200190613016565b801561204e5780601f106120235761010080835404028352916020019161204e565b820191906000526020600020905b81548152906001019060200180831161203157829003601f168201915b505050600290930154919250506001600160a01b031683565b60008060008061207561285e565b6000878152600a60205260408120600281015482916060918a106120d55760405162461bcd60e51b81526020600482015260176024820152762932b8bab2b9ba103237b2b9903737ba1032bc34b9ba1760491b6044820152606401610807565b60008b8152600a602090815260408083208d845260030182529182902080546001600160a01b03600160601b82048116938a01939093526001820154909216928801929092526001600160401b036101009091041697506121368c8c6126b2565b919b50995094506121478c8c612708565b90945092506121568c8c61280d565b965050509295985092959890939650565b6001546001600160a01b031633146121915760405162461bcd60e51b815260040161080790612e4e565b600755565b6001546001600160a01b031633146121c05760405162461bcd60e51b815260040161080790612e4e565b600d6040518060600160405280866001600160a01b0316815260200185858080601f01602080910402602001604051908101604052809392919081815260200183838082843760009201829052509385525050506001600160a01b0385811660209384015284546001808201875595835291839020845160039093020180546001600160a01b031916929091169190911781559082015191929091908201906122699082613095565b5060409190910151600290910180546001600160a01b0319166001600160a01b0390921691909117905550505050565b6001546001600160a01b031633146122c35760405162461bcd60e51b815260040161080790612e4e565b6002546040516312a6505d60e21b81526001600160a01b0390911690634a994174906122f5908590859060040161338b565b6020604051808303816000875af1158015612314573d6000803e3d6000fd5b505050506040513d601f19601f820116820180604052508101906123389190612fd1565b6004555050565b6001546001600160a01b031633146123695760405162461bcd60e51b815260040161080790612e4e565b6002546040516312a6505d60e21b81526001600160a01b0390911690634a9941749061239b90859085906004016133c3565b6020604051808303816000875af11580156123ba573d6000803e3d6000fd5b505050506040513d601f19601f820116820180604052508101906123de9190612fd1565b6003555050565b6001546001600160a01b0316331461240f5760405162461bcd60e51b815260040161080790612e4e565b600855565b6001546001600160a01b0316331461243e5760405162461bcd60e51b815260040161080790612e4e565b600180546001600160a01b0319166001600160a01b0392909216919091179055565b6000818152600a60205260408120600281015490919061248290600190612ede565b60008181526003840160205260409020600954815492935090916124b49061010090046001600160401b031642612ede565b116125125760405162461bcd60e51b815260206004820152602860248201527f54696d6520746f206368616c6c656e6765207468652072657175657374206d7560448201526739ba103830b9b99760c11b6064820152608401610807565b6000848152600c60209081526040808320858452909152812090600182015460ff1660028111156125455761254561289e565b1461259e5760405162461bcd60e51b815260206004820152602360248201527f54686520726571756573742073686f756c64206e6f742062652064697370757460448201526232b21760e91b6064820152608401610807565b6002845460ff1660038111156125b6576125b661289e565b036125d3578354600190859060ff191682805b0217905550612646565b6003845460ff1660038111156125eb576125eb61289e565b03612603578354600090859060ff19166001836125c9565b60405162461bcd60e51b81526020600482015260186024820152772a3432b9329036bab9ba1031329030903932b8bab2b9ba1760411b6044820152606401610807565b6040516000815285906000805160206133d68339815191529060200160405180910390a2600184018054600090915580156126aa578254604051600160601b9091046001600160a01b0316906108fc8315029083906000818181858888f150505050505b505050505050565b6000828152600c6020908152604080832084845290915281208190819060018082015460ff1660028111156126e9576126e961289e565b825460019093015491111597919650610100900460ff16945092505050565b6000828152600a6020908152604080832084845260030190915281208054600d805460609392859291600160481b90910462ffffff1690811061274d5761274d612ef1565b6000918252602090912060039091020180546001820180549293506001600160a01b0390911691819061277f90613016565b80601f01602080910402602001604051908101604052809291908181526020018280546127ab90613016565b80156127f85780601f106127cd576101008083540402835291602001916127f8565b820191906000526020600020905b8154815290600101906020018083116127db57829003601f168201915b505050505090509350935050505b9250929050565b6000828152600a6020526040812060028101548203612830576000915050611f90565b600181600201546128419190612ede565b831015612852576001915050611f90565b60010154159392505050565b60405180606001604052806003906020820280368337509192915050565b6000806040838503121561288f57600080fd5b50508035926020909101359150565b634e487b7160e01b600052602160045260246000fd5b600381106128c4576128c461289e565b50565b6128d0816128b4565b9052565b838152606081016128e4846128b4565b8360208301526128f3836128b4565b826040830152949350505050565b60008083601f84011261291357600080fd5b5081356001600160401b0381111561292a57600080fd5b60208301915083602082850101111561280657600080fd5b6000806020838503121561295557600080fd5b82356001600160401b0381111561296b57600080fd5b61297785828601612901565b90969095509350505050565b6001600160a01b03811681146128c457600080fd5b80356129a381612983565b919050565b6000606082840312156129ba57600080fd5b50919050565b8060808101831015611f9057600080fd5b6000806000806000806000806000806000806101a08d8f0312156129f457600080fd5b6129fd8d612998565b9b50612a0b60208e01612998565b9a506001600160401b0360408e01351115612a2557600080fd5b612a358e60408f01358f01612901565b909a509850612a4660608e01612998565b9750612a5460808e01612998565b96506001600160401b0360a08e01351115612a6e57600080fd5b612a7e8e60a08f01358f016129a8565b9550612a8d8e60c08f016129c0565b94506101408d01359350612aa46101608e01612998565b92506001600160401b036101808e01351115612abf57600080fd5b612ad08e6101808f01358f01612901565b81935080925050509295989b509295989b509295989b565b600060208284031215612afa57600080fd5b5035919050565b600060208284031215612b1357600080fd5b8135612b1e81612983565b9392505050565b6060810160048510612b3957612b3961289e565b938152602081019290925260409091015290565b6000815180845260005b81811015612b7357602081850181015186830182015201612b57565b506000602082860101526020601f19601f83011685010191505092915050565b602081526000612b1e6020830184612b4d565b600080600060408486031215612bbb57600080fd5b8335925060208401356001600160401b03811115612bd857600080fd5b612be486828701612901565b9497909650939450505050565b60008060408385031215612c0457600080fd5b8235612c0f81612983565b946020939093013593505050565b600060018060a01b03808616835260606020840152612c3f6060840186612b4d565b9150808416604084015250949350505050565b60006101408a1515835260208a818501528960408501528815156060850152608084018860005b6003811015612c9f5781516001600160a01b031683529183019190830190600101612c79565b50505050612cb060e08401876128c7565b6001600160a01b03851661010084015280610120840152612cd381840185612b4d565b9b9a5050505050505050505050565b60008060008060608587031215612cf857600080fd5b8435612d0381612983565b935060208501356001600160401b03811115612d1e57600080fd5b612d2a87828801612901565b9094509250506040850135612d3e81612983565b939692955090935050565b634e487b7160e01b600052604160045260246000fd5b600082601f830112612d7057600080fd5b81356001600160401b0380821115612d8a57612d8a612d49565b604051601f8301601f19908116603f01168101908282118183101715612db257612db2612d49565b81604052838152866020858801011115612dcb57600080fd5b836020870160208301376000602085830101528094505050505092915050565b60008060408385031215612dfe57600080fd5b82356001600160401b0380821115612e1557600080fd5b612e2186838701612d5f565b93506020850135915080821115612e3757600080fd5b50612e4485828601612d5f565b9150509250929050565b6020808252818101527f5468652063616c6c6572206d7573742062652074686520676f7665726e6f722e604082015260600190565b81835281816020850137506000828201602090810191909152601f909101601f19169091010190565b602081526000612ec0602083018486612e83565b949350505050565b634e487b7160e01b600052601160045260246000fd5b81810381811115611f9057611f90612ec8565b634e487b7160e01b600052603260045260246000fd5b60008235603e19833603018112612f1d57600080fd5b9190910192915050565b6000808335601e19843603018112612f3e57600080fd5b8301803591506001600160401b03821115612f5857600080fd5b60200191503681900382131561280657600080fd5b600c81526b2932b3b4b9ba3930ba34b7b760a11b602082015260400190565b606081526000612f9e60608301612f6d565b8281036020840152612fb1818789612e83565b90508281036040840152612fc6818587612e83565b979650505050505050565b600060208284031215612fe357600080fd5b5051919050565b600781526614995b5bdd985b60ca1b602082015260400190565b606081526000612f9e60608301612fea565b600181811c9082168061302a57607f821691505b6020821081036129ba57634e487b7160e01b600052602260045260246000fd5b601f82111561309057600081815260208120601f850160051c810160208610156130715750805b601f850160051c820191505b818110156126aa5782815560010161307d565b505050565b81516001600160401b038111156130ae576130ae612d49565b6130c2816130bc8454613016565b8461304a565b602080601f8311600181146130f757600084156130df5750858301515b600019600386901b1c1916600185901b1785556126aa565b600085815260208120601f198616915b8281101561312657888601518255948401946001909101908401613107565b50858210156131445787850151600019600388901b60f8161c191681555b5050505050600190811b01905550565b8183823760009101908152919050565b6020808252818101527f4974656d206d75737420626520616273656e7420746f2062652061646465642e604082015260600190565b6040815260006131ad604083018587612e83565b90508215156020830152949350505050565b6000600182016131d1576131d1612ec8565b5060010190565b600081546131e581613016565b808552602060018381168015613202576001811461321c5761324a565b60ff1985168884015283151560051b88018301955061324a565b866000528260002060005b858110156132425781548a8201860152908301908401613227565b890184019650505b505050505092915050565b602081526000612b1e60208301846131d8565b80820180821115611f9057611f90612ec8565b6020808252818101527f596f75206d7573742066756c6c792066756e642074686520726571756573742e604082015260600190565b6000826132cd57634e487b7160e01b600052601260045260246000fd5b500490565b6020808252601d908201527f5468652063616c6c6572206d757374206265207468652072656c61792e000000604082015260600190565b60208082526026908201527f4974656d206d757374206265207265676973746572656420746f20626520726560408201526536b7bb32b21760d11b606082015260800190565b828152604060208201526000612ec060408301846131d8565b838152604060208201526000613382604083018486612e83565b95945050505050565b60608152600061339d60608301612fea565b82810360208401526133af8186612b4d565b905082810360408401526133828185612b4d565b60608152600061339d60608301612f6d56fed768d67a683a3f5110d48ee5af827e22f4f36d017d764d3bfb11982492b19536a26469706673582212207eca357ce888e1266ff5bfb97a59f33001ae715ec11684489ecdd3aa965b660064736f6c63430008120033",
  "devdoc": {
    "events": {
      "ConnectedListSet(address)": {
        "details": "Emitted when the address of the connected Curate contract is set. The Curate is an instance of the Curate contract where each item is the address of a Curate contract related to this one.",
        "params": {
          "_connectedList": "The address of the connected Curate."
        }
      },
      "DisputeRequest(address,uint256,uint256,uint256,string)": {
        "details": "To be emitted when a dispute is created to link the correct meta-evidence to the disputeID.",
        "params": {
          "_arbitrableDisputeID": "The identifier of the dispute in the Arbitrable contract.",
          "_arbitrator": "The arbitrator of the contract.",
          "_externalDisputeID": "An identifier created outside Kleros by the protocol requesting arbitration.",
          "_templateId": "The identifier of the dispute template. Should not be used with _templateUri.",
          "_templateUri": "The URI to the dispute template. For example on IPFS: starting with '/ipfs/'. Should not be used with _templateId."
        }
      },
      "ItemStatusChange(bytes32,bool)": {
        "details": "Emitted when a party makes a request, raises a dispute or when a request is resolved.",
        "params": {
          "_itemID": "The ID of the affected item.",
          "_updatedDirectly": "Whether this was emitted in either `addItemDirectly` or `removeItemDirectly`. This is used in the subgraph."
        }
      },
      "ListMetadataSet(string)": {
        "details": "Emitted when the list metadata ipfs uri is updated.",
        "params": {
          "_listMetadata": "Ipfs uri to list metadata."
        }
      },
      "NewItem(bytes32,string,bool)": {
        "details": "Emitted when someone submits an item for the first time.",
        "params": {
          "_addedDirectly": "Whether the item was added via `addItemDirectly`.",
          "_data": "Stringified JSON Object containing item data. Example at :- https://cloudflare-ipfs.com/ipfs/QmTypFX9416z5V87Fsnf6A89rrskh2X8BSVdaKhwzXNiDb/item.json.",
          "_itemID": "The ID of the new item."
        }
      },
      "RequestSubmitted(bytes32,uint256)": {
        "details": "Emitted when someone submits a request.",
        "params": {
          "_itemID": "The ID of the affected item.",
          "_requestID": "Unique dispute identifier within this contract."
        }
      },
      "Ruling(address,uint256,uint256)": {
        "details": "To be raised when a ruling is given.",
        "params": {
          "_arbitrator": "The arbitrator giving the ruling.",
          "_disputeID": "The identifier of the dispute in the Arbitrator contract.",
          "_ruling": "The ruling which was given."
        }
      }
    },
    "kind": "dev",
    "methods": {
      "addItem(string)": {
        "details": "Submit a request to register an item. Accepts enough ETH to cover the deposit, reimburses the rest.",
        "params": {
          "_item": "Stringified JSON object containing item data. Example at :- https://cloudflare-ipfs.com/ipfs/QmTypFX9416z5V87Fsnf6A89rrskh2X8BSVdaKhwzXNiDb/item.json"
        }
      },
      "addItemDirectly(string)": {
        "details": "Directly add an item to the list bypassing request-challenge. Can only be used by the relayer contract.",
        "params": {
          "_item": "Stringified JSON Object containing Item data"
        }
      },
      "challengeRequest(bytes32,string)": {
        "details": "Challenges the request of the item. Accepts enough ETH to cover the deposit, reimburses the rest.",
        "params": {
          "_evidence": "A link to evidence using its URI.",
          "_itemID": "The ID of the item which request to challenge."
        }
      },
      "changeArbitrationParams(address,bytes,address)": {
        "params": {
          "_arbitrator": "Arbitrator to resolve potential disputes. The arbitrator is trusted to support appeal periods and not reenter.",
          "_arbitratorExtraData": "Extra data for the trusted arbitrator contract.",
          "_evidenceModule": "The evidence module for the arbitrator."
        }
      },
      "changeChallengePeriodDuration(uint256)": {
        "details": "Change the duration of the challenge period.",
        "params": {
          "_challengePeriodDuration": "The new duration of the challenge period."
        }
      },
      "changeConnectedList(address)": {
        "details": "Change the address of connectedList, the Curate instance that stores addresses of Curate contracts related to this one.",
        "params": {
          "_connectedList": "The address of the connectedList contract to use."
        }
      },
      "changeGovernor(address)": {
        "details": "Change the governor of the curated registry.",
        "params": {
          "_governor": "The address of the new governor."
        }
      },
      "changeListMetadata(string)": {
        "details": "Update list metadata ipfs uri.",
        "params": {
          "_listMetadata": "Ipfs uri to list metadata"
        }
      },
      "changeRegistrationDisputeTemplate(string,string)": {
        "details": "Changes the dispute template for registration requests.",
        "params": {
          "_templateData": "The new template data for registration requests.",
          "_templateDataMappings": "The new data mappings json for registration requests."
        }
      },
      "changeRelayerContract(address)": {
        "details": "Change the address of the relay contract.",
        "params": {
          "_relayerContract": "The new address of the relay contract."
        }
      },
      "changeRemovalBaseDeposit(uint256)": {
        "details": "Change the base amount required as a deposit to remove an item.",
        "params": {
          "_removalBaseDeposit": "The new base amount of wei required to remove an item."
        }
      },
      "changeRemovalChallengeBaseDeposit(uint256)": {
        "details": "Change the base amount required as a deposit to challenge a removal request.",
        "params": {
          "_removalChallengeBaseDeposit": "The new base amount of wei required to challenge a removal request."
        }
      },
      "changeRemovalDisputeTemplate(string,string)": {
        "details": "Changes the dispute template for removal requests.",
        "params": {
          "_templateData": "The new template data for removal requests.",
          "_templateDataMappings": "The new data mappings json for removal requests."
        }
      },
      "changeSubmissionBaseDeposit(uint256)": {
        "details": "Change the base amount required as a deposit to submit an item.",
        "params": {
          "_submissionBaseDeposit": "The new base amount of wei required to submit an item."
        }
      },
      "changeSubmissionChallengeBaseDeposit(uint256)": {
        "details": "Change the base amount required as a deposit to challenge a submission.",
        "params": {
          "_submissionChallengeBaseDeposit": "The new base amount of wei required to challenge a submission."
        }
      },
      "changeTemplateRegistry(address)": {
        "details": "Changes the address of Template Registry contract.",
        "params": {
          "_templateRegistry": "The new template registry."
        }
      },
      "executeRequest(bytes32)": {
        "details": "Executes an unchallenged request if the challenge period has passed.",
        "params": {
          "_itemID": "The ID of the item to execute."
        }
      },
      "getArbitrator()": {
        "details": "Gets the latest value in arbitrationParamsChanges.",
        "returns": {
          "_0": "The arbitrator address."
        }
      },
      "getArbitratorExtraData()": {
        "details": "Gets the latest value in arbitrationParamsChanges.",
        "returns": {
          "_0": "The arbitrator extra data."
        }
      },
      "getItemInfo(bytes32)": {
        "details": "Returns item's information. Includes the total number of requests for the item",
        "params": {
          "_itemID": "The ID of the queried item."
        },
        "returns": {
          "numberOfRequests": "Total number of requests for the item.",
          "status": "The current status of the item.",
          "sumDeposit": "The total deposit made by the requester and the challenger (if any)"
        }
      },
      "getRequestID(bytes32,uint256)": {
        "params": {
          "_itemID": "The ID of the item.",
          "_requestID": "The ID of the request."
        },
        "returns": {
          "_0": "Local dispute ID."
        }
      },
      "getRequestInfo(bytes32,uint256)": {
        "details": "Gets information on a request made for the item.",
        "params": {
          "_itemID": "The ID of the queried item.",
          "_requestID": "The request to be queried."
        },
        "returns": {
          "disputeID": "ID of the dispute, if any.",
          "disputed": "True if a dispute was raised.",
          "parties": "Address of requester and challenger, if any.",
          "requestArbitrator": "The arbitrator trusted to solve disputes for this request.",
          "requestArbitratorExtraData": "The extra data for the trusted arbitrator of this request.",
          "resolved": "True if the request was executed and/or any raised disputes were resolved.",
          "ruling": "The final ruling given, if any.",
          "submissionTime": "Time when the request was made."
        }
      },
      "initialize(address,address,bytes,address,address,(address,string[2],string[2]),uint256[4],uint256,address,string)": {
        "details": "Initialize the arbitrable curated registry.",
        "params": {
          "_arbitrator": "Arbitrator to resolve potential disputes. The arbitrator is trusted to support appeal periods and not reenter.",
          "_arbitratorExtraData": "Extra data for the trusted arbitrator contract.",
          "_baseDeposits": "The base deposits for requests/challenges as follows: - The base deposit to submit an item. - The base deposit to remove an item. - The base deposit to challenge a submission. - The base deposit to challenge a removal request.",
          "_challengePeriodDuration": "The time in seconds parties have to challenge a request.",
          "_connectedList": "The address of the Curate contract that stores related Curate addresses. This parameter can be left empty.",
          "_evidenceModule": "The evidence contract for the arbitrator.",
          "_governor": "The trusted governor of this contract.",
          "_listMetadata": "Stringified JSON object containing list metadata (title, description, isListOfLists, etc.). Example at :-  https://cloudflare-ipfs.com/ipfs/QmekLsbXtQfm2jJjdeC5TF1cJcr5qxarZ9bhKmCS9s3ebK/list-metadata.json",
          "_relayerContract": "The address of the relayer contract to add/remove items directly.",
          "_templateRegistryParams": "The dispute template registry. - templateRegistry : The dispute template registry. - registrationTemplateParameters : Template and data mappings json for registration requests. - removalTemplateParameters : Template and data mappings json for removal requests."
        }
      },
      "removeItem(bytes32,string)": {
        "details": "Submit a request to remove an item from the list. Accepts enough ETH to cover the deposit, reimburses the rest.",
        "params": {
          "_evidence": "A link to evidence using its URI.",
          "_itemID": "The ID of the item to remove."
        }
      },
      "removeItemDirectly(bytes32)": {
        "details": "Directly remove an item from the list bypassing request-challenge. Can only be used by the relayer contract.",
        "params": {
          "_itemID": "The ID of the item to remove. Example at :- https://cloudflare-ipfs.com/ipfs/QmTypFX9416z5V87Fsnf6A89rrskh2X8BSVdaKhwzXNiDb/item.json"
        }
      },
      "rule(uint256,uint256)": {
        "details": "Give a ruling for a dispute. Can only be called by the arbitrator. TRUSTED.",
        "params": {
          "_disputeID": "ID of the dispute in the arbitrator contract.",
          "_ruling": "Ruling given by the arbitrator. Note that 0 is reserved for \"Refused to arbitrate\"."
        }
      }
    },
    "title": "Curate Curated registry contract compatible with V2. The V1 version is here https://github.com/kleros/tcr/blob/master/contracts/LightGeneralizedTCR.sol",
    "version": 1
  },
  "userdoc": {
    "kind": "user",
    "methods": {
      "changeArbitrationParams(address,bytes,address)": {
        "notice": "Changes the params related to arbitration."
      },
      "getArbitrator()": {
        "notice": "Gets the arbitrator for new requests."
      },
      "getArbitratorExtraData()": {
        "notice": "Gets the arbitratorExtraData for new requests."
      },
      "getRequestID(bytes32,uint256)": {
        "notice": "Gets the local dispute ID for a given item and request."
      }
    },
    "version": 1
  },
  "storageLayout": {
    "storage": [
      {
        "astId": 951,
        "contract": "src/CurateV2.sol:CurateV2",
        "label": "initialized",
        "offset": 0,
        "slot": "0",
        "type": "t_bool"
      },
      {
        "astId": 956,
        "contract": "src/CurateV2.sol:CurateV2",
        "label": "relayerContract",
        "offset": 1,
        "slot": "0",
        "type": "t_address"
      },
      {
        "astId": 958,
        "contract": "src/CurateV2.sol:CurateV2",
        "label": "governor",
        "offset": 0,
        "slot": "1",
        "type": "t_address"
      },
      {
        "astId": 961,
        "contract": "src/CurateV2.sol:CurateV2",
        "label": "templateRegistry",
        "offset": 0,
        "slot": "2",
        "type": "t_contract(IDisputeTemplateRegistry)236"
      },
      {
        "astId": 963,
        "contract": "src/CurateV2.sol:CurateV2",
        "label": "templateIdRegistration",
        "offset": 0,
        "slot": "3",
        "type": "t_uint256"
      },
      {
        "astId": 965,
        "contract": "src/CurateV2.sol:CurateV2",
        "label": "templateIdRemoval",
        "offset": 0,
        "slot": "4",
        "type": "t_uint256"
      },
      {
        "astId": 967,
        "contract": "src/CurateV2.sol:CurateV2",
        "label": "submissionBaseDeposit",
        "offset": 0,
        "slot": "5",
        "type": "t_uint256"
      },
      {
        "astId": 969,
        "contract": "src/CurateV2.sol:CurateV2",
        "label": "removalBaseDeposit",
        "offset": 0,
        "slot": "6",
        "type": "t_uint256"
      },
      {
        "astId": 971,
        "contract": "src/CurateV2.sol:CurateV2",
        "label": "submissionChallengeBaseDeposit",
        "offset": 0,
        "slot": "7",
        "type": "t_uint256"
      },
      {
        "astId": 973,
        "contract": "src/CurateV2.sol:CurateV2",
        "label": "removalChallengeBaseDeposit",
        "offset": 0,
        "slot": "8",
        "type": "t_uint256"
      },
      {
        "astId": 975,
        "contract": "src/CurateV2.sol:CurateV2",
        "label": "challengePeriodDuration",
        "offset": 0,
        "slot": "9",
        "type": "t_uint256"
      },
      {
        "astId": 980,
        "contract": "src/CurateV2.sol:CurateV2",
        "label": "items",
        "offset": 0,
        "slot": "10",
        "type": "t_mapping(t_bytes32,t_struct(Item)908_storage)"
      },
      {
        "astId": 986,
        "contract": "src/CurateV2.sol:CurateV2",
        "label": "arbitratorDisputeIDToItemID",
        "offset": 0,
        "slot": "11",
        "type": "t_mapping(t_address,t_mapping(t_uint256,t_bytes32))"
      },
      {
        "astId": 993,
        "contract": "src/CurateV2.sol:CurateV2",
        "label": "requestsDisputeData",
        "offset": 0,
        "slot": "12",
        "type": "t_mapping(t_bytes32,t_mapping(t_uint256,t_struct(DisputeData)929_storage))"
      },
      {
        "astId": 997,
        "contract": "src/CurateV2.sol:CurateV2",
        "label": "arbitrationParamsChanges",
        "offset": 0,
        "slot": "13",
        "type": "t_array(t_struct(ArbitrationParams)938_storage)dyn_storage"
      }
    ],
    "types": {
      "t_address": {
        "encoding": "inplace",
        "label": "address",
        "numberOfBytes": "20"
      },
      "t_address_payable": {
        "encoding": "inplace",
        "label": "address payable",
        "numberOfBytes": "20"
      },
      "t_array(t_struct(ArbitrationParams)938_storage)dyn_storage": {
        "base": "t_struct(ArbitrationParams)938_storage",
        "encoding": "dynamic_array",
        "label": "struct CurateV2.ArbitrationParams[]",
        "numberOfBytes": "32"
      },
      "t_bool": {
        "encoding": "inplace",
        "label": "bool",
        "numberOfBytes": "1"
      },
      "t_bytes32": {
        "encoding": "inplace",
        "label": "bytes32",
        "numberOfBytes": "32"
      },
      "t_bytes_storage": {
        "encoding": "bytes",
        "label": "bytes",
        "numberOfBytes": "32"
      },
      "t_contract(EvidenceModule)75": {
        "encoding": "inplace",
        "label": "contract EvidenceModule",
        "numberOfBytes": "20"
      },
      "t_contract(IArbitratorV2)210": {
        "encoding": "inplace",
        "label": "contract IArbitratorV2",
        "numberOfBytes": "20"
      },
      "t_contract(IDisputeTemplateRegistry)236": {
        "encoding": "inplace",
        "label": "contract IDisputeTemplateRegistry",
        "numberOfBytes": "20"
      },
      "t_enum(DisputeStatus)895": {
        "encoding": "inplace",
        "label": "enum CurateV2.DisputeStatus",
        "numberOfBytes": "1"
      },
      "t_enum(Party)888": {
        "encoding": "inplace",
        "label": "enum CurateV2.Party",
        "numberOfBytes": "1"
      },
      "t_enum(RequestType)891": {
        "encoding": "inplace",
        "label": "enum CurateV2.RequestType",
        "numberOfBytes": "1"
      },
      "t_enum(Status)884": {
        "encoding": "inplace",
        "label": "enum CurateV2.Status",
        "numberOfBytes": "1"
      },
      "t_mapping(t_address,t_mapping(t_uint256,t_bytes32))": {
        "encoding": "mapping",
        "key": "t_address",
        "label": "mapping(address => mapping(uint256 => bytes32))",
        "numberOfBytes": "32",
        "value": "t_mapping(t_uint256,t_bytes32)"
      },
      "t_mapping(t_bytes32,t_mapping(t_uint256,t_struct(DisputeData)929_storage))": {
        "encoding": "mapping",
        "key": "t_bytes32",
        "label": "mapping(bytes32 => mapping(uint256 => struct CurateV2.DisputeData))",
        "numberOfBytes": "32",
        "value": "t_mapping(t_uint256,t_struct(DisputeData)929_storage)"
      },
      "t_mapping(t_bytes32,t_struct(Item)908_storage)": {
        "encoding": "mapping",
        "key": "t_bytes32",
        "label": "mapping(bytes32 => struct CurateV2.Item)",
        "numberOfBytes": "32",
        "value": "t_struct(Item)908_storage"
      },
      "t_mapping(t_uint256,t_bytes32)": {
        "encoding": "mapping",
        "key": "t_uint256",
        "label": "mapping(uint256 => bytes32)",
        "numberOfBytes": "32",
        "value": "t_bytes32"
      },
      "t_mapping(t_uint256,t_struct(DisputeData)929_storage)": {
        "encoding": "mapping",
        "key": "t_uint256",
        "label": "mapping(uint256 => struct CurateV2.DisputeData)",
        "numberOfBytes": "32",
        "value": "t_struct(DisputeData)929_storage"
      },
      "t_mapping(t_uint256,t_struct(Request)920_storage)": {
        "encoding": "mapping",
        "key": "t_uint256",
        "label": "mapping(uint256 => struct CurateV2.Request)",
        "numberOfBytes": "32",
        "value": "t_struct(Request)920_storage"
      },
      "t_struct(ArbitrationParams)938_storage": {
        "encoding": "inplace",
        "label": "struct CurateV2.ArbitrationParams",
        "members": [
          {
            "astId": 932,
            "contract": "src/CurateV2.sol:CurateV2",
            "label": "arbitrator",
            "offset": 0,
            "slot": "0",
            "type": "t_contract(IArbitratorV2)210"
          },
          {
            "astId": 934,
            "contract": "src/CurateV2.sol:CurateV2",
            "label": "arbitratorExtraData",
            "offset": 0,
            "slot": "1",
            "type": "t_bytes_storage"
          },
          {
            "astId": 937,
            "contract": "src/CurateV2.sol:CurateV2",
            "label": "evidenceModule",
            "offset": 0,
            "slot": "2",
            "type": "t_contract(EvidenceModule)75"
          }
        ],
        "numberOfBytes": "96"
      },
      "t_struct(DisputeData)929_storage": {
        "encoding": "inplace",
        "label": "struct CurateV2.DisputeData",
        "members": [
          {
            "astId": 922,
            "contract": "src/CurateV2.sol:CurateV2",
            "label": "disputeID",
            "offset": 0,
            "slot": "0",
            "type": "t_uint256"
          },
          {
            "astId": 925,
            "contract": "src/CurateV2.sol:CurateV2",
            "label": "status",
            "offset": 0,
            "slot": "1",
            "type": "t_enum(DisputeStatus)895"
          },
          {
            "astId": 928,
            "contract": "src/CurateV2.sol:CurateV2",
            "label": "ruling",
            "offset": 1,
            "slot": "1",
            "type": "t_enum(Party)888"
          }
        ],
        "numberOfBytes": "64"
      },
      "t_struct(Item)908_storage": {
        "encoding": "inplace",
        "label": "struct CurateV2.Item",
        "members": [
          {
            "astId": 898,
            "contract": "src/CurateV2.sol:CurateV2",
            "label": "status",
            "offset": 0,
            "slot": "0",
            "type": "t_enum(Status)884"
          },
          {
            "astId": 900,
            "contract": "src/CurateV2.sol:CurateV2",
            "label": "sumDeposit",
            "offset": 0,
            "slot": "1",
            "type": "t_uint256"
          },
          {
            "astId": 902,
            "contract": "src/CurateV2.sol:CurateV2",
            "label": "requestCount",
            "offset": 0,
            "slot": "2",
            "type": "t_uint256"
          },
          {
            "astId": 907,
            "contract": "src/CurateV2.sol:CurateV2",
            "label": "requests",
            "offset": 0,
            "slot": "3",
            "type": "t_mapping(t_uint256,t_struct(Request)920_storage)"
          }
        ],
        "numberOfBytes": "128"
      },
      "t_struct(Request)920_storage": {
        "encoding": "inplace",
        "label": "struct CurateV2.Request",
        "members": [
          {
            "astId": 911,
            "contract": "src/CurateV2.sol:CurateV2",
            "label": "requestType",
            "offset": 0,
            "slot": "0",
            "type": "t_enum(RequestType)891"
          },
          {
            "astId": 913,
            "contract": "src/CurateV2.sol:CurateV2",
            "label": "submissionTime",
            "offset": 1,
            "slot": "0",
            "type": "t_uint64"
          },
          {
            "astId": 915,
            "contract": "src/CurateV2.sol:CurateV2",
            "label": "arbitrationParamsIndex",
            "offset": 9,
            "slot": "0",
            "type": "t_uint24"
          },
          {
            "astId": 917,
            "contract": "src/CurateV2.sol:CurateV2",
            "label": "requester",
            "offset": 12,
            "slot": "0",
            "type": "t_address_payable"
          },
          {
            "astId": 919,
            "contract": "src/CurateV2.sol:CurateV2",
            "label": "challenger",
            "offset": 0,
            "slot": "1",
            "type": "t_address_payable"
          }
        ],
        "numberOfBytes": "64"
      },
      "t_uint24": {
        "encoding": "inplace",
        "label": "uint24",
        "numberOfBytes": "3"
      },
      "t_uint256": {
        "encoding": "inplace",
        "label": "uint256",
        "numberOfBytes": "32"
      },
      "t_uint64": {
        "encoding": "inplace",
        "label": "uint64",
        "numberOfBytes": "8"
      }
    }
  }
}