{
  "address": "0x7d557d86Cb33A397A9C7CDd948CD006Bd0B7C118",
  "abi": [
    {
      "anonymous": false,
      "inputs": [
        {
          "indexed": true,
          "internalType": "address",
          "name": "_connectedList",
          "type": "address"
        }
      ],
      "name": "ConnectedListSet",
      "type": "event"
    },
    {
      "anonymous": false,
      "inputs": [
        {
          "indexed": true,
          "internalType": "contract IArbitratorV2",
          "name": "_arbitrator",
          "type": "address"
        },
        {
          "indexed": true,
          "internalType": "uint256",
          "name": "_arbitratorDisputeID",
          "type": "uint256"
        },
        {
          "indexed": false,
          "internalType": "uint256",
          "name": "_templateId",
          "type": "uint256"
        }
      ],
      "name": "DisputeRequest",
      "type": "event"
    },
    {
      "anonymous": false,
      "inputs": [
        {
          "indexed": true,
          "internalType": "bytes32",
          "name": "_itemID",
          "type": "bytes32"
        },
        {
          "indexed": false,
          "internalType": "bool",
          "name": "_updatedDirectly",
          "type": "bool"
        }
      ],
      "name": "ItemStatusChange",
      "type": "event"
    },
    {
      "anonymous": false,
      "inputs": [
        {
          "indexed": false,
          "internalType": "string",
          "name": "_listMetadata",
          "type": "string"
        }
      ],
      "name": "ListMetadataSet",
      "type": "event"
    },
    {
      "anonymous": false,
      "inputs": [
        {
          "indexed": true,
          "internalType": "bytes32",
          "name": "_itemID",
          "type": "bytes32"
        },
        {
          "indexed": false,
          "internalType": "string",
          "name": "_data",
          "type": "string"
        },
        {
          "indexed": false,
          "internalType": "bool",
          "name": "_addedDirectly",
          "type": "bool"
        }
      ],
      "name": "NewItem",
      "type": "event"
    },
    {
      "anonymous": false,
      "inputs": [
        {
          "indexed": true,
          "internalType": "bytes32",
          "name": "_itemID",
          "type": "bytes32"
        },
        {
          "indexed": false,
          "internalType": "uint256",
          "name": "_requestID",
          "type": "uint256"
        },
        {
          "indexed": false,
          "internalType": "string",
          "name": "_evidence",
          "type": "string"
        }
      ],
      "name": "RequestChallenged",
      "type": "event"
    },
    {
      "anonymous": false,
      "inputs": [
        {
          "indexed": true,
          "internalType": "bytes32",
          "name": "_itemID",
          "type": "bytes32"
        },
        {
          "indexed": false,
          "internalType": "uint256",
          "name": "_requestID",
          "type": "uint256"
        },
        {
          "indexed": false,
          "internalType": "string",
          "name": "_evidence",
          "type": "string"
        }
      ],
      "name": "RequestSubmitted",
      "type": "event"
    },
    {
      "anonymous": false,
      "inputs": [
        {
          "indexed": true,
          "internalType": "contract IArbitratorV2",
          "name": "_arbitrator",
          "type": "address"
        },
        {
          "indexed": true,
          "internalType": "uint256",
          "name": "_disputeID",
          "type": "uint256"
        },
        {
          "indexed": false,
          "internalType": "uint256",
          "name": "_ruling",
          "type": "uint256"
        }
      ],
      "name": "Ruling",
      "type": "event"
    },
    {
      "inputs": [],
      "name": "RULING_OPTIONS",
      "outputs": [
        {
          "internalType": "uint256",
          "name": "",
          "type": "uint256"
        }
      ],
      "stateMutability": "view",
      "type": "function"
    },
    {
      "inputs": [
        {
          "internalType": "string",
          "name": "_item",
          "type": "string"
        }
      ],
      "name": "addItem",
      "outputs": [],
      "stateMutability": "payable",
      "type": "function"
    },
    {
      "inputs": [
        {
          "internalType": "string",
          "name": "_item",
          "type": "string"
        }
      ],
      "name": "addItemDirectly",
      "outputs": [],
      "stateMutability": "nonpayable",
      "type": "function"
    },
    {
      "inputs": [
        {
          "internalType": "uint256",
          "name": "",
          "type": "uint256"
        }
      ],
      "name": "arbitrationParamsChanges",
      "outputs": [
        {
          "internalType": "contract IArbitratorV2",
          "name": "arbitrator",
          "type": "address"
        },
        {
          "internalType": "bytes",
          "name": "arbitratorExtraData",
          "type": "bytes"
        }
      ],
      "stateMutability": "view",
      "type": "function"
    },
    {
      "inputs": [
        {
          "internalType": "address",
          "name": "",
          "type": "address"
        },
        {
          "internalType": "uint256",
          "name": "",
          "type": "uint256"
        }
      ],
      "name": "arbitratorDisputeIDToItemID",
      "outputs": [
        {
          "internalType": "bytes32",
          "name": "",
          "type": "bytes32"
        }
      ],
      "stateMutability": "view",
      "type": "function"
    },
    {
      "inputs": [],
      "name": "challengePeriodDuration",
      "outputs": [
        {
          "internalType": "uint256",
          "name": "",
          "type": "uint256"
        }
      ],
      "stateMutability": "view",
      "type": "function"
    },
    {
      "inputs": [
        {
          "internalType": "bytes32",
          "name": "_itemID",
          "type": "bytes32"
        },
        {
          "internalType": "string",
          "name": "_evidence",
          "type": "string"
        }
      ],
      "name": "challengeRequest",
      "outputs": [],
      "stateMutability": "payable",
      "type": "function"
    },
    {
      "inputs": [
        {
          "internalType": "contract IArbitratorV2",
          "name": "_arbitrator",
          "type": "address"
        },
        {
          "internalType": "bytes",
          "name": "_arbitratorExtraData",
          "type": "bytes"
        },
        {
          "internalType": "contract EvidenceModule",
          "name": "_evidenceModule",
          "type": "address"
        }
      ],
      "name": "changeArbitrationParams",
      "outputs": [],
      "stateMutability": "nonpayable",
      "type": "function"
    },
    {
      "inputs": [
        {
          "internalType": "uint256",
          "name": "_challengePeriodDuration",
          "type": "uint256"
        }
      ],
      "name": "changeChallengePeriodDuration",
      "outputs": [],
      "stateMutability": "nonpayable",
      "type": "function"
    },
    {
      "inputs": [
        {
          "internalType": "address",
          "name": "_connectedList",
          "type": "address"
        }
      ],
      "name": "changeConnectedList",
      "outputs": [],
      "stateMutability": "nonpayable",
      "type": "function"
    },
    {
      "inputs": [
        {
          "internalType": "address",
          "name": "_governor",
          "type": "address"
        }
      ],
      "name": "changeGovernor",
      "outputs": [],
      "stateMutability": "nonpayable",
      "type": "function"
    },
    {
      "inputs": [
        {
          "internalType": "string",
          "name": "_listMetadata",
          "type": "string"
        }
      ],
      "name": "changeListMetadata",
      "outputs": [],
      "stateMutability": "nonpayable",
      "type": "function"
    },
    {
      "inputs": [
        {
          "internalType": "string",
          "name": "_templateData",
          "type": "string"
        },
        {
          "internalType": "string",
          "name": "_templateDataMappings",
          "type": "string"
        }
      ],
      "name": "changeRegistrationDisputeTemplate",
      "outputs": [],
      "stateMutability": "nonpayable",
      "type": "function"
    },
    {
      "inputs": [
        {
          "internalType": "address",
          "name": "_relayerContract",
          "type": "address"
        }
      ],
      "name": "changeRelayerContract",
      "outputs": [],
      "stateMutability": "nonpayable",
      "type": "function"
    },
    {
      "inputs": [
        {
          "internalType": "uint256",
          "name": "_removalBaseDeposit",
          "type": "uint256"
        }
      ],
      "name": "changeRemovalBaseDeposit",
      "outputs": [],
      "stateMutability": "nonpayable",
      "type": "function"
    },
    {
      "inputs": [
        {
          "internalType": "uint256",
          "name": "_removalChallengeBaseDeposit",
          "type": "uint256"
        }
      ],
      "name": "changeRemovalChallengeBaseDeposit",
      "outputs": [],
      "stateMutability": "nonpayable",
      "type": "function"
    },
    {
      "inputs": [
        {
          "internalType": "string",
          "name": "_templateData",
          "type": "string"
        },
        {
          "internalType": "string",
          "name": "_templateDataMappings",
          "type": "string"
        }
      ],
      "name": "changeRemovalDisputeTemplate",
      "outputs": [],
      "stateMutability": "nonpayable",
      "type": "function"
    },
    {
      "inputs": [
        {
          "internalType": "uint256",
          "name": "_submissionBaseDeposit",
          "type": "uint256"
        }
      ],
      "name": "changeSubmissionBaseDeposit",
      "outputs": [],
      "stateMutability": "nonpayable",
      "type": "function"
    },
    {
      "inputs": [
        {
          "internalType": "uint256",
          "name": "_submissionChallengeBaseDeposit",
          "type": "uint256"
        }
      ],
      "name": "changeSubmissionChallengeBaseDeposit",
      "outputs": [],
      "stateMutability": "nonpayable",
      "type": "function"
    },
    {
      "inputs": [
        {
          "internalType": "contract IDisputeTemplateRegistry",
          "name": "_templateRegistry",
          "type": "address"
        }
      ],
      "name": "changeTemplateRegistry",
      "outputs": [],
      "stateMutability": "nonpayable",
      "type": "function"
    },
    {
      "inputs": [
        {
          "internalType": "bytes32",
          "name": "_itemID",
          "type": "bytes32"
        }
      ],
      "name": "executeRequest",
      "outputs": [],
      "stateMutability": "nonpayable",
      "type": "function"
    },
    {
      "inputs": [],
      "name": "getArbitrator",
      "outputs": [
        {
          "internalType": "contract IArbitratorV2",
          "name": "",
          "type": "address"
        }
      ],
      "stateMutability": "view",
      "type": "function"
    },
    {
      "inputs": [],
      "name": "getArbitratorExtraData",
      "outputs": [
        {
          "internalType": "bytes",
          "name": "",
          "type": "bytes"
        }
      ],
      "stateMutability": "view",
      "type": "function"
    },
    {
      "inputs": [
        {
          "internalType": "bytes32",
          "name": "_itemID",
          "type": "bytes32"
        }
      ],
      "name": "getItemInfo",
      "outputs": [
        {
          "internalType": "enum CurateV2.Status",
          "name": "status",
          "type": "uint8"
        },
        {
          "internalType": "uint256",
          "name": "numberOfRequests",
          "type": "uint256"
        },
        {
          "internalType": "uint256",
          "name": "sumDeposit",
          "type": "uint256"
        }
      ],
      "stateMutability": "view",
      "type": "function"
    },
    {
      "inputs": [
        {
          "internalType": "bytes32",
          "name": "_itemID",
          "type": "bytes32"
        },
        {
          "internalType": "uint256",
          "name": "_requestID",
          "type": "uint256"
        }
      ],
      "name": "getRequestID",
      "outputs": [
        {
          "internalType": "uint256",
          "name": "",
          "type": "uint256"
        }
      ],
      "stateMutability": "pure",
      "type": "function"
    },
    {
      "inputs": [
        {
          "internalType": "bytes32",
          "name": "_itemID",
          "type": "bytes32"
        },
        {
          "internalType": "uint256",
          "name": "_requestID",
          "type": "uint256"
        }
      ],
      "name": "getRequestInfo",
      "outputs": [
        {
          "internalType": "bool",
          "name": "disputed",
          "type": "bool"
        },
        {
          "internalType": "uint256",
          "name": "disputeID",
          "type": "uint256"
        },
        {
          "internalType": "uint256",
          "name": "submissionTime",
          "type": "uint256"
        },
        {
          "internalType": "bool",
          "name": "resolved",
          "type": "bool"
        },
        {
          "internalType": "address payable[3]",
          "name": "parties",
          "type": "address[3]"
        },
        {
          "internalType": "enum CurateV2.Party",
          "name": "ruling",
          "type": "uint8"
        },
        {
          "internalType": "contract IArbitratorV2",
          "name": "requestArbitrator",
          "type": "address"
        },
        {
          "internalType": "bytes",
          "name": "requestArbitratorExtraData",
          "type": "bytes"
        }
      ],
      "stateMutability": "view",
      "type": "function"
    },
    {
      "inputs": [],
      "name": "governor",
      "outputs": [
        {
          "internalType": "address",
          "name": "",
          "type": "address"
        }
      ],
      "stateMutability": "view",
      "type": "function"
    },
    {
      "inputs": [
        {
          "internalType": "address",
          "name": "_governor",
          "type": "address"
        },
        {
          "internalType": "contract IArbitratorV2",
          "name": "_arbitrator",
          "type": "address"
        },
        {
          "internalType": "bytes",
          "name": "_arbitratorExtraData",
          "type": "bytes"
        },
        {
          "internalType": "contract EvidenceModule",
          "name": "_evidenceModule",
          "type": "address"
        },
        {
          "internalType": "address",
          "name": "_connectedList",
          "type": "address"
        },
        {
          "components": [
            {
              "internalType": "address",
              "name": "templateRegistry",
              "type": "address"
            },
            {
              "internalType": "string[2]",
              "name": "registrationTemplateParameters",
              "type": "string[2]"
            },
            {
              "internalType": "string[2]",
              "name": "removalTemplateParameters",
              "type": "string[2]"
            }
          ],
          "internalType": "struct CurateV2.TemplateRegistryParams",
          "name": "_templateRegistryParams",
          "type": "tuple"
        },
        {
          "internalType": "uint256[4]",
          "name": "_baseDeposits",
          "type": "uint256[4]"
        },
        {
          "internalType": "uint256",
          "name": "_challengePeriodDuration",
          "type": "uint256"
        },
        {
          "internalType": "address",
          "name": "_relayerContract",
          "type": "address"
        },
        {
          "internalType": "string",
          "name": "_listMetadata",
          "type": "string"
        }
      ],
      "name": "initialize",
      "outputs": [],
      "stateMutability": "nonpayable",
      "type": "function"
    },
    {
      "inputs": [
        {
          "internalType": "bytes32",
          "name": "",
          "type": "bytes32"
        }
      ],
      "name": "items",
      "outputs": [
        {
          "internalType": "enum CurateV2.Status",
          "name": "status",
          "type": "uint8"
        },
        {
          "internalType": "uint256",
          "name": "sumDeposit",
          "type": "uint256"
        },
        {
          "internalType": "uint256",
          "name": "requestCount",
          "type": "uint256"
        }
      ],
      "stateMutability": "view",
      "type": "function"
    },
    {
      "inputs": [],
      "name": "relayerContract",
      "outputs": [
        {
          "internalType": "address",
          "name": "",
          "type": "address"
        }
      ],
      "stateMutability": "view",
      "type": "function"
    },
    {
      "inputs": [],
      "name": "removalBaseDeposit",
      "outputs": [
        {
          "internalType": "uint256",
          "name": "",
          "type": "uint256"
        }
      ],
      "stateMutability": "view",
      "type": "function"
    },
    {
      "inputs": [],
      "name": "removalChallengeBaseDeposit",
      "outputs": [
        {
          "internalType": "uint256",
          "name": "",
          "type": "uint256"
        }
      ],
      "stateMutability": "view",
      "type": "function"
    },
    {
      "inputs": [
        {
          "internalType": "bytes32",
          "name": "_itemID",
          "type": "bytes32"
        },
        {
          "internalType": "string",
          "name": "_evidence",
          "type": "string"
        }
      ],
      "name": "removeItem",
      "outputs": [],
      "stateMutability": "payable",
      "type": "function"
    },
    {
      "inputs": [
        {
          "internalType": "bytes32",
          "name": "_itemID",
          "type": "bytes32"
        }
      ],
      "name": "removeItemDirectly",
      "outputs": [],
      "stateMutability": "nonpayable",
      "type": "function"
    },
    {
      "inputs": [
        {
          "internalType": "bytes32",
          "name": "",
          "type": "bytes32"
        },
        {
          "internalType": "uint256",
          "name": "",
          "type": "uint256"
        }
      ],
      "name": "requestsDisputeData",
      "outputs": [
        {
          "internalType": "uint256",
          "name": "disputeID",
          "type": "uint256"
        },
        {
          "internalType": "enum CurateV2.DisputeStatus",
          "name": "status",
          "type": "uint8"
        },
        {
          "internalType": "enum CurateV2.Party",
          "name": "ruling",
          "type": "uint8"
        }
      ],
      "stateMutability": "view",
      "type": "function"
    },
    {
      "inputs": [
        {
          "internalType": "uint256",
          "name": "_disputeID",
          "type": "uint256"
        },
        {
          "internalType": "uint256",
          "name": "_ruling",
          "type": "uint256"
        }
      ],
      "name": "rule",
      "outputs": [],
      "stateMutability": "nonpayable",
      "type": "function"
    },
    {
      "inputs": [],
      "name": "submissionBaseDeposit",
      "outputs": [
        {
          "internalType": "uint256",
          "name": "",
          "type": "uint256"
        }
      ],
      "stateMutability": "view",
      "type": "function"
    },
    {
      "inputs": [],
      "name": "submissionChallengeBaseDeposit",
      "outputs": [
        {
          "internalType": "uint256",
          "name": "",
          "type": "uint256"
        }
      ],
      "stateMutability": "view",
      "type": "function"
    },
    {
      "inputs": [],
      "name": "templateIdRegistration",
      "outputs": [
        {
          "internalType": "uint256",
          "name": "",
          "type": "uint256"
        }
      ],
      "stateMutability": "view",
      "type": "function"
    },
    {
      "inputs": [],
      "name": "templateIdRemoval",
      "outputs": [
        {
          "internalType": "uint256",
          "name": "",
          "type": "uint256"
        }
      ],
      "stateMutability": "view",
      "type": "function"
    },
    {
      "inputs": [],
      "name": "templateRegistry",
      "outputs": [
        {
          "internalType": "contract IDisputeTemplateRegistry",
          "name": "",
          "type": "address"
        }
      ],
      "stateMutability": "view",
      "type": "function"
    }
  ],
  "transactionHash": "0x6f80434690055ec5f4a3a4249008aa70c07e2abede95f922917c1ed6ce672412",
  "args": [],
  "numDeployments": 6,
  "solcInputHash": "e2587390aa9fc86c58d135eba53465ca",
  "bytecode": "0x608060405234801561001057600080fd5b50613301806100206000396000f3fe6080604052600436106102455760003560e01c80638545c6a511610139578063bb0b86ff116100b6578063ca2c3cd11161007a578063ca2c3cd11461071c578063ccfd43071461073c578063d29d8f7d1461075c578063dd78cb591461077c578063e4c0aaf41461079c578063e9c24166146107bc57600080fd5b8063bb0b86ff14610677578063bfbcff1a1461068d578063c104817d146106c1578063c2f2beea146106e1578063c669439e146106f757600080fd5b80639c81a827116100fd5780639c81a827146105bb5780639dbea446146105f3578063a0af81f014610613578063a214e71214610633578063a37b6ad41461066157600080fd5b80638545c6a514610535578063873db1a7146105555780638c88c1491461056857806395dec7cc1461058857806397e90e50146105a857600080fd5b806340f1fa65116101c7578063560f7eaf1161018b578063560f7eaf146104b25780635d06e92c146104d2578063626c47e8146104e8578063787471a9146104fd5780637932ecf31461051357600080fd5b806340f1fa65146103c557806341e57c06146103e55780634660ebbe1461040557806348f343f3146104255780634aac84e51461047457600080fd5b8063107a8bfd1161020e578063107a8bfd1461033c57806325b98b831461035257806327e9f29414610372578063311a6c561461038557806333e5d047146103a557600080fd5b806282a36d1461024a57806303f3e206146102735780630c340a24146102cd5780630c6de59b146103055780630fceb74614610327575b600080fd5b34801561025657600080fd5b5061026060095481565b6040519081526020015b60405180910390f35b34801561027f57600080fd5b506102be61028e366004612760565b600c6020908152600092835260408084209091529082529020805460019091015460ff8082169161010090041683565b60405161026a939291906127b8565b3480156102d957600080fd5b506001546102ed906001600160a01b031681565b6040516001600160a01b03909116815260200161026a565b34801561031157600080fd5b50610325610320366004612826565b6107dc565b005b34801561033357600080fd5b506102ed61084c565b34801561034857600080fd5b5061026060035481565b34801561035e57600080fd5b5061032561036d3660046128b5565b61088f565b610325610380366004612826565b610bf9565b34801561039157600080fd5b506103256103a0366004612760565b610ee9565b3480156103b157600080fd5b506103256103c03660046129cc565b61133e565b3480156103d157600080fd5b506103256103e03660046129e5565b61136d565b3480156103f157600080fd5b506103256104003660046129cc565b6113bf565b34801561041157600080fd5b506103256104203660046129e5565b611461565b34801561043157600080fd5b506104656104403660046129cc565b600a6020526000908152604090208054600182015460029092015460ff909116919083565b60405161026a93929190612a09565b34801561048057600080fd5b5061046561048f3660046129cc565b6000908152600a602052604090208054600282015460019092015460ff90911692565b3480156104be57600080fd5b506103256104cd3660046129cc565b6114ad565b3480156104de57600080fd5b5061026060045481565b3480156104f457600080fd5b50610260600281565b34801561050957600080fd5b5061026060085481565b34801561051f57600080fd5b506105286114dc565b60405161026a9190612a77565b34801561054157600080fd5b50610325610550366004612826565b61159f565b610325610563366004612a8a565b6116bf565b34801561057457600080fd5b506103256105833660046129cc565b611baa565b34801561059457600080fd5b506103256105a33660046129e5565b611bd9565b6103256105b6366004612a8a565b611c3a565b3480156105c757600080fd5b506102606105d6366004612ad5565b600b60209081526000928352604080842090915290825290205481565b3480156105ff57600080fd5b5061026061060e366004612760565b611e88565b34801561061f57600080fd5b506002546102ed906001600160a01b031681565b34801561063f57600080fd5b5061065361064e3660046129cc565b611eb7565b60405161026a929190612b01565b34801561066d57600080fd5b5061026060075481565b34801561068357600080fd5b5061026060055481565b34801561069957600080fd5b506106ad6106a8366004612760565b611f79565b60405161026a989796959493929190612b2d565b3480156106cd57600080fd5b506103256106dc3660046129cc565b612079565b3480156106ed57600080fd5b5061026060065481565b34801561070357600080fd5b506000546102ed9061010090046001600160a01b031681565b34801561072857600080fd5b50610325610737366004612bbe565b6120a8565b34801561074857600080fd5b50610325610757366004612cc7565b61217d565b34801561076857600080fd5b50610325610777366004612cc7565b612223565b34801561078857600080fd5b506103256107973660046129cc565b6122c9565b3480156107a857600080fd5b506103256107b73660046129e5565b6122f8565b3480156107c857600080fd5b506103256107d73660046129cc565b612344565b6001546001600160a01b0316331461080f5760405162461bcd60e51b815260040161080690612d2a565b60405180910390fd5b7f13f4b17ef5086467299cf476d7b3dc951be41f777dfd04d03aefa1bb1641fcd48282604051610840929190612d88565b60405180910390a15050565b600d80546000919061086090600190612db2565b8154811061087057610870612dc5565b60009182526020909120600290910201546001600160a01b0316919050565b60005460ff16156108d95760405162461bcd60e51b815260206004820152601460248201527320b63932b0b23c9034b734ba34b0b634bd32b21760611b6044820152606401610806565b60008054600160ff199091168117825580546001600160a01b0319166001600160a01b038f16179055859060200201356005558460016020020135600655846002602002013560075584600360209081029190910135600855600985905560008054610100600160a81b0319166101006001600160a01b03871602179055610963908701876129e5565b600280546001600160a01b0319166001600160a01b03929092169182179055634a9941746109946020890189612ddb565b61099e9080612dfb565b6109ab60208b018b612ddb565b6109b9906020810190612dfb565b6040518563ffffffff1660e01b81526004016109d89493929190612e60565b6020604051808303816000875af11580156109f7573d6000803e3d6000fd5b505050506040513d601f19601f82011682018060405250810190610a1b9190612ea5565b6003556002546001600160a01b0316634a994174610a3c6040890189612ddb565b610a469080612dfb565b610a5360408b018b612ddb565b610a61906020810190612dfb565b6040518563ffffffff1660e01b8152600401610a809493929190612ed8565b6020604051808303816000875af1158015610a9f573d6000803e3d6000fd5b505050506040513d601f19601f82011682018060405250810190610ac39190612ea5565b600481905550600d60405180604001604052808d6001600160a01b031681526020018c8c8080601f0160208091040260200160405190810160405280939291908181526020018383808284376000920182905250939094525050835460018082018655948252602091829020845160029092020180546001600160a01b0319166001600160a01b0390921691909117815590830151929390929083019150610b6b9082612f6b565b5050506001600160a01b03871615610bb2576040516001600160a01b038816907f344e4755cad3cd67dadc30e884f068430a1d0a62dd5d14a6a062d6e630ec298790600090a25b7f13f4b17ef5086467299cf476d7b3dc951be41f777dfd04d03aefa1bb1641fcd48282604051610be3929190612d88565b60405180910390a1505050505050505050505050565b60008282604051602001610c0e92919061302a565b60408051601f1981840301815291815281516020928301206000818152600a90935290822090925090815460ff166003811115610c4d57610c4d612782565b14610c6a5760405162461bcd60e51b81526004016108069061303a565b8060020154600003610cb457817f93e4d3e9542ddd9eea8962241d920b12b96bce26749667189fd06ed3549019e185856000604051610cab9392919061306f565b60405180910390a25b6002810180546000916003840191839182610cce83613095565b919050558152602001908152602001600020905060006001600d80549050610cf69190612db2565b90506000600d8281548110610d0d57610d0d612dc5565b60009182526020822060029091020154600d80546001600160a01b0390921693509084908110610d3f57610d3f612dc5565b906000526020600020906002020160010190506000826001600160a01b031663f7434ea9836040518263ffffffff1660e01b8152600401610d80919061312b565b602060405180830381865afa158015610d9d573d6000803e3d6000fd5b505050506040513d601f19601f82011682018060405250810190610dc19190612ea5565b9050600060055482610dd3919061313e565b905080341015610df55760405162461bcd60e51b815260040161080690613151565b60018781018290558754600260ff199091168117895587546bffffffffffffffffffffffff1916610100426001600160401b03160262ffffff60481b191617600160481b62ffffff891602176bffffffffffffffffffffffff1633600160601b0217885588015489917f337db15fac9407d08afee830e3ab38b858f96aa7ff5fc6daf14ca727d3446b3b91610e9091849161060e9190612db2565b604080519182526020820181905260009082015260600160405180910390a280341115610edd57336108fc610ec58334612db2565b6040518115909202916000818181858888f150505050505b50505050505050505050565b6002811115610f325760405162461bcd60e51b815260206004820152601560248201527424b73b30b634b210393ab634b7339037b83a34b7b760591b6044820152606401610806565b336000908152600b60209081526040808320858452825280832054808452600a9092528220600281015491929091610f6c90600190612db2565b60008181526003840160209081526040808320878452600c83528184208585529092529091209192509060018082015460ff166002811115610fb057610fb0612782565b146110075760405162461bcd60e51b815260206004820152602160248201527f5468652072657175657374206d757374206e6f74206265207265736f6c7665646044820152601760f91b6064820152608401610806565b8154600d8054600092600160481b900462ffffff1690811061102b5761102b612dc5565b6000918252602090912060029091020180549091506001600160a01b031633146110a55760405162461bcd60e51b815260206004820152602560248201527f4f6e6c79207468652061726269747261746f722063616e206769766520612072604482015264756c696e6760d81b6064820152608401610806565b604051878152889033907f394027a5fa6e098a1191094d1719d6929b9abc535fcc0c8f448d6a4e756222769060200160405180910390a360008760028111156110f0576110f0612782565b600184018054600260ff19821681178355929350839261ffff1990911681179061010090849081111561112557611125612782565b02179055506001860180546000918290559082600281111561114957611149612782565b03611205576002875460ff16600381111561116657611166612782565b14611172576001611175565b60005b8754889060ff1916600183600381111561119157611191612782565b021790555060006111a3600283613186565b8654604051919250600160601b90046001600160a01b0316906108fc8315029083906000818181858888f150505060018801546040516001600160a01b03909116925083156108fc02915083906000818181858888f19350505050505061130e565b600182600281111561121957611219612782565b0361129a576002875460ff16600381111561123657611236612782565b14611242576000611245565b60015b8754889060ff1916600183600381111561126157611261612782565b02179055508454604051600160601b9091046001600160a01b0316906108fc8315029083906000818181858888f193505050505061130e565b6002875460ff1660038111156112b2576112b2612782565b146112be5760016112c1565b60005b8754889060ff191660018360038111156112dd576112dd612782565b021790555060018501546040516001600160a01b039091169082156108fc029083906000818181858888f150505050505b6040516000815288906000805160206132ac8339815191529060200160405180910390a250505050505050505050565b6001546001600160a01b031633146113685760405162461bcd60e51b815260040161080690612d2a565b600555565b6001546001600160a01b031633146113975760405162461bcd60e51b815260040161080690612d2a565b600080546001600160a01b0390921661010002610100600160a81b0319909216919091179055565b60005461010090046001600160a01b031633146113ee5760405162461bcd60e51b8152600401610806906131a8565b6000818152600a602052604090206001815460ff16600381111561141457611414612782565b146114315760405162461bcd60e51b8152600401610806906131df565b805460ff191681556040516001815282906000805160206132ac8339815191529060200160405180910390a25050565b6001546001600160a01b0316331461148b5760405162461bcd60e51b815260040161080690612d2a565b600280546001600160a01b0319166001600160a01b0392909216919091179055565b6001546001600160a01b031633146114d75760405162461bcd60e51b815260040161080690612d2a565b600955565b600d8054606091906114f090600190612db2565b8154811061150057611500612dc5565b9060005260206000209060020201600101805461151c90612eea565b80601f016020809104026020016040519081016040528092919081815260200182805461154890612eea565b80156115955780601f1061156a57610100808354040283529160200191611595565b820191906000526020600020905b81548152906001019060200180831161157857829003601f168201915b5050505050905090565b60005461010090046001600160a01b031633146115ce5760405162461bcd60e51b8152600401610806906131a8565b600082826040516020016115e392919061302a565b60408051601f1981840301815291815281516020928301206000818152600a90935290822090925090815460ff16600381111561162257611622612782565b1461163f5760405162461bcd60e51b81526004016108069061303a565b806002015460000361168957817f93e4d3e9542ddd9eea8962241d920b12b96bce26749667189fd06ed3549019e1858560016040516116809392919061306f565b60405180910390a25b805460ff19166001908117825560405190815282906000805160206132ac8339815191529060200160405180910390a250505050565b6000838152600a602052604090206001815460ff1660038111156116e5576116e5612782565b116117405760405162461bcd60e51b815260206004820152602560248201527f546865206974656d206d757374206861766520612070656e64696e67207265716044820152643ab2b9ba1760d91b6064820152608401610806565b6000600182600201546117539190612db2565b60008181526003840160205260409020600954815492935090916117859061010090046001600160401b031642612db2565b11156117ee5760405162461bcd60e51b815260206004820152603260248201527f4368616c6c656e676573206d757374206f6363757220647572696e67207468656044820152711031b430b63632b733b2903832b934b7b21760711b6064820152608401610806565b6000868152600c60209081526040808320858452909152812090600182015460ff16600281111561182157611821612782565b146118895760405162461bcd60e51b815260206004820152603260248201527f54686520726571756573742073686f756c64206e6f74206861766520616c726560448201527130b23c903132b2b7103234b9b83aba32b21760711b6064820152608401610806565b8154600d8054600092600160481b900462ffffff169081106118ad576118ad612dc5565b600091825260208220600290910201805460405163f7434ea960e01b81529193506001600160a01b03169190829063f7434ea9906118f290600187019060040161312b565b602060405180830381865afa15801561190f573d6000803e3d6000fd5b505050506040513d601f19601f820116820180604052508101906119339190612ea5565b90506000806002895460ff16600381111561195057611950612782565b1461195d57600854611961565b6007545b905061196d818461313e565b915050803410156119cb5760405162461bcd60e51b815260206004820152602260248201527f596f75206d7573742066756c6c792066756e6420746865206368616c6c656e67604482015261329760f11b6064820152608401610806565b818189600101546119dc919061313e565b6119e69190612db2565b6001808a019190915586810180546001600160a01b0319163317905560405163c13517e160e01b81526001600160a01b0385169163c13517e1918591611a34916002918a0190600401613225565b60206040518083038185885af1158015611a52573d6000803e3d6000fd5b50505050506040513d601f19601f82011682018060405250810190611a779190612ea5565b8086556001808701805460ff191690911790556001600160a01b0384166000908152600b602090815260408083209383529290529081208c9055611abb8c89611e88565b90508b7f9781040fb98ea635d05cd29b58bae11a1d68ed9eeea4d56784b45a6cfb880eac828d8d604051611af19392919061323e565b60405180910390a2600080885460ff166001811115611b1257611b12612782565b14611b1f57600454611b23565b6003545b90508660000154856001600160a01b03167fee1017dcbefba87397fcdaab31f187328533572b6a5568177fa2eb64026003b683604051611b6591815260200190565b60405180910390a382341115611b9b57336108fc611b838534612db2565b6040518115909202916000818181858888f150505050505b50505050505050505050505050565b6001546001600160a01b03163314611bd45760405162461bcd60e51b815260040161080690612d2a565b600655565b6001546001600160a01b03163314611c035760405162461bcd60e51b815260040161080690612d2a565b6040516001600160a01b038216907f344e4755cad3cd67dadc30e884f068430a1d0a62dd5d14a6a062d6e630ec298790600090a250565b6000838152600a602052604090206001815460ff166003811115611c6057611c60612782565b14611c7d5760405162461bcd60e51b8152600401610806906131df565b6002810180546000916003840191839182611c9783613095565b919050558152602001908152602001600020905060006001600d80549050611cbf9190612db2565b90506000600d8281548110611cd657611cd6612dc5565b600091825260208220600290910201805460405163f7434ea960e01b81529193506001600160a01b03169190829063f7434ea990611d1b90600187019060040161312b565b602060405180830381865afa158015611d38573d6000803e3d6000fd5b505050506040513d601f19601f82011682018060405250810190611d5c9190612ea5565b9050600060065482611d6e919061313e565b905080341015611d905760405162461bcd60e51b815260040161080690613151565b60018781018290558754600360ff1991821617895587546bffffffffffffffffffffff001916610100426001600160401b03160262ffffff60481b191617600160481b62ffffff891602176bffffffffffffffffffffff001633600160601b0290911617811787556002880154600091611e0f918d9161060e91612db2565b90508a7f337db15fac9407d08afee830e3ab38b858f96aa7ff5fc6daf14ca727d3446b3b828c8c604051611e459392919061323e565b60405180910390a281341115611e7b57336108fc611e638434612db2565b6040518115909202916000818181858888f150505050505b5050505050505050505050565b604080516020808201859052818301849052825180830384018152606090920190925280519101205b92915050565b600d8181548110611ec757600080fd5b6000918252602090912060029091020180546001820180546001600160a01b03909216935090611ef690612eea565b80601f0160208091040260200160405190810160405280929190818152602001828054611f2290612eea565b8015611f6f5780601f10611f4457610100808354040283529160200191611f6f565b820191906000526020600020905b815481529060010190602001808311611f5257829003601f168201915b5050505050905082565b600080600080611f87612742565b6000878152600a60205260408120600281015482916060918a10611fe75760405162461bcd60e51b81526020600482015260176024820152762932b8bab2b9ba103237b2b9903737ba1032bc34b9ba1760491b6044820152606401610806565b60008b8152600a602090815260408083208d845260030182529182902080546001600160a01b03600160601b82048116938a01939093526001820154909216928801929092526001600160401b036101009091041697506120488c8c612596565b919b50995094506120598c8c6125ec565b90945092506120688c8c6126f1565b965050509295985092959890939650565b6001546001600160a01b031633146120a35760405162461bcd60e51b815260040161080690612d2a565b600755565b6001546001600160a01b031633146120d25760405162461bcd60e51b815260040161080690612d2a565b600d6040518060400160405280866001600160a01b0316815260200185858080601f0160208091040260200160405190810160405280939291908181526020018383808284376000920182905250939094525050835460018082018655948252602091829020845160029092020180546001600160a01b0319166001600160a01b03909216919091178155908301519293909290830191506121749082612f6b565b50505050505050565b6001546001600160a01b031633146121a75760405162461bcd60e51b815260040161080690612d2a565b6002546040516312a6505d60e21b81526001600160a01b0390911690634a994174906121d99085908590600401613261565b6020604051808303816000875af11580156121f8573d6000803e3d6000fd5b505050506040513d601f19601f8201168201806040525081019061221c9190612ea5565b6004555050565b6001546001600160a01b0316331461224d5760405162461bcd60e51b815260040161080690612d2a565b6002546040516312a6505d60e21b81526001600160a01b0390911690634a9941749061227f9085908590600401613299565b6020604051808303816000875af115801561229e573d6000803e3d6000fd5b505050506040513d601f19601f820116820180604052508101906122c29190612ea5565b6003555050565b6001546001600160a01b031633146122f35760405162461bcd60e51b815260040161080690612d2a565b600855565b6001546001600160a01b031633146123225760405162461bcd60e51b815260040161080690612d2a565b600180546001600160a01b0319166001600160a01b0392909216919091179055565b6000818152600a60205260408120600281015490919061236690600190612db2565b60008181526003840160205260409020600954815492935090916123989061010090046001600160401b031642612db2565b116123f65760405162461bcd60e51b815260206004820152602860248201527f54696d6520746f206368616c6c656e6765207468652072657175657374206d7560448201526739ba103830b9b99760c11b6064820152608401610806565b6000848152600c60209081526040808320858452909152812090600182015460ff16600281111561242957612429612782565b146124825760405162461bcd60e51b815260206004820152602360248201527f54686520726571756573742073686f756c64206e6f742062652064697370757460448201526232b21760e91b6064820152608401610806565b6002845460ff16600381111561249a5761249a612782565b036124b7578354600190859060ff191682805b021790555061252a565b6003845460ff1660038111156124cf576124cf612782565b036124e7578354600090859060ff19166001836124ad565b60405162461bcd60e51b81526020600482015260186024820152772a3432b9329036bab9ba1031329030903932b8bab2b9ba1760411b6044820152606401610806565b6040516000815285906000805160206132ac8339815191529060200160405180910390a26001840180546000909155801561258e578254604051600160601b9091046001600160a01b0316906108fc8315029083906000818181858888f150505050505b505050505050565b6000828152600c6020908152604080832084845290915281208190819060018082015460ff1660028111156125cd576125cd612782565b825460019093015491111597919650610100900460ff16945092505050565b6000828152600a6020908152604080832084845260030190915281208054600d805460609392859291600160481b90910462ffffff1690811061263157612631612dc5565b6000918252602090912060029091020180546001820180549293506001600160a01b0390911691819061266390612eea565b80601f016020809104026020016040519081016040528092919081815260200182805461268f90612eea565b80156126dc5780601f106126b1576101008083540402835291602001916126dc565b820191906000526020600020905b8154815290600101906020018083116126bf57829003601f168201915b505050505090509350935050505b9250929050565b6000828152600a6020526040812060028101548203612714576000915050611eb1565b600181600201546127259190612db2565b831015612736576001915050611eb1565b60010154159392505050565b60405180606001604052806003906020820280368337509192915050565b6000806040838503121561277357600080fd5b50508035926020909101359150565b634e487b7160e01b600052602160045260246000fd5b600381106127a8576127a8612782565b50565b6127b481612798565b9052565b838152606081016127c884612798565b8360208301526127d783612798565b826040830152949350505050565b60008083601f8401126127f757600080fd5b5081356001600160401b0381111561280e57600080fd5b6020830191508360208285010111156126ea57600080fd5b6000806020838503121561283957600080fd5b82356001600160401b0381111561284f57600080fd5b61285b858286016127e5565b90969095509350505050565b6001600160a01b03811681146127a857600080fd5b803561288781612867565b919050565b60006060828403121561289e57600080fd5b50919050565b8060808101831015611eb157600080fd5b6000806000806000806000806000806000806101a08d8f0312156128d857600080fd5b6128e18d61287c565b9b506128ef60208e0161287c565b9a506001600160401b0360408e0135111561290957600080fd5b6129198e60408f01358f016127e5565b909a50985061292a60608e0161287c565b975061293860808e0161287c565b96506001600160401b0360a08e0135111561295257600080fd5b6129628e60a08f01358f0161288c565b95506129718e60c08f016128a4565b94506101408d013593506129886101608e0161287c565b92506001600160401b036101808e013511156129a357600080fd5b6129b48e6101808f01358f016127e5565b81935080925050509295989b509295989b509295989b565b6000602082840312156129de57600080fd5b5035919050565b6000602082840312156129f757600080fd5b8135612a0281612867565b9392505050565b6060810160048510612a1d57612a1d612782565b938152602081019290925260409091015290565b6000815180845260005b81811015612a5757602081850181015186830182015201612a3b565b506000602082860101526020601f19601f83011685010191505092915050565b602081526000612a026020830184612a31565b600080600060408486031215612a9f57600080fd5b8335925060208401356001600160401b03811115612abc57600080fd5b612ac8868287016127e5565b9497909650939450505050565b60008060408385031215612ae857600080fd5b8235612af381612867565b946020939093013593505050565b6001600160a01b0383168152604060208201819052600090612b2590830184612a31565b949350505050565b60006101408a1515835260208a60208501528960408501528815156060850152608084018860005b6003811015612b7b5781516001600160a01b031683529183019190830190600101612b55565b50505050612b8c60e08401876127ab565b6001600160a01b03851661010084015280610120840152612baf81840185612a31565b9b9a5050505050505050505050565b60008060008060608587031215612bd457600080fd5b8435612bdf81612867565b935060208501356001600160401b03811115612bfa57600080fd5b612c06878288016127e5565b9094509250506040850135612c1a81612867565b939692955090935050565b634e487b7160e01b600052604160045260246000fd5b600082601f830112612c4c57600080fd5b81356001600160401b0380821115612c6657612c66612c25565b604051601f8301601f19908116603f01168101908282118183101715612c8e57612c8e612c25565b81604052838152866020858801011115612ca757600080fd5b836020870160208301376000602085830101528094505050505092915050565b60008060408385031215612cda57600080fd5b82356001600160401b0380821115612cf157600080fd5b612cfd86838701612c3b565b93506020850135915080821115612d1357600080fd5b50612d2085828601612c3b565b9150509250929050565b6020808252818101527f5468652063616c6c6572206d7573742062652074686520676f7665726e6f722e604082015260600190565b81835281816020850137506000828201602090810191909152601f909101601f19169091010190565b602081526000612b25602083018486612d5f565b634e487b7160e01b600052601160045260246000fd5b81810381811115611eb157611eb1612d9c565b634e487b7160e01b600052603260045260246000fd5b60008235603e19833603018112612df157600080fd5b9190910192915050565b6000808335601e19843603018112612e1257600080fd5b8301803591506001600160401b03821115612e2c57600080fd5b6020019150368190038213156126ea57600080fd5b600c81526b2932b3b4b9ba3930ba34b7b760a11b602082015260400190565b606081526000612e7260608301612e41565b8281036020840152612e85818789612d5f565b90508281036040840152612e9a818587612d5f565b979650505050505050565b600060208284031215612eb757600080fd5b5051919050565b600781526614995b5bdd985b60ca1b602082015260400190565b606081526000612e7260608301612ebe565b600181811c90821680612efe57607f821691505b60208210810361289e57634e487b7160e01b600052602260045260246000fd5b601f821115612f66576000816000526020600020601f850160051c81016020861015612f475750805b601f850160051c820191505b8181101561258e57828155600101612f53565b505050565b81516001600160401b03811115612f8457612f84612c25565b612f9881612f928454612eea565b84612f1e565b602080601f831160018114612fcd5760008415612fb55750858301515b600019600386901b1c1916600185901b17855561258e565b600085815260208120601f198616915b82811015612ffc57888601518255948401946001909101908401612fdd565b508582101561301a5787850151600019600388901b60f8161c191681555b5050505050600190811b01905550565b8183823760009101908152919050565b6020808252818101527f4974656d206d75737420626520616273656e7420746f2062652061646465642e604082015260600190565b604081526000613083604083018587612d5f565b90508215156020830152949350505050565b6000600182016130a7576130a7612d9c565b5060010190565b600081546130bb81612eea565b8085526020600183811680156130d857600181146130f257613120565b60ff1985168884015283151560051b880183019550613120565b866000528260002060005b858110156131185781548a82018601529083019084016130fd565b890184019650505b505050505092915050565b602081526000612a0260208301846130ae565b80820180821115611eb157611eb1612d9c565b6020808252818101527f596f75206d7573742066756c6c792066756e642074686520726571756573742e604082015260600190565b6000826131a357634e487b7160e01b600052601260045260246000fd5b500490565b6020808252601d908201527f5468652063616c6c6572206d757374206265207468652072656c61792e000000604082015260600190565b60208082526026908201527f4974656d206d757374206265207265676973746572656420746f20626520726560408201526536b7bb32b21760d11b606082015260800190565b828152604060208201526000612b2560408301846130ae565b838152604060208201526000613258604083018486612d5f565b95945050505050565b60608152600061327360608301612ebe565b82810360208401526132858186612a31565b905082810360408401526132588185612a31565b60608152600061327360608301612e4156fed768d67a683a3f5110d48ee5af827e22f4f36d017d764d3bfb11982492b19536a26469706673582212205bde0a257aa2935b83699d6304cbb56980bce4c9027538f6d169d933737d491264736f6c63430008180033",
  "devdoc": {
    "events": {
      "ConnectedListSet(address)": {
        "details": "Emitted when the address of the connected Curate contract is set. The Curate is an instance of the Curate contract where each item is the address of a Curate contract related to this one.",
        "params": {
          "_connectedList": "The address of the connected Curate."
        }
      },
      "DisputeRequest(address,uint256,uint256)": {
        "params": {
          "_arbitrator": "The arbitrator of the contract.",
          "_arbitratorDisputeID": "The identifier of the dispute in the Arbitrator contract.",
          "_templateId": "The identifier of the dispute template."
        }
      },
      "ItemStatusChange(bytes32,bool)": {
        "details": "Emitted when a party makes a request, raises a dispute or when a request is resolved.",
        "params": {
          "_itemID": "The ID of the affected item.",
          "_updatedDirectly": "Whether this was emitted in either `addItemDirectly` or `removeItemDirectly`. This is used in the subgraph."
        }
      },
      "ListMetadataSet(string)": {
        "details": "Emitted when the list metadata ipfs uri is updated.",
        "params": {
          "_listMetadata": "Ipfs uri to list metadata."
        }
      },
      "NewItem(bytes32,string,bool)": {
        "details": "Emitted when someone submits an item for the first time.",
        "params": {
          "_addedDirectly": "Whether the item was added via `addItemDirectly`.",
          "_data": "Stringified JSON Object containing item data. Example at :- https://cloudflare-ipfs.com/ipfs/QmTypFX9416z5V87Fsnf6A89rrskh2X8BSVdaKhwzXNiDb/item.json.",
          "_itemID": "The ID of the new item."
        }
      },
      "RequestChallenged(bytes32,uint256,string)": {
        "details": "Emitted when someone challenges a request.",
        "params": {
          "_evidence": "Stringified evidence object, example: '{\"name\" : \"Justification\", \"description\" : \"Description\", \"fileURI\" : \"/ipfs/QmWQV5ZFFhEJiW8Lm7ay2zLxC2XS4wx1b2W7FfdrLMyQQc\"}'.",
          "_itemID": "The ID of the affected item.",
          "_requestID": "Unique dispute identifier within this contract."
        }
      },
      "RequestSubmitted(bytes32,uint256,string)": {
        "details": "Emitted when someone submits a request.",
        "params": {
          "_evidence": "Stringified evidence object, example: '{\"name\" : \"Justification\", \"description\" : \"Description\", \"fileURI\" : \"/ipfs/QmWQV5ZFFhEJiW8Lm7ay2zLxC2XS4wx1b2W7FfdrLMyQQc\"}'.",
          "_itemID": "The ID of the affected item.",
          "_requestID": "Unique dispute identifier within this contract."
        }
      },
      "Ruling(address,uint256,uint256)": {
        "params": {
          "_arbitrator": "The arbitrator giving the ruling.",
          "_disputeID": "The identifier of the dispute in the Arbitrator contract.",
          "_ruling": "The ruling which was given."
        }
      }
    },
    "kind": "dev",
    "methods": {
      "addItem(string)": {
        "details": "Submit a request to register an item. Accepts enough ETH to cover the deposit, reimburses the rest.",
        "params": {
          "_item": "Stringified JSON object containing item data. Example at :- https://cloudflare-ipfs.com/ipfs/QmTypFX9416z5V87Fsnf6A89rrskh2X8BSVdaKhwzXNiDb/item.json"
        }
      },
      "addItemDirectly(string)": {
        "details": "Directly add an item to the list bypassing request-challenge. Can only be used by the relayer contract.",
        "params": {
          "_item": "Stringified JSON Object containing Item data"
        }
      },
      "challengeRequest(bytes32,string)": {
        "details": "Challenges the request of the item. Accepts enough ETH to cover the deposit, reimburses the rest.",
        "params": {
          "_evidence": "Stringified evidence object, example: '{\"name\" : \"Justification\", \"description\" : \"Description\", \"fileURI\" : \"/ipfs/QmWQV5ZFFhEJiW8Lm7ay2zLxC2XS4wx1b2W7FfdrLMyQQc\"}'.",
          "_itemID": "The ID of the item which request to challenge."
        }
      },
      "changeArbitrationParams(address,bytes,address)": {
        "params": {
          "_arbitrator": "Arbitrator to resolve potential disputes. The arbitrator is trusted to support appeal periods and not reenter.",
          "_arbitratorExtraData": "Extra data for the trusted arbitrator contract.",
          "_evidenceModule": "The evidence module for the arbitrator."
        }
      },
      "changeChallengePeriodDuration(uint256)": {
        "details": "Change the duration of the challenge period.",
        "params": {
          "_challengePeriodDuration": "The new duration of the challenge period."
        }
      },
      "changeConnectedList(address)": {
        "details": "Change the address of connectedList, the Curate instance that stores addresses of Curate contracts related to this one.",
        "params": {
          "_connectedList": "The address of the connectedList contract to use."
        }
      },
      "changeGovernor(address)": {
        "details": "Change the governor of the curated registry.",
        "params": {
          "_governor": "The address of the new governor."
        }
      },
      "changeListMetadata(string)": {
        "details": "Update list metadata ipfs uri.",
        "params": {
          "_listMetadata": "Ipfs uri to list metadata"
        }
      },
      "changeRegistrationDisputeTemplate(string,string)": {
        "details": "Changes the dispute template for registration requests.",
        "params": {
          "_templateData": "The new template data for registration requests.",
          "_templateDataMappings": "The new data mappings json for registration requests."
        }
      },
      "changeRelayerContract(address)": {
        "details": "Change the address of the relay contract.",
        "params": {
          "_relayerContract": "The new address of the relay contract."
        }
      },
      "changeRemovalBaseDeposit(uint256)": {
        "details": "Change the base amount required as a deposit to remove an item.",
        "params": {
          "_removalBaseDeposit": "The new base amount of wei required to remove an item."
        }
      },
      "changeRemovalChallengeBaseDeposit(uint256)": {
        "details": "Change the base amount required as a deposit to challenge a removal request.",
        "params": {
          "_removalChallengeBaseDeposit": "The new base amount of wei required to challenge a removal request."
        }
      },
      "changeRemovalDisputeTemplate(string,string)": {
        "details": "Changes the dispute template for removal requests.",
        "params": {
          "_templateData": "The new template data for removal requests.",
          "_templateDataMappings": "The new data mappings json for removal requests."
        }
      },
      "changeSubmissionBaseDeposit(uint256)": {
        "details": "Change the base amount required as a deposit to submit an item.",
        "params": {
          "_submissionBaseDeposit": "The new base amount of wei required to submit an item."
        }
      },
      "changeSubmissionChallengeBaseDeposit(uint256)": {
        "details": "Change the base amount required as a deposit to challenge a submission.",
        "params": {
          "_submissionChallengeBaseDeposit": "The new base amount of wei required to challenge a submission."
        }
      },
      "changeTemplateRegistry(address)": {
        "details": "Changes the address of Template Registry contract.",
        "params": {
          "_templateRegistry": "The new template registry."
        }
      },
      "executeRequest(bytes32)": {
        "details": "Executes an unchallenged request if the challenge period has passed.",
        "params": {
          "_itemID": "The ID of the item to execute."
        }
      },
      "getArbitrator()": {
        "details": "Gets the latest value in arbitrationParamsChanges.",
        "returns": {
          "_0": "The arbitrator address."
        }
      },
      "getArbitratorExtraData()": {
        "details": "Gets the latest value in arbitrationParamsChanges.",
        "returns": {
          "_0": "The arbitrator extra data."
        }
      },
      "getItemInfo(bytes32)": {
        "details": "Returns item's information. Includes the total number of requests for the item",
        "params": {
          "_itemID": "The ID of the queried item."
        },
        "returns": {
          "numberOfRequests": "Total number of requests for the item.",
          "status": "The current status of the item.",
          "sumDeposit": "The total deposit made by the requester and the challenger (if any)"
        }
      },
      "getRequestID(bytes32,uint256)": {
        "params": {
          "_itemID": "The ID of the item.",
          "_requestID": "The ID of the request."
        },
        "returns": {
          "_0": "Local dispute ID."
        }
      },
      "getRequestInfo(bytes32,uint256)": {
        "details": "Gets information on a request made for the item.",
        "params": {
          "_itemID": "The ID of the queried item.",
          "_requestID": "The request to be queried."
        },
        "returns": {
          "disputeID": "ID of the dispute, if any.",
          "disputed": "True if a dispute was raised.",
          "parties": "Address of requester and challenger, if any.",
          "requestArbitrator": "The arbitrator trusted to solve disputes for this request.",
          "requestArbitratorExtraData": "The extra data for the trusted arbitrator of this request.",
          "resolved": "True if the request was executed and/or any raised disputes were resolved.",
          "ruling": "The final ruling given, if any.",
          "submissionTime": "Time when the request was made."
        }
      },
      "initialize(address,address,bytes,address,address,(address,string[2],string[2]),uint256[4],uint256,address,string)": {
        "details": "Initialize the arbitrable curated registry.",
        "params": {
          "_arbitrator": "Arbitrator to resolve potential disputes. The arbitrator is trusted to support appeal periods and not reenter.",
          "_arbitratorExtraData": "Extra data for the trusted arbitrator contract.",
          "_baseDeposits": "The base deposits for requests/challenges as follows: - The base deposit to submit an item. - The base deposit to remove an item. - The base deposit to challenge a submission. - The base deposit to challenge a removal request.",
          "_challengePeriodDuration": "The time in seconds parties have to challenge a request.",
          "_connectedList": "The address of the Curate contract that stores related Curate addresses. This parameter can be left empty.",
          "_evidenceModule": "The evidence contract for the arbitrator.",
          "_governor": "The trusted governor of this contract.",
          "_listMetadata": "Stringified JSON object containing list metadata (title, description, isListOfLists, etc.). Example at :-  https://cloudflare-ipfs.com/ipfs/QmekLsbXtQfm2jJjdeC5TF1cJcr5qxarZ9bhKmCS9s3ebK/list-metadata.json",
          "_relayerContract": "The address of the relayer contract to add/remove items directly.",
          "_templateRegistryParams": "The dispute template registry. - templateRegistry : The dispute template registry. - registrationTemplateParameters : Template and data mappings json for registration requests. - removalTemplateParameters : Template and data mappings json for removal requests."
        }
      },
      "removeItem(bytes32,string)": {
        "details": "Submit a request to remove an item from the list. Accepts enough ETH to cover the deposit, reimburses the rest.",
        "params": {
          "_evidence": "Stringified evidence object, example: '{\"name\" : \"Justification\", \"description\" : \"Description\", \"fileURI\" : \"/ipfs/QmWQV5ZFFhEJiW8Lm7ay2zLxC2XS4wx1b2W7FfdrLMyQQc\"}'.",
          "_itemID": "The ID of the item to remove."
        }
      },
      "removeItemDirectly(bytes32)": {
        "details": "Directly remove an item from the list bypassing request-challenge. Can only be used by the relayer contract.",
        "params": {
          "_itemID": "The ID of the item to remove. Example at :- https://cloudflare-ipfs.com/ipfs/QmTypFX9416z5V87Fsnf6A89rrskh2X8BSVdaKhwzXNiDb/item.json"
        }
      },
      "rule(uint256,uint256)": {
        "details": "Give a ruling for a dispute. Can only be called by the arbitrator. TRUSTED.",
        "params": {
          "_disputeID": "ID of the dispute in the arbitrator contract.",
          "_ruling": "Ruling given by the arbitrator. Note that 0 is reserved for \"Refused to arbitrate\"."
        }
      }
    },
    "title": "Curate Curated registry contract compatible with V2. The V1 version is here https://github.com/kleros/tcr/blob/master/contracts/LightGeneralizedTCR.sol",
    "version": 1
  },
  "userdoc": {
    "events": {
      "DisputeRequest(address,uint256,uint256)": {
        "notice": "To be emitted when a dispute is created to link the correct template to the disputeID."
      },
      "Ruling(address,uint256,uint256)": {
        "notice": "To be raised when a ruling is given."
      }
    },
    "kind": "user",
    "methods": {
      "changeArbitrationParams(address,bytes,address)": {
        "notice": "Changes the params related to arbitration."
      },
      "getArbitrator()": {
        "notice": "Gets the arbitrator for new requests."
      },
      "getArbitratorExtraData()": {
        "notice": "Gets the arbitratorExtraData for new requests."
      },
      "getRequestID(bytes32,uint256)": {
        "notice": "Gets the local dispute ID for a given item and request."
      }
    },
    "version": 1
  },
  "storageLayout": {
    "storage": [
      {
        "astId": 953,
        "contract": "src/CurateV2.sol:CurateV2",
        "label": "initialized",
        "offset": 0,
        "slot": "0",
        "type": "t_bool"
      },
      {
        "astId": 958,
        "contract": "src/CurateV2.sol:CurateV2",
        "label": "relayerContract",
        "offset": 1,
        "slot": "0",
        "type": "t_address"
      },
      {
        "astId": 960,
        "contract": "src/CurateV2.sol:CurateV2",
        "label": "governor",
        "offset": 0,
        "slot": "1",
        "type": "t_address"
      },
      {
        "astId": 963,
        "contract": "src/CurateV2.sol:CurateV2",
        "label": "templateRegistry",
        "offset": 0,
        "slot": "2",
        "type": "t_contract(IDisputeTemplateRegistry)245"
      },
      {
        "astId": 965,
        "contract": "src/CurateV2.sol:CurateV2",
        "label": "templateIdRegistration",
        "offset": 0,
        "slot": "3",
        "type": "t_uint256"
      },
      {
        "astId": 967,
        "contract": "src/CurateV2.sol:CurateV2",
        "label": "templateIdRemoval",
        "offset": 0,
        "slot": "4",
        "type": "t_uint256"
      },
      {
        "astId": 969,
        "contract": "src/CurateV2.sol:CurateV2",
        "label": "submissionBaseDeposit",
        "offset": 0,
        "slot": "5",
        "type": "t_uint256"
      },
      {
        "astId": 971,
        "contract": "src/CurateV2.sol:CurateV2",
        "label": "removalBaseDeposit",
        "offset": 0,
        "slot": "6",
        "type": "t_uint256"
      },
      {
        "astId": 973,
        "contract": "src/CurateV2.sol:CurateV2",
        "label": "submissionChallengeBaseDeposit",
        "offset": 0,
        "slot": "7",
        "type": "t_uint256"
      },
      {
        "astId": 975,
        "contract": "src/CurateV2.sol:CurateV2",
        "label": "removalChallengeBaseDeposit",
        "offset": 0,
        "slot": "8",
        "type": "t_uint256"
      },
      {
        "astId": 977,
        "contract": "src/CurateV2.sol:CurateV2",
        "label": "challengePeriodDuration",
        "offset": 0,
        "slot": "9",
        "type": "t_uint256"
      },
      {
        "astId": 982,
        "contract": "src/CurateV2.sol:CurateV2",
        "label": "items",
        "offset": 0,
        "slot": "10",
        "type": "t_mapping(t_bytes32,t_struct(Item)913_storage)"
      },
      {
        "astId": 988,
        "contract": "src/CurateV2.sol:CurateV2",
        "label": "arbitratorDisputeIDToItemID",
        "offset": 0,
        "slot": "11",
        "type": "t_mapping(t_address,t_mapping(t_uint256,t_bytes32))"
      },
      {
        "astId": 995,
        "contract": "src/CurateV2.sol:CurateV2",
        "label": "requestsDisputeData",
        "offset": 0,
        "slot": "12",
        "type": "t_mapping(t_bytes32,t_mapping(t_uint256,t_struct(DisputeData)934_storage))"
      },
      {
        "astId": 999,
        "contract": "src/CurateV2.sol:CurateV2",
        "label": "arbitrationParamsChanges",
        "offset": 0,
        "slot": "13",
        "type": "t_array(t_struct(ArbitrationParams)940_storage)dyn_storage"
      }
    ],
    "types": {
      "t_address": {
        "encoding": "inplace",
        "label": "address",
        "numberOfBytes": "20"
      },
      "t_address_payable": {
        "encoding": "inplace",
        "label": "address payable",
        "numberOfBytes": "20"
      },
      "t_array(t_struct(ArbitrationParams)940_storage)dyn_storage": {
        "base": "t_struct(ArbitrationParams)940_storage",
        "encoding": "dynamic_array",
        "label": "struct CurateV2.ArbitrationParams[]",
        "numberOfBytes": "32"
      },
      "t_bool": {
        "encoding": "inplace",
        "label": "bool",
        "numberOfBytes": "1"
      },
      "t_bytes32": {
        "encoding": "inplace",
        "label": "bytes32",
        "numberOfBytes": "32"
      },
      "t_bytes_storage": {
        "encoding": "bytes",
        "label": "bytes",
        "numberOfBytes": "32"
      },
      "t_contract(IArbitratorV2)218": {
        "encoding": "inplace",
        "label": "contract IArbitratorV2",
        "numberOfBytes": "20"
      },
      "t_contract(IDisputeTemplateRegistry)245": {
        "encoding": "inplace",
        "label": "contract IDisputeTemplateRegistry",
        "numberOfBytes": "20"
      },
      "t_enum(DisputeStatus)900": {
        "encoding": "inplace",
        "label": "enum CurateV2.DisputeStatus",
        "numberOfBytes": "1"
      },
      "t_enum(Party)893": {
        "encoding": "inplace",
        "label": "enum CurateV2.Party",
        "numberOfBytes": "1"
      },
      "t_enum(RequestType)896": {
        "encoding": "inplace",
        "label": "enum CurateV2.RequestType",
        "numberOfBytes": "1"
      },
      "t_enum(Status)889": {
        "encoding": "inplace",
        "label": "enum CurateV2.Status",
        "numberOfBytes": "1"
      },
      "t_mapping(t_address,t_mapping(t_uint256,t_bytes32))": {
        "encoding": "mapping",
        "key": "t_address",
        "label": "mapping(address => mapping(uint256 => bytes32))",
        "numberOfBytes": "32",
        "value": "t_mapping(t_uint256,t_bytes32)"
      },
      "t_mapping(t_bytes32,t_mapping(t_uint256,t_struct(DisputeData)934_storage))": {
        "encoding": "mapping",
        "key": "t_bytes32",
        "label": "mapping(bytes32 => mapping(uint256 => struct CurateV2.DisputeData))",
        "numberOfBytes": "32",
        "value": "t_mapping(t_uint256,t_struct(DisputeData)934_storage)"
      },
      "t_mapping(t_bytes32,t_struct(Item)913_storage)": {
        "encoding": "mapping",
        "key": "t_bytes32",
        "label": "mapping(bytes32 => struct CurateV2.Item)",
        "numberOfBytes": "32",
        "value": "t_struct(Item)913_storage"
      },
      "t_mapping(t_uint256,t_bytes32)": {
        "encoding": "mapping",
        "key": "t_uint256",
        "label": "mapping(uint256 => bytes32)",
        "numberOfBytes": "32",
        "value": "t_bytes32"
      },
      "t_mapping(t_uint256,t_struct(DisputeData)934_storage)": {
        "encoding": "mapping",
        "key": "t_uint256",
        "label": "mapping(uint256 => struct CurateV2.DisputeData)",
        "numberOfBytes": "32",
        "value": "t_struct(DisputeData)934_storage"
      },
      "t_mapping(t_uint256,t_struct(Request)925_storage)": {
        "encoding": "mapping",
        "key": "t_uint256",
        "label": "mapping(uint256 => struct CurateV2.Request)",
        "numberOfBytes": "32",
        "value": "t_struct(Request)925_storage"
      },
      "t_struct(ArbitrationParams)940_storage": {
        "encoding": "inplace",
        "label": "struct CurateV2.ArbitrationParams",
        "members": [
          {
            "astId": 937,
            "contract": "src/CurateV2.sol:CurateV2",
            "label": "arbitrator",
            "offset": 0,
            "slot": "0",
            "type": "t_contract(IArbitratorV2)218"
          },
          {
            "astId": 939,
            "contract": "src/CurateV2.sol:CurateV2",
            "label": "arbitratorExtraData",
            "offset": 0,
            "slot": "1",
            "type": "t_bytes_storage"
          }
        ],
        "numberOfBytes": "64"
      },
      "t_struct(DisputeData)934_storage": {
        "encoding": "inplace",
        "label": "struct CurateV2.DisputeData",
        "members": [
          {
            "astId": 927,
            "contract": "src/CurateV2.sol:CurateV2",
            "label": "disputeID",
            "offset": 0,
            "slot": "0",
            "type": "t_uint256"
          },
          {
            "astId": 930,
            "contract": "src/CurateV2.sol:CurateV2",
            "label": "status",
            "offset": 0,
            "slot": "1",
            "type": "t_enum(DisputeStatus)900"
          },
          {
            "astId": 933,
            "contract": "src/CurateV2.sol:CurateV2",
            "label": "ruling",
            "offset": 1,
            "slot": "1",
            "type": "t_enum(Party)893"
          }
        ],
        "numberOfBytes": "64"
      },
      "t_struct(Item)913_storage": {
        "encoding": "inplace",
        "label": "struct CurateV2.Item",
        "members": [
          {
            "astId": 903,
            "contract": "src/CurateV2.sol:CurateV2",
            "label": "status",
            "offset": 0,
            "slot": "0",
            "type": "t_enum(Status)889"
          },
          {
            "astId": 905,
            "contract": "src/CurateV2.sol:CurateV2",
            "label": "sumDeposit",
            "offset": 0,
            "slot": "1",
            "type": "t_uint256"
          },
          {
            "astId": 907,
            "contract": "src/CurateV2.sol:CurateV2",
            "label": "requestCount",
            "offset": 0,
            "slot": "2",
            "type": "t_uint256"
          },
          {
            "astId": 912,
            "contract": "src/CurateV2.sol:CurateV2",
            "label": "requests",
            "offset": 0,
            "slot": "3",
            "type": "t_mapping(t_uint256,t_struct(Request)925_storage)"
          }
        ],
        "numberOfBytes": "128"
      },
      "t_struct(Request)925_storage": {
        "encoding": "inplace",
        "label": "struct CurateV2.Request",
        "members": [
          {
            "astId": 916,
            "contract": "src/CurateV2.sol:CurateV2",
            "label": "requestType",
            "offset": 0,
            "slot": "0",
            "type": "t_enum(RequestType)896"
          },
          {
            "astId": 918,
            "contract": "src/CurateV2.sol:CurateV2",
            "label": "submissionTime",
            "offset": 1,
            "slot": "0",
            "type": "t_uint64"
          },
          {
            "astId": 920,
            "contract": "src/CurateV2.sol:CurateV2",
            "label": "arbitrationParamsIndex",
            "offset": 9,
            "slot": "0",
            "type": "t_uint24"
          },
          {
            "astId": 922,
            "contract": "src/CurateV2.sol:CurateV2",
            "label": "requester",
            "offset": 12,
            "slot": "0",
            "type": "t_address_payable"
          },
          {
            "astId": 924,
            "contract": "src/CurateV2.sol:CurateV2",
            "label": "challenger",
            "offset": 0,
            "slot": "1",
            "type": "t_address_payable"
          }
        ],
        "numberOfBytes": "64"
      },
      "t_uint24": {
        "encoding": "inplace",
        "label": "uint24",
        "numberOfBytes": "3"
      },
      "t_uint256": {
        "encoding": "inplace",
        "label": "uint256",
        "numberOfBytes": "32"
      },
      "t_uint64": {
        "encoding": "inplace",
        "label": "uint64",
        "numberOfBytes": "8"
      }
    }
  }
}