{
  "address": "0x61DAadc87f1e0889407d2Fd725eAEB79E2B5cF80",
  "abi": [
    {
      "inputs": [
        {
          "internalType": "contract CurateV2",
          "name": "_curate",
          "type": "address"
        }
      ],
      "name": "fetchArbitrable",
      "outputs": [
        {
          "components": [
            {
              "internalType": "address",
              "name": "governor",
              "type": "address"
            },
            {
              "internalType": "address",
              "name": "arbitrator",
              "type": "address"
            },
            {
              "internalType": "bytes",
              "name": "arbitratorExtraData",
              "type": "bytes"
            },
            {
              "internalType": "address",
              "name": "relayerContract",
              "type": "address"
            },
            {
              "internalType": "uint256",
              "name": "submissionBaseDeposit",
              "type": "uint256"
            },
            {
              "internalType": "uint256",
              "name": "removalBaseDeposit",
              "type": "uint256"
            },
            {
              "internalType": "uint256",
              "name": "submissionChallengeBaseDeposit",
              "type": "uint256"
            },
            {
              "internalType": "uint256",
              "name": "removalChallengeBaseDeposit",
              "type": "uint256"
            },
            {
              "internalType": "uint256",
              "name": "challengePeriodDuration",
              "type": "uint256"
            },
            {
              "internalType": "address",
              "name": "templateRegistry",
              "type": "address"
            },
            {
              "internalType": "uint256",
              "name": "templateIdRegistration",
              "type": "uint256"
            },
            {
              "internalType": "uint256",
              "name": "templateIdRemoval",
              "type": "uint256"
            },
            {
              "internalType": "uint256",
              "name": "arbitrationCost",
              "type": "uint256"
            }
          ],
          "internalType": "struct CurateView.ArbitrableData",
          "name": "result",
          "type": "tuple"
        }
      ],
      "stateMutability": "view",
      "type": "function"
    },
    {
      "inputs": [
        {
          "internalType": "contract CurateV2",
          "name": "_curate",
          "type": "address"
        },
        {
          "internalType": "bytes32",
          "name": "_itemID",
          "type": "bytes32"
        }
      ],
      "name": "getItem",
      "outputs": [
        {
          "components": [
            {
              "internalType": "bytes32",
              "name": "ID",
              "type": "bytes32"
            },
            {
              "internalType": "enum CurateV2.Status",
              "name": "status",
              "type": "uint8"
            },
            {
              "internalType": "bool",
              "name": "disputed",
              "type": "bool"
            },
            {
              "internalType": "bool",
              "name": "resolved",
              "type": "bool"
            },
            {
              "internalType": "uint256",
              "name": "disputeID",
              "type": "uint256"
            },
            {
              "internalType": "enum CurateV2.Party",
              "name": "ruling",
              "type": "uint8"
            },
            {
              "internalType": "address",
              "name": "requester",
              "type": "address"
            },
            {
              "internalType": "address",
              "name": "challenger",
              "type": "address"
            },
            {
              "internalType": "address",
              "name": "arbitrator",
              "type": "address"
            },
            {
              "internalType": "bytes",
              "name": "arbitratorExtraData",
              "type": "bytes"
            },
            {
              "internalType": "uint256",
              "name": "submissionTime",
              "type": "uint256"
            },
            {
              "internalType": "uint256",
              "name": "numberOfRequests",
              "type": "uint256"
            }
          ],
          "internalType": "struct CurateView.QueryResult",
          "name": "result",
          "type": "tuple"
        }
      ],
      "stateMutability": "view",
      "type": "function"
    },
    {
      "inputs": [
        {
          "internalType": "contract CurateV2",
          "name": "_curate",
          "type": "address"
        },
        {
          "internalType": "bytes32",
          "name": "_itemID",
          "type": "bytes32"
        }
      ],
      "name": "getItemData",
      "outputs": [
        {
          "components": [
            {
              "internalType": "enum CurateV2.Status",
              "name": "status",
              "type": "uint8"
            },
            {
              "internalType": "uint256",
              "name": "numberOfRequests",
              "type": "uint256"
            }
          ],
          "internalType": "struct CurateView.ItemData",
          "name": "item",
          "type": "tuple"
        }
      ],
      "stateMutability": "view",
      "type": "function"
    },
    {
      "inputs": [
        {
          "internalType": "contract CurateV2",
          "name": "_curate",
          "type": "address"
        },
        {
          "internalType": "bytes32",
          "name": "_itemID",
          "type": "bytes32"
        }
      ],
      "name": "getItemRequests",
      "outputs": [
        {
          "components": [
            {
              "internalType": "bool",
              "name": "disputed",
              "type": "bool"
            },
            {
              "internalType": "uint256",
              "name": "disputeID",
              "type": "uint256"
            },
            {
              "internalType": "uint256",
              "name": "submissionTime",
              "type": "uint256"
            },
            {
              "internalType": "bool",
              "name": "resolved",
              "type": "bool"
            },
            {
              "internalType": "address",
              "name": "requester",
              "type": "address"
            },
            {
              "internalType": "address",
              "name": "challenger",
              "type": "address"
            },
            {
              "internalType": "address",
              "name": "arbitrator",
              "type": "address"
            },
            {
              "internalType": "bytes",
              "name": "arbitratorExtraData",
              "type": "bytes"
            }
          ],
          "internalType": "struct CurateView.ItemRequest[]",
          "name": "requests",
          "type": "tuple[]"
        }
      ],
      "stateMutability": "view",
      "type": "function"
    },
    {
      "inputs": [
        {
          "internalType": "contract CurateV2",
          "name": "_curate",
          "type": "address"
        },
        {
          "internalType": "bytes32",
          "name": "_itemID",
          "type": "bytes32"
        }
      ],
      "name": "getLatestRequestData",
      "outputs": [
        {
          "components": [
            {
              "components": [
                {
                  "internalType": "enum CurateV2.Status",
                  "name": "status",
                  "type": "uint8"
                },
                {
                  "internalType": "uint256",
                  "name": "numberOfRequests",
                  "type": "uint256"
                }
              ],
              "internalType": "struct CurateView.ItemData",
              "name": "item",
              "type": "tuple"
            },
            {
              "internalType": "bool",
              "name": "disputed",
              "type": "bool"
            },
            {
              "internalType": "uint256",
              "name": "disputeID",
              "type": "uint256"
            },
            {
              "internalType": "uint256",
              "name": "submissionTime",
              "type": "uint256"
            },
            {
              "internalType": "bool",
              "name": "resolved",
              "type": "bool"
            },
            {
              "internalType": "address payable[3]",
              "name": "parties",
              "type": "address[3]"
            },
            {
              "internalType": "enum CurateV2.Party",
              "name": "ruling",
              "type": "uint8"
            },
            {
              "internalType": "contract IArbitratorV2",
              "name": "arbitrator",
              "type": "address"
            },
            {
              "internalType": "bytes",
              "name": "arbitratorExtraData",
              "type": "bytes"
            }
          ],
          "internalType": "struct CurateView.RequestData",
          "name": "request",
          "type": "tuple"
        }
      ],
      "stateMutability": "view",
      "type": "function"
    }
  ],
  "transactionHash": "0x7687eb6dc664a39da2ec1dab4c2ce84e13e119bcbeba9e11ce87a8cc5c4dbcc5",
  "args": [],
  "numDeployments": 2,
  "solcInputHash": "43d22c659b0bfc53d1499e270ad9a93b",
  "bytecode": "0x608060405234801561001057600080fd5b506114d2806100206000396000f3fe608060405234801561001057600080fd5b50600436106100575760003560e01c80630f4d1e731461005c5780633f869479146100855780637d1d8cc2146100a557806387ef093a146100c5578063cefded2e146100e5575b600080fd5b61006f61006a366004610d5c565b610105565b60405161007c9190610ddd565b60405180910390f35b610098610093366004610eaf565b61075c565b60405161007c9190610f15565b6100b86100b3366004610eaf565b6108a5565b60405161007c9190611030565b6100d86100d3366004610eaf565b6109cd565b60405161007c91906110de565b6100f86100f3366004610eaf565b610c0f565b60405161007c91906111b6565b610194604051806101a0016040528060006001600160a01b0316815260200160006001600160a01b031681526020016060815260200160006001600160a01b03168152602001600081526020016000815260200160008152602001600081526020016000815260200160006001600160a01b031681526020016000815260200160008152602001600081525090565b816001600160a01b0316630c340a246040518163ffffffff1660e01b8152600401602060405180830381865afa1580156101d2573d6000803e3d6000fd5b505050506040513d601f19601f820116820180604052508101906101f691906111ca565b6001600160a01b039081168252604080516307e75ba360e11b8152905191841691630fceb746916004808201926020929091908290030181865afa158015610242573d6000803e3d6000fd5b505050506040513d601f19601f8201168201806040525081019061026691906111ca565b81602001906001600160a01b031690816001600160a01b031681525050816001600160a01b0316637932ecf36040518163ffffffff1660e01b8152600401600060405180830381865afa1580156102c1573d6000803e3d6000fd5b505050506040513d6000823e601f3d908101601f191682016040526102e991908101906112be565b8160400181905250816001600160a01b031663c669439e6040518163ffffffff1660e01b8152600401602060405180830381865afa15801561032f573d6000803e3d6000fd5b505050506040513d601f19601f8201168201806040525081019061035391906111ca565b81606001906001600160a01b031690816001600160a01b031681525050816001600160a01b031663bb0b86ff6040518163ffffffff1660e01b8152600401602060405180830381865afa1580156103ae573d6000803e3d6000fd5b505050506040513d601f19601f820116820180604052508101906103d291906112f3565b816080018181525050816001600160a01b031663c2f2beea6040518163ffffffff1660e01b8152600401602060405180830381865afa158015610419573d6000803e3d6000fd5b505050506040513d601f19601f8201168201806040525081019061043d91906112f3565b8160a0018181525050816001600160a01b031663a37b6ad46040518163ffffffff1660e01b8152600401602060405180830381865afa158015610484573d6000803e3d6000fd5b505050506040513d601f19601f820116820180604052508101906104a891906112f3565b8160c0018181525050816001600160a01b031663787471a96040518163ffffffff1660e01b8152600401602060405180830381865afa1580156104ef573d6000803e3d6000fd5b505050506040513d601f19601f8201168201806040525081019061051391906112f3565b8160e0018181525050816001600160a01b03166282a36d6040518163ffffffff1660e01b8152600401602060405180830381865afa158015610559573d6000803e3d6000fd5b505050506040513d601f19601f8201168201806040525081019061057d91906112f3565b81610100018181525050816001600160a01b031663a0af81f06040518163ffffffff1660e01b8152600401602060405180830381865afa1580156105c5573d6000803e3d6000fd5b505050506040513d601f19601f820116820180604052508101906105e991906111ca565b8161012001906001600160a01b031690816001600160a01b031681525050816001600160a01b031663107a8bfd6040518163ffffffff1660e01b8152600401602060405180830381865afa158015610645573d6000803e3d6000fd5b505050506040513d601f19601f8201168201806040525081019061066991906112f3565b81610140018181525050816001600160a01b0316635d06e92c6040518163ffffffff1660e01b8152600401602060405180830381865afa1580156106b1573d6000803e3d6000fd5b505050506040513d601f19601f820116820180604052508101906106d591906112f3565b6101608201526020810151604080830151905163f7434ea960e01b81526001600160a01b039092169163f7434ea9916107109160040161130c565b602060405180830381865afa15801561072d573d6000803e3d6000fd5b505050506040513d601f19601f8201168201806040525081019061075191906112f3565b610180820152919050565b604080516101808101825260008082526020820181905291810182905260608082018390526080820183905260a0820183905260c0820183905260e08201839052610100820183905261012082015261014081018290526101608101829052906107c684846108a5565b905060405180610180016040528084815260200182600001516000015160038111156107f4576107f4610edb565b8152602001826020015115158152602001826080015115158152602001826040015181526020018260c00151600281111561083157610831610edb565b815260a0830180516020908101516001600160a01b03169083015251604090910190600260200201516001600160a01b031681526020018260e001516001600160a01b0316815260200182610100015181526020018260600151815260200182600001516020015181525091505092915050565b6108ad610cc4565b60006108b98484610c0f565b90506000806000806000806000808b6001600160a01b031663bfbcff1a8c60018c602001516108e89190611335565b6040516001600160e01b031960e085901b16815260048101929092526024820152604401600060405180830381865afa158015610929573d6000803e3d6000fd5b505050506040513d6000823e601f3d908101601f191682016040526109519190810190611375565b975097509750975097509750975097506040518061012001604052808a8152602001891515815260200188815260200187815260200186151581526020018581526020018460028111156109a7576109a7610edb565b81526001600160a01b0390931660208401526040909201529a9950505050505050505050565b606060006109db8484610c0f565b9050806020015167ffffffffffffffff8111156109fa576109fa6111f7565b604051908082528060200260200182016040528015610a6b57816020015b60408051610100810182526000808252602080830182905292820181905260608083018290526080830182905260a0830182905260c083019190915260e08201528252600019909201910181610a185790505b50915060005b8160200151811015610c075760008060008060008060008b6001600160a01b031663bfbcff1a8c8a6040518363ffffffff1660e01b8152600401610abf929190918252602082015260400190565b600060405180830381865afa158015610adc573d6000803e3d6000fd5b505050506040513d6000823e601f3d908101601f19168201604052610b049190810190611375565b975097505096509650965096509650604051806101000160405280881515815260200187815260200186815260200185151581526020018460016002811115610b4f57610b4f610edb565b60038110610b5f57610b5f61131f565b60200201516001600160a01b0316815260200184600280811115610b8557610b85610edb565b60038110610b9557610b9561131f565b60200201516001600160a01b03168152602001836001600160a01b03168152602001828152508a60018a8c60200151610bce9190611335565b610bd89190611335565b81518110610be857610be861131f565b6020026020010181905250505050505050508080600101915050610a71565b505092915050565b6040805180820190915260008082526020820152604051634aac84e560e01b81526004810183905260009081906001600160a01b03861690634aac84e590602401606060405180830381865afa158015610c6d573d6000803e3d6000fd5b505050506040513d601f19601f82011682018060405250810190610c919190611461565b50915091506040518060400160405280836003811115610cb357610cb3610edb565b815260200191909152949350505050565b604080516101608101825260006101208201818152610140830182905282526020820181905291810182905260608101829052608081019190915260a08101610d0b610d26565b81526020016000815260006020820152606060409091015290565b60405180606001604052806003906020820280368337509192915050565b6001600160a01b0381168114610d5957600080fd5b50565b600060208284031215610d6e57600080fd5b8135610d7981610d44565b9392505050565b6001600160a01b03169052565b60005b83811015610da8578181015183820152602001610d90565b50506000910152565b60008151808452610dc9816020860160208601610d8d565b601f01601f19169290920160200192915050565b60208152610def602082018351610d80565b60006020830151610e036040840182610d80565b5060408301516101a0806060850152610e206101c0850183610db1565b91506060850151610e346080860182610d80565b50608085015160a085015260a085015160c085015260c085015160e085015260e0850151610100818187015280870151915050610120818187015280870151915050610140610e8581870183610d80565b86015161016086810191909152860151610180808701919091529095015193019290925250919050565b60008060408385031215610ec257600080fd5b8235610ecd81610d44565b946020939093013593505050565b634e487b7160e01b600052602160045260246000fd5b60048110610f0157610f01610edb565b9052565b60038110610f0157610f01610edb565b602081528151602082015260006020830151610f346040840182610ef1565b5060408301518015156060840152506060830151801515608084015250608083015160a083015260a0830151610f6d60c0840182610f05565b5060c0830151610f8060e0840182610d80565b5060e0830151610100610f9581850183610d80565b8401519050610120610fa984820183610d80565b808501519150506101806101408181860152610fc96101a0860184610db1565b9086015161016086810191909152909501519301929092525090919050565b610ff3828251610ef1565b602090810151910152565b8060005b600381101561102a5781516001600160a01b0316845260209384019390910190600101611002565b50505050565b60208152611042602082018351610fe8565b60006020830151611057606084018215159052565b5060408301516080830152606083015160a0830152608083015161107f60c084018215159052565b5060a083015161109260e0840182610ffe565b5060c08301516110a6610140840182610f05565b5060e08301516110ba610160840182610d80565b50610100830151610180838101526110d66101a0840182610db1565b949350505050565b600060208083018184528085518083526040925060408601915060408160051b87010184880160005b838110156111a857603f198984030185528151610100815115158552888201518986015287820151888601526060808301511515818701525060808083015161115282880182610d80565b505060a08083015161116682880182610d80565b505060c08083015161117a82880182610d80565b505060e09182015191850181905261119485820183610db1565b968901969450505090860190600101611107565b509098975050505050505050565b604081016111c48284610fe8565b92915050565b6000602082840312156111dc57600080fd5b8151610d7981610d44565b80516111f281610d44565b919050565b634e487b7160e01b600052604160045260246000fd5b6040516060810167ffffffffffffffff81118282101715611230576112306111f7565b60405290565b600082601f83011261124757600080fd5b815167ffffffffffffffff80821115611262576112626111f7565b604051601f8301601f19908116603f0116810190828211818310171561128a5761128a6111f7565b816040528381528660208588010111156112a357600080fd5b6112b4846020830160208901610d8d565b9695505050505050565b6000602082840312156112d057600080fd5b815167ffffffffffffffff8111156112e757600080fd5b6110d684828501611236565b60006020828403121561130557600080fd5b5051919050565b602081526000610d796020830184610db1565b634e487b7160e01b600052603260045260246000fd5b818103818111156111c457634e487b7160e01b600052601160045260246000fd5b805180151581146111f257600080fd5b8051600381106111f257600080fd5b600080600080600080600080610140898b03121561139257600080fd5b61139b89611356565b97506020808a0151975060408a015196506113b860608b01611356565b95508a609f8b01126113c957600080fd5b6113d161120d565b8060e08c018d8111156113e357600080fd5b60808d015b818110156114085780516113fb81610d44565b84529284019284016113e8565b5081975061141581611366565b9650505050506114286101008a016111e7565b915061012089015167ffffffffffffffff81111561144557600080fd5b6114518b828c01611236565b9150509295985092959890939650565b60008060006060848603121561147657600080fd5b83516004811061148557600080fd5b60208501516040909501519096949550939250505056fea26469706673582212200d885d4523d95a50ff923d0bd0c0f59b53940cabd08838f2039f13f34dead23664736f6c63430008180033",
  "devdoc": {
    "kind": "dev",
    "methods": {
      "fetchArbitrable(address)": {
        "details": "Fetch Curate storage in a single call.",
        "params": {
          "_curate": "The address of the Curate contract to query."
        },
        "returns": {
          "result": "The latest storage data."
        }
      },
      "getItem(address,bytes32)": {
        "details": "Fetch the latest data on an item in a single call.",
        "params": {
          "_curate": "The address of the Curate contract to query.",
          "_itemID": "The ID of the item to query."
        },
        "returns": {
          "result": "The item data."
        }
      },
      "getItemData(address,bytes32)": {
        "details": "Fetch data of the an item and return a struct.",
        "params": {
          "_curate": "The address of the Curate contract to query.",
          "_itemID": "The ID of the item to query."
        },
        "returns": {
          "item": "The item data."
        }
      },
      "getItemRequests(address,bytes32)": {
        "details": "Fetch all requests for an item.",
        "params": {
          "_curate": "The address of the Curate contract to query.",
          "_itemID": "The ID of the item to query."
        },
        "returns": {
          "requests": "The items requests."
        }
      },
      "getLatestRequestData(address,bytes32)": {
        "details": "Fetch the latest request of an item.",
        "params": {
          "_curate": "The address of the Curate contract to query.",
          "_itemID": "The ID of the item to query."
        },
        "returns": {
          "request": "The request data."
        }
      }
    },
    "title": "CurateView A view contract to fetch, batch, parse and return Curate contract data efficiently. This contract includes functions that can halt execution due to out-of-gas exceptions. Because of this it should never be relied upon by other contracts.",
    "version": 1
  },
  "userdoc": {
    "kind": "user",
    "methods": {},
    "version": 1
  },
  "storageLayout": {
    "storage": [],
    "types": null
  }
}